{
  "address": "0xBd678E358B27a3A6a14a804AeD4C5ed6323C4dC1",
  "contractName": "BUIBlockNFT",
  "abi": [
    {
      "inputs": [
        {
          "internalType": "uint256",
          "name": "_publishPrice",
          "type": "uint256"
        }
      ],
      "stateMutability": "nonpayable",
      "type": "constructor"
    },
    {
      "anonymous": false,
      "inputs": [
        {
          "indexed": true,
          "internalType": "address",
          "name": "owner",
          "type": "address"
        },
        {
          "indexed": true,
          "internalType": "address",
          "name": "approved",
          "type": "address"
        },
        {
          "indexed": true,
          "internalType": "uint256",
          "name": "tokenId",
          "type": "uint256"
        }
      ],
      "name": "Approval",
      "type": "event"
    },
    {
      "anonymous": false,
      "inputs": [
        {
          "indexed": true,
          "internalType": "address",
          "name": "owner",
          "type": "address"
        },
        {
          "indexed": true,
          "internalType": "address",
          "name": "operator",
          "type": "address"
        },
        {
          "indexed": false,
          "internalType": "bool",
          "name": "approved",
          "type": "bool"
        }
      ],
      "name": "ApprovalForAll",
      "type": "event"
    },
    {
      "anonymous": false,
      "inputs": [
        {
          "indexed": false,
          "internalType": "uint256",
          "name": "tokenId",
          "type": "uint256"
        }
      ],
      "name": "BUIBlockDeprecated",
      "type": "event"
    },
    {
      "anonymous": false,
      "inputs": [
        {
          "indexed": false,
          "internalType": "uint256",
          "name": "tokenId",
          "type": "uint256"
        }
      ],
      "name": "BUIBlockMetadataUpdated",
      "type": "event"
    },
    {
      "anonymous": false,
      "inputs": [
        {
          "indexed": false,
          "internalType": "bytes32",
          "name": "cid",
          "type": "bytes32"
        },
        {
          "components": [
            {
              "internalType": "uint256",
              "name": "tokenId",
              "type": "uint256"
            },
            {
              "internalType": "uint256",
              "name": "deprecateDate",
              "type": "uint256"
            },
            {
              "internalType": "string",
              "name": "metaURI",
              "type": "string"
            },
            {
              "internalType": "address",
              "name": "owner",
              "type": "address"
            }
          ],
          "indexed": false,
          "internalType": "struct Block",
          "name": "data",
          "type": "tuple"
        }
      ],
      "name": "BUIBlockPublished",
      "type": "event"
    },
    {
      "anonymous": false,
      "inputs": [
        {
          "indexed": true,
          "internalType": "address",
          "name": "previousOwner",
          "type": "address"
        },
        {
          "indexed": true,
          "internalType": "address",
          "name": "newOwner",
          "type": "address"
        }
      ],
      "name": "OwnershipTransferred",
      "type": "event"
    },
    {
      "anonymous": false,
      "inputs": [
        {
          "indexed": true,
          "internalType": "address",
          "name": "from",
          "type": "address"
        },
        {
          "indexed": true,
          "internalType": "address",
          "name": "to",
          "type": "address"
        },
        {
          "indexed": true,
          "internalType": "uint256",
          "name": "tokenId",
          "type": "uint256"
        }
      ],
      "name": "Transfer",
      "type": "event"
    },
    {
      "inputs": [
        {
          "internalType": "address",
          "name": "to",
          "type": "address"
        },
        {
          "internalType": "uint256",
          "name": "tokenId",
          "type": "uint256"
        }
      ],
      "name": "approve",
      "outputs": [],
      "stateMutability": "nonpayable",
      "type": "function"
    },
    {
      "inputs": [
        {
          "internalType": "address",
          "name": "owner",
          "type": "address"
        }
      ],
      "name": "balanceOf",
      "outputs": [
        {
          "internalType": "uint256",
          "name": "",
          "type": "uint256"
        }
      ],
      "stateMutability": "view",
      "type": "function"
    },
    {
      "inputs": [
        {
          "internalType": "bytes32",
          "name": "cid",
          "type": "bytes32"
        }
      ],
      "name": "blockExists",
      "outputs": [
        {
          "internalType": "bool",
          "name": "",
          "type": "bool"
        }
      ],
      "stateMutability": "view",
      "type": "function"
    },
    {
      "inputs": [
        {
          "internalType": "uint256",
          "name": "tokenId",
          "type": "uint256"
        }
      ],
      "name": "blockForToken",
      "outputs": [
        {
          "internalType": "bytes32",
          "name": "",
          "type": "bytes32"
        }
      ],
      "stateMutability": "view",
      "type": "function"
    },
    {
      "inputs": [
        {
          "internalType": "uint256",
          "name": "tokenId",
          "type": "uint256"
        }
      ],
      "name": "getApproved",
      "outputs": [
        {
          "internalType": "address",
          "name": "",
          "type": "address"
        }
      ],
      "stateMutability": "view",
      "type": "function"
    },
    {
      "inputs": [
        {
          "internalType": "address",
          "name": "owner",
          "type": "address"
        },
        {
          "internalType": "address",
          "name": "operator",
          "type": "address"
        }
      ],
      "name": "isApprovedForAll",
      "outputs": [
        {
          "internalType": "bool",
          "name": "",
          "type": "bool"
        }
      ],
      "stateMutability": "view",
      "type": "function"
    },
    {
      "inputs": [],
      "name": "name",
      "outputs": [
        {
          "internalType": "string",
          "name": "",
          "type": "string"
        }
      ],
      "stateMutability": "view",
      "type": "function"
    },
    {
      "inputs": [],
      "name": "owner",
      "outputs": [
        {
          "internalType": "address",
          "name": "",
          "type": "address"
        }
      ],
      "stateMutability": "view",
      "type": "function"
    },
    {
      "inputs": [
        {
          "internalType": "uint256",
          "name": "tokenId",
          "type": "uint256"
        }
      ],
      "name": "ownerOf",
      "outputs": [
        {
          "internalType": "address",
          "name": "",
          "type": "address"
        }
      ],
      "stateMutability": "view",
      "type": "function"
    },
    {
      "inputs": [
        {
          "internalType": "bytes32",
          "name": "cid",
          "type": "bytes32"
        },
        {
          "internalType": "string",
          "name": "metaURI",
          "type": "string"
        }
      ],
      "name": "publish",
      "outputs": [],
      "stateMutability": "payable",
      "type": "function"
    },
    {
      "inputs": [],
      "name": "publishPrice",
      "outputs": [
        {
          "internalType": "uint256",
          "name": "",
          "type": "uint256"
        }
      ],
      "stateMutability": "view",
      "type": "function"
    },
    {
      "inputs": [],
      "name": "renounceOwnership",
      "outputs": [],
      "stateMutability": "nonpayable",
      "type": "function"
    },
    {
      "inputs": [
        {
          "internalType": "address",
          "name": "from",
          "type": "address"
        },
        {
          "internalType": "address",
          "name": "to",
          "type": "address"
        },
        {
          "internalType": "uint256",
          "name": "tokenId",
          "type": "uint256"
        }
      ],
      "name": "safeTransferFrom",
      "outputs": [],
      "stateMutability": "nonpayable",
      "type": "function"
    },
    {
      "inputs": [
        {
          "internalType": "address",
          "name": "from",
          "type": "address"
        },
        {
          "internalType": "address",
          "name": "to",
          "type": "address"
        },
        {
          "internalType": "uint256",
          "name": "tokenId",
          "type": "uint256"
        },
        {
          "internalType": "bytes",
          "name": "data",
          "type": "bytes"
        }
      ],
      "name": "safeTransferFrom",
      "outputs": [],
      "stateMutability": "nonpayable",
      "type": "function"
    },
    {
      "inputs": [
        {
          "internalType": "address",
          "name": "operator",
          "type": "address"
        },
        {
          "internalType": "bool",
          "name": "approved",
          "type": "bool"
        }
      ],
      "name": "setApprovalForAll",
      "outputs": [],
      "stateMutability": "nonpayable",
      "type": "function"
    },
    {
      "inputs": [
        {
          "internalType": "uint256",
          "name": "tokenId",
          "type": "uint256"
        },
        {
          "internalType": "uint256",
          "name": "deprecateDate",
          "type": "uint256"
        }
      ],
      "name": "setDeprecated",
      "outputs": [],
      "stateMutability": "nonpayable",
      "type": "function"
    },
    {
      "inputs": [
        {
          "internalType": "uint256",
          "name": "_publishPrice",
          "type": "uint256"
        }
      ],
      "name": "setPublishPrice",
      "outputs": [],
      "stateMutability": "nonpayable",
      "type": "function"
    },
    {
      "inputs": [
        {
          "internalType": "bytes4",
          "name": "interfaceId",
          "type": "bytes4"
        }
      ],
      "name": "supportsInterface",
      "outputs": [
        {
          "internalType": "bool",
          "name": "",
          "type": "bool"
        }
      ],
      "stateMutability": "view",
      "type": "function"
    },
    {
      "inputs": [],
      "name": "symbol",
      "outputs": [
        {
          "internalType": "string",
          "name": "",
          "type": "string"
        }
      ],
      "stateMutability": "view",
      "type": "function"
    },
    {
      "inputs": [
        {
          "internalType": "uint256",
          "name": "tokenId",
          "type": "uint256"
        }
      ],
      "name": "tokenURI",
      "outputs": [
        {
          "internalType": "string",
          "name": "",
          "type": "string"
        }
      ],
      "stateMutability": "view",
      "type": "function"
    },
    {
      "inputs": [
        {
          "internalType": "address",
          "name": "from",
          "type": "address"
        },
        {
          "internalType": "address",
          "name": "to",
          "type": "address"
        },
        {
          "internalType": "uint256",
          "name": "tokenId",
          "type": "uint256"
        }
      ],
      "name": "transferFrom",
      "outputs": [],
      "stateMutability": "nonpayable",
      "type": "function"
    },
    {
      "inputs": [
        {
          "internalType": "address",
          "name": "newOwner",
          "type": "address"
        }
      ],
      "name": "transferOwnership",
      "outputs": [],
      "stateMutability": "nonpayable",
      "type": "function"
    },
    {
      "inputs": [
        {
          "internalType": "uint256",
          "name": "tokenId",
          "type": "uint256"
        },
        {
          "internalType": "string",
          "name": "metaURI",
          "type": "string"
        }
      ],
      "name": "updateMetaURI",
      "outputs": [],
      "stateMutability": "nonpayable",
      "type": "function"
    },
    {
      "inputs": [
        {
          "internalType": "bytes32",
          "name": "cid",
          "type": "bytes32"
        },
        {
          "internalType": "address",
          "name": "owner",
          "type": "address"
        }
      ],
      "name": "verifyOwner",
      "outputs": [
        {
          "internalType": "bool",
          "name": "",
          "type": "bool"
        }
      ],
      "stateMutability": "view",
      "type": "function"
    },
    {
      "inputs": [],
      "name": "withdraw",
      "outputs": [],
      "stateMutability": "nonpayable",
      "type": "function"
    }
  ],
  "bytecode": "0x608060405267016345785d8a00006008553480156200001d57600080fd5b506040516200421738038062004217833981810160405281019062000043919062000211565b6040518060400160405280601081526020017f426c6f636b7320554920426c6f636b73000000000000000000000000000000008152506040518060400160405280600481526020017f42554942000000000000000000000000000000000000000000000000000000008152508160009081620000c09190620004b3565b508060019081620000d29190620004b3565b505050620000f5620000e96200010360201b60201c565b6200010b60201b60201c565b80600881905550506200059a565b600033905090565b6000600660009054906101000a900473ffffffffffffffffffffffffffffffffffffffff16905081600660006101000a81548173ffffffffffffffffffffffffffffffffffffffff021916908373ffffffffffffffffffffffffffffffffffffffff1602179055508173ffffffffffffffffffffffffffffffffffffffff168173ffffffffffffffffffffffffffffffffffffffff167f8be0079c531659141344cd1fd0a4f28419497f9722a3daafe3b4186f6b6457e060405160405180910390a35050565b600080fd5b6000819050919050565b620001eb81620001d6565b8114620001f757600080fd5b50565b6000815190506200020b81620001e0565b92915050565b6000602082840312156200022a5762000229620001d1565b5b60006200023a84828501620001fa565b91505092915050565b600081519050919050565b7f4e487b7100000000000000000000000000000000000000000000000000000000600052604160045260246000fd5b7f4e487b7100000000000000000000000000000000000000000000000000000000600052602260045260246000fd5b60006002820490506001821680620002c557607f821691505b602082108103620002db57620002da6200027d565b5b50919050565b60008190508160005260206000209050919050565b60006020601f8301049050919050565b600082821b905092915050565b600060088302620003457fffffffffffffffffffffffffffffffffffffffffffffffffffffffffffffffff8262000306565b62000351868362000306565b95508019841693508086168417925050509392505050565b6000819050919050565b6000620003946200038e6200038884620001d6565b62000369565b620001d6565b9050919050565b6000819050919050565b620003b08362000373565b620003c8620003bf826200039b565b84845462000313565b825550505050565b600090565b620003df620003d0565b620003ec818484620003a5565b505050565b5b81811015620004145762000408600082620003d5565b600181019050620003f2565b5050565b601f82111562000463576200042d81620002e1565b6200043884620002f6565b8101602085101562000448578190505b620004606200045785620002f6565b830182620003f1565b50505b505050565b600082821c905092915050565b6000620004886000198460080262000468565b1980831691505092915050565b6000620004a3838362000475565b9150826002028217905092915050565b620004be8262000243565b67ffffffffffffffff811115620004da57620004d96200024e565b5b620004e68254620002ac565b620004f382828562000418565b600060209050601f8311600181146200052b576000841562000516578287015190505b62000522858262000495565b86555062000592565b601f1984166200053b86620002e1565b60005b8281101562000565578489015182556001820191506020850194506020810190506200053e565b8683101562000585578489015162000581601f89168262000475565b8355505b6001600288020188555050505b505050505050565b613c6d80620005aa6000396000f3fe6080604052600436106101665760003560e01c8063715018a6116100d1578063a22cb4651161008a578063c87b56dd11610064578063c87b56dd14610538578063c98e984e14610575578063e985e9c514610591578063f2fde38b146105ce57610166565b8063a22cb465146104bd578063b88d4fde146104e6578063b8d5035b1461050f57610166565b8063715018a6146103bf57806377e73762146103d65780638da5cb5b146103ff57806395d89b411461042a578063971c4845146104555780639739ec581461048057610166565b806342842e0e1161012357806342842e0e14610279578063498b4130146102a25780634c23b253146102df578063600d09f51461031c5780636352211e1461034557806370a082311461038257610166565b806301ffc9a71461016b57806306fdde03146101a8578063081812fc146101d3578063095ea7b31461021057806323b872dd146102395780633ccfd60b14610262575b600080fd5b34801561017757600080fd5b50610192600480360381019061018d919061237b565b6105f7565b60405161019f91906123c3565b60405180910390f35b3480156101b457600080fd5b506101bd6106d9565b6040516101ca919061246e565b60405180910390f35b3480156101df57600080fd5b506101fa60048036038101906101f591906124c6565b61076b565b6040516102079190612534565b60405180910390f35b34801561021c57600080fd5b506102376004803603810190610232919061257b565b6107b1565b005b34801561024557600080fd5b50610260600480360381019061025b91906125bb565b6108c8565b005b34801561026e57600080fd5b50610277610928565b005b34801561028557600080fd5b506102a0600480360381019061029b91906125bb565b610986565b005b3480156102ae57600080fd5b506102c960048036038101906102c49190612644565b6109a6565b6040516102d691906123c3565b60405180910390f35b3480156102eb57600080fd5b50610306600480360381019061030191906124c6565b610a15565b6040516103139190612693565b60405180910390f35b34801561032857600080fd5b50610343600480360381019061033e91906124c6565b610a7a565b005b34801561035157600080fd5b5061036c600480360381019061036791906124c6565b610a8c565b6040516103799190612534565b60405180910390f35b34801561038e57600080fd5b506103a960048036038101906103a491906126ae565b610b3d565b6040516103b691906126ea565b60405180910390f35b3480156103cb57600080fd5b506103d4610bf4565b005b3480156103e257600080fd5b506103fd60048036038101906103f89190612705565b610c08565b005b34801561040b57600080fd5b50610414610c66565b6040516104219190612534565b60405180910390f35b34801561043657600080fd5b5061043f610c90565b60405161044c919061246e565b60405180910390f35b34801561046157600080fd5b5061046a610d22565b60405161047791906126ea565b60405180910390f35b34801561048c57600080fd5b506104a760048036038101906104a29190612745565b610d28565b6040516104b491906123c3565b60405180910390f35b3480156104c957600080fd5b506104e460048036038101906104df919061279e565b610d97565b005b3480156104f257600080fd5b5061050d60048036038101906105089190612913565b610dad565b005b34801561051b57600080fd5b5061053660048036038101906105319190612a37565b610e0f565b005b34801561054457600080fd5b5061055f600480360381019061055a91906124c6565b610e76565b60405161056c919061246e565b60405180910390f35b61058f600480360381019061058a9190612a93565b610f1a565b005b34801561059d57600080fd5b506105b860048036038101906105b39190612aef565b6110f8565b6040516105c591906123c3565b60405180910390f35b3480156105da57600080fd5b506105f560048036038101906105f091906126ae565b61118c565b005b60007f80ac58cd000000000000000000000000000000000000000000000000000000007bffffffffffffffffffffffffffffffffffffffffffffffffffffffff1916827bffffffffffffffffffffffffffffffffffffffffffffffffffffffff191614806106c257507f5b5e139f000000000000000000000000000000000000000000000000000000007bffffffffffffffffffffffffffffffffffffffffffffffffffffffff1916827bffffffffffffffffffffffffffffffffffffffffffffffffffffffff1916145b806106d257506106d18261120f565b5b9050919050565b6060600080546106e890612b5e565b80601f016020809104026020016040519081016040528092919081815260200182805461071490612b5e565b80156107615780601f1061073657610100808354040283529160200191610761565b820191906000526020600020905b81548152906001019060200180831161074457829003601f168201915b5050505050905090565b600061077682611279565b6004600083815260200190815260200160002060009054906101000a900473ffffffffffffffffffffffffffffffffffffffff169050919050565b60006107bc82610a8c565b90508073ffffffffffffffffffffffffffffffffffffffff168373ffffffffffffffffffffffffffffffffffffffff160361082c576040517f08c379a000000000000000000000000000000000000000000000000000000000815260040161082390612c01565b60405180910390fd5b8073ffffffffffffffffffffffffffffffffffffffff1661084b6112c4565b73ffffffffffffffffffffffffffffffffffffffff16148061087a5750610879816108746112c4565b6110f8565b5b6108b9576040517f08c379a00000000000000000000000000000000000000000000000000000000081526004016108b090612c93565b60405180910390fd5b6108c383836112cc565b505050565b6108d96108d36112c4565b82611385565b610918576040517f08c379a000000000000000000000000000000000000000000000000000000000815260040161090f90612d25565b60405180910390fd5b61092383838361141a565b505050565b610930611680565b600047905061093d610c66565b73ffffffffffffffffffffffffffffffffffffffff166108fc829081150290604051600060405180830381858888f19350505050158015610982573d6000803e3d6000fd5b5050565b6109a183838360405180602001604052806000815250610dad565b505050565b60008173ffffffffffffffffffffffffffffffffffffffff166009600085815260200190815260200160002060030160009054906101000a900473ffffffffffffffffffffffffffffffffffffffff1673ffffffffffffffffffffffffffffffffffffffff1614905092915050565b6000610a20826116fe565b610a5f576040517f08c379a0000000000000000000000000000000000000000000000000000000008152600401610a5690612d91565b60405180910390fd5b600a6000838152602001908152602001600020549050919050565b610a82611680565b8060088190555050565b6000806002600084815260200190815260200160002060009054906101000a900473ffffffffffffffffffffffffffffffffffffffff169050600073ffffffffffffffffffffffffffffffffffffffff168173ffffffffffffffffffffffffffffffffffffffff1603610b34576040517f08c379a0000000000000000000000000000000000000000000000000000000008152600401610b2b90612dfd565b60405180910390fd5b80915050919050565b60008073ffffffffffffffffffffffffffffffffffffffff168273ffffffffffffffffffffffffffffffffffffffff1603610bad576040517f08c379a0000000000000000000000000000000000000000000000000000000008152600401610ba490612e8f565b60405180910390fd5b600360008373ffffffffffffffffffffffffffffffffffffffff1673ffffffffffffffffffffffffffffffffffffffff168152602001908152602001600020549050919050565b610bfc611680565b610c06600061176a565b565b81610c138133611830565b6000610c1e846118dd565b90508281600101819055507f681adb0a75005f74f98275e4513ba493758a1139566b90fcdb0b6d3c2e88885484604051610c5891906126ea565b60405180910390a150505050565b6000600660009054906101000a900473ffffffffffffffffffffffffffffffffffffffff16905090565b606060018054610c9f90612b5e565b80601f0160208091040260200160405190810160405280929190818152602001828054610ccb90612b5e565b8015610d185780601f10610ced57610100808354040283529160200191610d18565b820191906000526020600020905b815481529060010190602001808311610cfb57829003601f168201915b5050505050905090565b60085481565b60008073ffffffffffffffffffffffffffffffffffffffff166009600084815260200190815260200160002060030160009054906101000a900473ffffffffffffffffffffffffffffffffffffffff1673ffffffffffffffffffffffffffffffffffffffff1614159050919050565b610da9610da26112c4565b8383611954565b5050565b610dbe610db86112c4565b83611385565b610dfd576040517f08c379a0000000000000000000000000000000000000000000000000000000008152600401610df490612d25565b60405180910390fd5b610e0984848484611ac0565b50505050565b81610e1a8133611830565b6000610e25846118dd565b905082816002019081610e38919061305b565b507f1ac12b5edf42c94defd54bfd36a381ad63ace974fba83558108a1b7b8d6460b084604051610e6891906126ea565b60405180910390a150505050565b60606000610e83836118dd565b9050806002018054610e9490612b5e565b80601f0160208091040260200160405190810160405280929190818152602001828054610ec090612b5e565b8015610f0d5780601f10610ee257610100808354040283529160200191610f0d565b820191906000526020600020905b815481529060010190602001808311610ef057829003601f168201915b5050505050915050919050565b6000600960008481526020019081526020016000209050600073ffffffffffffffffffffffffffffffffffffffff168160030160009054906101000a900473ffffffffffffffffffffffffffffffffffffffff1673ffffffffffffffffffffffffffffffffffffffff1614610fc4576040517f08c379a0000000000000000000000000000000000000000000000000000000008152600401610fbb90613179565b60405180910390fd5b600854341015611009576040517f08c379a0000000000000000000000000000000000000000000000000000000008152600401611000906131e5565b60405180910390fd5b60006110156007611b1c565b905061102d336001836110289190613234565b611b2a565b8282600201908161103e919061305b565b50338260030160006101000a81548173ffffffffffffffffffffffffffffffffffffffff021916908373ffffffffffffffffffffffffffffffffffffffff16021790555080826000018190555083600a600060018461109d9190613234565b8152602001908152602001600020819055506110b96007611b48565b7faa696cfc865ed41957a1ab4ecd575efd2d23b3e87a64d4dff71546c6c34bd0fa84836040516110ea92919061340b565b60405180910390a150505050565b6000600560008473ffffffffffffffffffffffffffffffffffffffff1673ffffffffffffffffffffffffffffffffffffffff16815260200190815260200160002060008373ffffffffffffffffffffffffffffffffffffffff1673ffffffffffffffffffffffffffffffffffffffff16815260200190815260200160002060009054906101000a900460ff16905092915050565b611194611680565b600073ffffffffffffffffffffffffffffffffffffffff168173ffffffffffffffffffffffffffffffffffffffff1603611203576040517f08c379a00000000000000000000000000000000000000000000000000000000081526004016111fa906134ad565b60405180910390fd5b61120c8161176a565b50565b60007f01ffc9a7000000000000000000000000000000000000000000000000000000007bffffffffffffffffffffffffffffffffffffffffffffffffffffffff1916827bffffffffffffffffffffffffffffffffffffffffffffffffffffffff1916149050919050565b611282816116fe565b6112c1576040517f08c379a00000000000000000000000000000000000000000000000000000000081526004016112b890612dfd565b60405180910390fd5b50565b600033905090565b816004600083815260200190815260200160002060006101000a81548173ffffffffffffffffffffffffffffffffffffffff021916908373ffffffffffffffffffffffffffffffffffffffff160217905550808273ffffffffffffffffffffffffffffffffffffffff1661133f83610a8c565b73ffffffffffffffffffffffffffffffffffffffff167f8c5be1e5ebec7d5bd14f71427d1e84f3dd0314c0f7b2291e5b200ac8c7c3b92560405160405180910390a45050565b60008061139183610a8c565b90508073ffffffffffffffffffffffffffffffffffffffff168473ffffffffffffffffffffffffffffffffffffffff1614806113d357506113d281856110f8565b5b8061141157508373ffffffffffffffffffffffffffffffffffffffff166113f98461076b565b73ffffffffffffffffffffffffffffffffffffffff16145b91505092915050565b8273ffffffffffffffffffffffffffffffffffffffff1661143a82610a8c565b73ffffffffffffffffffffffffffffffffffffffff1614611490576040517f08c379a00000000000000000000000000000000000000000000000000000000081526004016114879061353f565b60405180910390fd5b600073ffffffffffffffffffffffffffffffffffffffff168273ffffffffffffffffffffffffffffffffffffffff16036114ff576040517f08c379a00000000000000000000000000000000000000000000000000000000081526004016114f6906135d1565b60405180910390fd5b61150a838383611b5e565b6115156000826112cc565b6001600360008573ffffffffffffffffffffffffffffffffffffffff1673ffffffffffffffffffffffffffffffffffffffff168152602001908152602001600020600082825461156591906135f1565b925050819055506001600360008473ffffffffffffffffffffffffffffffffffffffff1673ffffffffffffffffffffffffffffffffffffffff16815260200190815260200160002060008282546115bc9190613234565b92505081905550816002600083815260200190815260200160002060006101000a81548173ffffffffffffffffffffffffffffffffffffffff021916908373ffffffffffffffffffffffffffffffffffffffff160217905550808273ffffffffffffffffffffffffffffffffffffffff168473ffffffffffffffffffffffffffffffffffffffff167fddf252ad1be2c89b69c2b068fc378daa952ba7f163c4a11628f55a4df523b3ef60405160405180910390a461167b838383611b63565b505050565b6116886112c4565b73ffffffffffffffffffffffffffffffffffffffff166116a6610c66565b73ffffffffffffffffffffffffffffffffffffffff16146116fc576040517f08c379a00000000000000000000000000000000000000000000000000000000081526004016116f390613671565b60405180910390fd5b565b60008073ffffffffffffffffffffffffffffffffffffffff166002600084815260200190815260200160002060009054906101000a900473ffffffffffffffffffffffffffffffffffffffff1673ffffffffffffffffffffffffffffffffffffffff1614159050919050565b6000600660009054906101000a900473ffffffffffffffffffffffffffffffffffffffff16905081600660006101000a81548173ffffffffffffffffffffffffffffffffffffffff021916908373ffffffffffffffffffffffffffffffffffffffff1602179055508173ffffffffffffffffffffffffffffffffffffffff168173ffffffffffffffffffffffffffffffffffffffff167f8be0079c531659141344cd1fd0a4f28419497f9722a3daafe3b4186f6b6457e060405160405180910390a35050565b8073ffffffffffffffffffffffffffffffffffffffff1661185083610a8c565b73ffffffffffffffffffffffffffffffffffffffff16146118d95761187481611b68565b61187d83611b95565b60405160200161188e929190613765565b6040516020818303038152906040526040517f08c379a00000000000000000000000000000000000000000000000000000000081526004016118d0919061246e565b60405180910390fd5b5050565b60006118e8826116fe565b611927576040517f08c379a000000000000000000000000000000000000000000000000000000000815260040161191e90612d91565b60405180910390fd5b60096000600a60008581526020019081526020016000205481526020019081526020016000209050919050565b8173ffffffffffffffffffffffffffffffffffffffff168373ffffffffffffffffffffffffffffffffffffffff16036119c2576040517f08c379a00000000000000000000000000000000000000000000000000000000081526004016119b9906137eb565b60405180910390fd5b80600560008573ffffffffffffffffffffffffffffffffffffffff1673ffffffffffffffffffffffffffffffffffffffff16815260200190815260200160002060008473ffffffffffffffffffffffffffffffffffffffff1673ffffffffffffffffffffffffffffffffffffffff16815260200190815260200160002060006101000a81548160ff0219169083151502179055508173ffffffffffffffffffffffffffffffffffffffff168373ffffffffffffffffffffffffffffffffffffffff167f17307eab39ab6107e8899845ad3d59bd9653f200f220920489ca2b5937696c3183604051611ab391906123c3565b60405180910390a3505050565b611acb84848461141a565b611ad784848484611cf5565b611b16576040517f08c379a0000000000000000000000000000000000000000000000000000000008152600401611b0d9061387d565b60405180910390fd5b50505050565b600081600001549050919050565b611b44828260405180602001604052806000815250611e7c565b5050565b6001816000016000828254019250508190555050565b505050565b505050565b6060611b8e8273ffffffffffffffffffffffffffffffffffffffff16601460ff16611ed7565b9050919050565b606060008203611bdc576040518060400160405280600181526020017f30000000000000000000000000000000000000000000000000000000000000008152509050611cf0565b600082905060005b60008214611c0e578080611bf79061389d565b915050600a82611c079190613914565b9150611be4565b60008167ffffffffffffffff811115611c2a57611c296127e8565b5b6040519080825280601f01601f191660200182016040528015611c5c5781602001600182028036833780820191505090505b5090505b60008514611ce957600182611c7591906135f1565b9150600a85611c849190613945565b6030611c909190613234565b60f81b818381518110611ca657611ca5613976565b5b60200101907effffffffffffffffffffffffffffffffffffffffffffffffffffffffffffff1916908160001a905350600a85611ce29190613914565b9450611c60565b8093505050505b919050565b6000611d168473ffffffffffffffffffffffffffffffffffffffff16612113565b15611e6f578373ffffffffffffffffffffffffffffffffffffffff1663150b7a02611d3f6112c4565b8786866040518563ffffffff1660e01b8152600401611d6194939291906139fa565b6020604051808303816000875af1925050508015611d9d57506040513d601f19601f82011682018060405250810190611d9a9190613a5b565b60015b611e1f573d8060008114611dcd576040519150601f19603f3d011682016040523d82523d6000602084013e611dd2565b606091505b506000815103611e17576040517f08c379a0000000000000000000000000000000000000000000000000000000008152600401611e0e9061387d565b60405180910390fd5b805181602001fd5b63150b7a0260e01b7bffffffffffffffffffffffffffffffffffffffffffffffffffffffff1916817bffffffffffffffffffffffffffffffffffffffffffffffffffffffff191614915050611e74565b600190505b949350505050565b611e868383612136565b611e936000848484611cf5565b611ed2576040517f08c379a0000000000000000000000000000000000000000000000000000000008152600401611ec99061387d565b60405180910390fd5b505050565b606060006002836002611eea9190613a88565b611ef49190613234565b67ffffffffffffffff811115611f0d57611f0c6127e8565b5b6040519080825280601f01601f191660200182016040528015611f3f5781602001600182028036833780820191505090505b5090507f300000000000000000000000000000000000000000000000000000000000000081600081518110611f7757611f76613976565b5b60200101907effffffffffffffffffffffffffffffffffffffffffffffffffffffffffffff1916908160001a9053507f780000000000000000000000000000000000000000000000000000000000000081600181518110611fdb57611fda613976565b5b60200101907effffffffffffffffffffffffffffffffffffffffffffffffffffffffffffff1916908160001a9053506000600184600261201b9190613a88565b6120259190613234565b90505b60018111156120c5577f3031323334353637383961626364656600000000000000000000000000000000600f86166010811061206757612066613976565b5b1a60f81b82828151811061207e5761207d613976565b5b60200101907effffffffffffffffffffffffffffffffffffffffffffffffffffffffffffff1916908160001a905350600485901c9450806120be90613aca565b9050612028565b5060008414612109576040517f08c379a000000000000000000000000000000000000000000000000000000000815260040161210090613b3f565b60405180910390fd5b8091505092915050565b6000808273ffffffffffffffffffffffffffffffffffffffff163b119050919050565b600073ffffffffffffffffffffffffffffffffffffffff168273ffffffffffffffffffffffffffffffffffffffff16036121a5576040517f08c379a000000000000000000000000000000000000000000000000000000000815260040161219c90613bab565b60405180910390fd5b6121ae816116fe565b156121ee576040517f08c379a00000000000000000000000000000000000000000000000000000000081526004016121e590613c17565b60405180910390fd5b6121fa60008383611b5e565b6001600360008473ffffffffffffffffffffffffffffffffffffffff1673ffffffffffffffffffffffffffffffffffffffff168152602001908152602001600020600082825461224a9190613234565b92505081905550816002600083815260200190815260200160002060006101000a81548173ffffffffffffffffffffffffffffffffffffffff021916908373ffffffffffffffffffffffffffffffffffffffff160217905550808273ffffffffffffffffffffffffffffffffffffffff16600073ffffffffffffffffffffffffffffffffffffffff167fddf252ad1be2c89b69c2b068fc378daa952ba7f163c4a11628f55a4df523b3ef60405160405180910390a461230b60008383611b63565b5050565b6000604051905090565b600080fd5b600080fd5b60007fffffffff0000000000000000000000000000000000000000000000000000000082169050919050565b61235881612323565b811461236357600080fd5b50565b6000813590506123758161234f565b92915050565b60006020828403121561239157612390612319565b5b600061239f84828501612366565b91505092915050565b60008115159050919050565b6123bd816123a8565b82525050565b60006020820190506123d860008301846123b4565b92915050565b600081519050919050565b600082825260208201905092915050565b60005b838110156124185780820151818401526020810190506123fd565b60008484015250505050565b6000601f19601f8301169050919050565b6000612440826123de565b61244a81856123e9565b935061245a8185602086016123fa565b61246381612424565b840191505092915050565b600060208201905081810360008301526124888184612435565b905092915050565b6000819050919050565b6124a381612490565b81146124ae57600080fd5b50565b6000813590506124c08161249a565b92915050565b6000602082840312156124dc576124db612319565b5b60006124ea848285016124b1565b91505092915050565b600073ffffffffffffffffffffffffffffffffffffffff82169050919050565b600061251e826124f3565b9050919050565b61252e81612513565b82525050565b60006020820190506125496000830184612525565b92915050565b61255881612513565b811461256357600080fd5b50565b6000813590506125758161254f565b92915050565b6000806040838503121561259257612591612319565b5b60006125a085828601612566565b92505060206125b1858286016124b1565b9150509250929050565b6000806000606084860312156125d4576125d3612319565b5b60006125e286828701612566565b93505060206125f386828701612566565b9250506040612604868287016124b1565b9150509250925092565b6000819050919050565b6126218161260e565b811461262c57600080fd5b50565b60008135905061263e81612618565b92915050565b6000806040838503121561265b5761265a612319565b5b60006126698582860161262f565b925050602061267a85828601612566565b9150509250929050565b61268d8161260e565b82525050565b60006020820190506126a86000830184612684565b92915050565b6000602082840312156126c4576126c3612319565b5b60006126d284828501612566565b91505092915050565b6126e481612490565b82525050565b60006020820190506126ff60008301846126db565b92915050565b6000806040838503121561271c5761271b612319565b5b600061272a858286016124b1565b925050602061273b858286016124b1565b9150509250929050565b60006020828403121561275b5761275a612319565b5b60006127698482850161262f565b91505092915050565b61277b816123a8565b811461278657600080fd5b50565b60008135905061279881612772565b92915050565b600080604083850312156127b5576127b4612319565b5b60006127c385828601612566565b92505060206127d485828601612789565b9150509250929050565b600080fd5b600080fd5b7f4e487b7100000000000000000000000000000000000000000000000000000000600052604160045260246000fd5b61282082612424565b810181811067ffffffffffffffff8211171561283f5761283e6127e8565b5b80604052505050565b600061285261230f565b905061285e8282612817565b919050565b600067ffffffffffffffff82111561287e5761287d6127e8565b5b61288782612424565b9050602081019050919050565b82818337600083830152505050565b60006128b66128b184612863565b612848565b9050828152602081018484840111156128d2576128d16127e3565b5b6128dd848285612894565b509392505050565b600082601f8301126128fa576128f96127de565b5b813561290a8482602086016128a3565b91505092915050565b6000806000806080858703121561292d5761292c612319565b5b600061293b87828801612566565b945050602061294c87828801612566565b935050604061295d878288016124b1565b925050606085013567ffffffffffffffff81111561297e5761297d61231e565b5b61298a878288016128e5565b91505092959194509250565b600067ffffffffffffffff8211156129b1576129b06127e8565b5b6129ba82612424565b9050602081019050919050565b60006129da6129d584612996565b612848565b9050828152602081018484840111156129f6576129f56127e3565b5b612a01848285612894565b509392505050565b600082601f830112612a1e57612a1d6127de565b5b8135612a2e8482602086016129c7565b91505092915050565b60008060408385031215612a4e57612a4d612319565b5b6000612a5c858286016124b1565b925050602083013567ffffffffffffffff811115612a7d57612a7c61231e565b5b612a8985828601612a09565b9150509250929050565b60008060408385031215612aaa57612aa9612319565b5b6000612ab88582860161262f565b925050602083013567ffffffffffffffff811115612ad957612ad861231e565b5b612ae585828601612a09565b9150509250929050565b60008060408385031215612b0657612b05612319565b5b6000612b1485828601612566565b9250506020612b2585828601612566565b9150509250929050565b7f4e487b7100000000000000000000000000000000000000000000000000000000600052602260045260246000fd5b60006002820490506001821680612b7657607f821691505b602082108103612b8957612b88612b2f565b5b50919050565b7f4552433732313a20617070726f76616c20746f2063757272656e74206f776e6560008201527f7200000000000000000000000000000000000000000000000000000000000000602082015250565b6000612beb6021836123e9565b9150612bf682612b8f565b604082019050919050565b60006020820190508181036000830152612c1a81612bde565b9050919050565b7f4552433732313a20617070726f76652063616c6c6572206973206e6f7420746f60008201527f6b656e206f776e6572206e6f7220617070726f76656420666f7220616c6c0000602082015250565b6000612c7d603e836123e9565b9150612c8882612c21565b604082019050919050565b60006020820190508181036000830152612cac81612c70565b9050919050565b7f4552433732313a2063616c6c6572206973206e6f7420746f6b656e206f776e6560008201527f72206e6f7220617070726f766564000000000000000000000000000000000000602082015250565b6000612d0f602e836123e9565b9150612d1a82612cb3565b604082019050919050565b60006020820190508181036000830152612d3e81612d02565b9050919050565b7f546f6b656e20646f6573206e6f74206578697374000000000000000000000000600082015250565b6000612d7b6014836123e9565b9150612d8682612d45565b602082019050919050565b60006020820190508181036000830152612daa81612d6e565b9050919050565b7f4552433732313a20696e76616c696420746f6b656e2049440000000000000000600082015250565b6000612de76018836123e9565b9150612df282612db1565b602082019050919050565b60006020820190508181036000830152612e1681612dda565b9050919050565b7f4552433732313a2061646472657373207a65726f206973206e6f74206120766160008201527f6c6964206f776e65720000000000000000000000000000000000000000000000602082015250565b6000612e796029836123e9565b9150612e8482612e1d565b604082019050919050565b60006020820190508181036000830152612ea881612e6c565b9050919050565b60008190508160005260206000209050919050565b60006020601f8301049050919050565b600082821b905092915050565b600060088302612f117fffffffffffffffffffffffffffffffffffffffffffffffffffffffffffffffff82612ed4565b612f1b8683612ed4565b95508019841693508086168417925050509392505050565b6000819050919050565b6000612f58612f53612f4e84612490565b612f33565b612490565b9050919050565b6000819050919050565b612f7283612f3d565b612f86612f7e82612f5f565b848454612ee1565b825550505050565b600090565b612f9b612f8e565b612fa6818484612f69565b505050565b5b81811015612fca57612fbf600082612f93565b600181019050612fac565b5050565b601f82111561300f57612fe081612eaf565b612fe984612ec4565b81016020851015612ff8578190505b61300c61300485612ec4565b830182612fab565b50505b505050565b600082821c905092915050565b600061303260001984600802613014565b1980831691505092915050565b600061304b8383613021565b9150826002028217905092915050565b613064826123de565b67ffffffffffffffff81111561307d5761307c6127e8565b5b6130878254612b5e565b613092828285612fce565b600060209050601f8311600181146130c557600084156130b3578287015190505b6130bd858261303f565b865550613125565b601f1984166130d386612eaf565b60005b828110156130fb578489015182556001820191506020850194506020810190506130d6565b868310156131185784890151613114601f891682613021565b8355505b6001600288020188555050505b505050505050565b7f5468697320426c6f636b20697320616c7265616479207075626c697368656400600082015250565b6000613163601f836123e9565b915061316e8261312d565b602082019050919050565b6000602082019050818103600083015261319281613156565b9050919050565b7f496e73756666696369656e742066756e647320746f207075626c697368000000600082015250565b60006131cf601d836123e9565b91506131da82613199565b602082019050919050565b600060208201905081810360008301526131fe816131c2565b9050919050565b7f4e487b7100000000000000000000000000000000000000000000000000000000600052601160045260246000fd5b600061323f82612490565b915061324a83612490565b925082820190508082111561326257613261613205565b5b92915050565b60008160001c9050919050565b6000819050919050565b600061329261328d83613268565b613275565b9050919050565b6132a281612490565b82525050565b600082825260208201905092915050565b600081546132c681612b5e565b6132d081866132a8565b945060018216600081146132eb576001811461330157613334565b60ff198316865281151560200286019350613334565b61330a85612eaf565b60005b8381101561332c5781548189015260018201915060208101905061330d565b808801955050505b50505092915050565b600073ffffffffffffffffffffffffffffffffffffffff82169050919050565b600061337061336b83613268565b61333d565b9050919050565b61338081612513565b82525050565b600060808301600080840154905061339d8161327f565b6133aa6000870182613299565b50600184015490506133bb8161327f565b6133c86020870182613299565b506002840185830360408701526133df83826132b9565b925050600384015490506133f28161335d565b6133ff6060870182613377565b50819250505092915050565b60006040820190506134206000830185612684565b81810360208301526134328184613386565b90509392505050565b7f4f776e61626c653a206e6577206f776e657220697320746865207a65726f206160008201527f6464726573730000000000000000000000000000000000000000000000000000602082015250565b60006134976026836123e9565b91506134a28261343b565b604082019050919050565b600060208201905081810360008301526134c68161348a565b9050919050565b7f4552433732313a207472616e736665722066726f6d20696e636f72726563742060008201527f6f776e6572000000000000000000000000000000000000000000000000000000602082015250565b60006135296025836123e9565b9150613534826134cd565b604082019050919050565b600060208201905081810360008301526135588161351c565b9050919050565b7f4552433732313a207472616e7366657220746f20746865207a65726f2061646460008201527f7265737300000000000000000000000000000000000000000000000000000000602082015250565b60006135bb6024836123e9565b91506135c68261355f565b604082019050919050565b600060208201905081810360008301526135ea816135ae565b9050919050565b60006135fc82612490565b915061360783612490565b925082820390508181111561361f5761361e613205565b5b92915050565b7f4f776e61626c653a2063616c6c6572206973206e6f7420746865206f776e6572600082015250565b600061365b6020836123e9565b915061366682613625565b602082019050919050565b6000602082019050818103600083015261368a8161364e565b9050919050565b600081905092915050565b7f426c6f636b7355493a206163636f756e74200000000000000000000000000000600082015250565b60006136d2601283613691565b91506136dd8261369c565b601282019050919050565b60006136f3826123de565b6136fd8185613691565b935061370d8185602086016123fa565b80840191505092915050565b7f206973206e6f7420746865206f776e6572206f66200000000000000000000000600082015250565b600061374f601583613691565b915061375a82613719565b601582019050919050565b6000613770826136c5565b915061377c82856136e8565b915061378782613742565b915061379382846136e8565b91508190509392505050565b7f4552433732313a20617070726f766520746f2063616c6c657200000000000000600082015250565b60006137d56019836123e9565b91506137e08261379f565b602082019050919050565b60006020820190508181036000830152613804816137c8565b9050919050565b7f4552433732313a207472616e7366657220746f206e6f6e20455243373231526560008201527f63656976657220696d706c656d656e7465720000000000000000000000000000602082015250565b60006138676032836123e9565b91506138728261380b565b604082019050919050565b600060208201905081810360008301526138968161385a565b9050919050565b60006138a882612490565b91507fffffffffffffffffffffffffffffffffffffffffffffffffffffffffffffffff82036138da576138d9613205565b5b600182019050919050565b7f4e487b7100000000000000000000000000000000000000000000000000000000600052601260045260246000fd5b600061391f82612490565b915061392a83612490565b92508261393a576139396138e5565b5b828204905092915050565b600061395082612490565b915061395b83612490565b92508261396b5761396a6138e5565b5b828206905092915050565b7f4e487b7100000000000000000000000000000000000000000000000000000000600052603260045260246000fd5b600081519050919050565b600082825260208201905092915050565b60006139cc826139a5565b6139d681856139b0565b93506139e68185602086016123fa565b6139ef81612424565b840191505092915050565b6000608082019050613a0f6000830187612525565b613a1c6020830186612525565b613a2960408301856126db565b8181036060830152613a3b81846139c1565b905095945050505050565b600081519050613a558161234f565b92915050565b600060208284031215613a7157613a70612319565b5b6000613a7f84828501613a46565b91505092915050565b6000613a9382612490565b9150613a9e83612490565b9250828202613aac81612490565b91508282048414831517613ac357613ac2613205565b5b5092915050565b6000613ad582612490565b915060008203613ae857613ae7613205565b5b600182039050919050565b7f537472696e67733a20686578206c656e67746820696e73756666696369656e74600082015250565b6000613b296020836123e9565b9150613b3482613af3565b602082019050919050565b60006020820190508181036000830152613b5881613b1c565b9050919050565b7f4552433732313a206d696e7420746f20746865207a65726f2061646472657373600082015250565b6000613b956020836123e9565b9150613ba082613b5f565b602082019050919050565b60006020820190508181036000830152613bc481613b88565b9050919050565b7f4552433732313a20746f6b656e20616c7265616479206d696e74656400000000600082015250565b6000613c01601c836123e9565b9150613c0c82613bcb565b602082019050919050565b60006020820190508181036000830152613c3081613bf4565b905091905056fea2646970667358221220d1091a99eaae06b3bf7adc6f2d8d4ae0f715f75d12aa84638d6653efdc4977ef64736f6c63430008110033",
  "linkReferences": {},
  "deployedLinkReferences": {}
}