{
  "address": "0x093d00c17dA59Ec0Bf265Aad61424360aE055f30",
  "contractName": "BUIBlockNFT",
  "abi": [
    {
      "inputs": [
        {
          "internalType": "uint256",
          "name": "_publishPrice",
          "type": "uint256"
        }
      ],
      "stateMutability": "nonpayable",
      "type": "constructor"
    },
    {
      "anonymous": false,
      "inputs": [
        {
          "indexed": true,
          "internalType": "address",
          "name": "owner",
          "type": "address"
        },
        {
          "indexed": true,
          "internalType": "address",
          "name": "approved",
          "type": "address"
        },
        {
          "indexed": true,
          "internalType": "uint256",
          "name": "tokenId",
          "type": "uint256"
        }
      ],
      "name": "Approval",
      "type": "event"
    },
    {
      "anonymous": false,
      "inputs": [
        {
          "indexed": true,
          "internalType": "address",
          "name": "owner",
          "type": "address"
        },
        {
          "indexed": true,
          "internalType": "address",
          "name": "operator",
          "type": "address"
        },
        {
          "indexed": false,
          "internalType": "bool",
          "name": "approved",
          "type": "bool"
        }
      ],
      "name": "ApprovalForAll",
      "type": "event"
    },
    {
      "anonymous": false,
      "inputs": [
        {
          "indexed": false,
          "internalType": "uint256",
          "name": "tokenId",
          "type": "uint256"
        }
      ],
      "name": "BUIBlockDeprecated",
      "type": "event"
    },
    {
      "anonymous": false,
      "inputs": [
        {
          "indexed": false,
          "internalType": "uint256",
          "name": "tokenId",
          "type": "uint256"
        }
      ],
      "name": "BUIBlockMetadataUpdated",
      "type": "event"
    },
    {
      "anonymous": false,
      "inputs": [
        {
          "indexed": false,
          "internalType": "uint256",
          "name": "tokenId",
          "type": "uint256"
        },
        {
          "indexed": false,
          "internalType": "string",
          "name": "origin",
          "type": "string"
        }
      ],
      "name": "BUIBlockOriginRemoved",
      "type": "event"
    },
    {
      "anonymous": false,
      "inputs": [
        {
          "indexed": false,
          "internalType": "bytes32",
          "name": "cid",
          "type": "bytes32"
        },
        {
          "components": [
            {
              "internalType": "uint256",
              "name": "tokenId",
              "type": "uint256"
            },
            {
              "internalType": "uint256",
              "name": "deprecateDate",
              "type": "uint256"
            },
            {
              "internalType": "string",
              "name": "metaURI",
              "type": "string"
            },
            {
              "internalType": "address",
              "name": "owner",
              "type": "address"
            },
            {
              "internalType": "string[]",
              "name": "origins",
              "type": "string[]"
            }
          ],
          "indexed": false,
          "internalType": "struct Block",
          "name": "data",
          "type": "tuple"
        }
      ],
      "name": "BUIBlockPublished",
      "type": "event"
    },
    {
      "anonymous": false,
      "inputs": [
        {
          "indexed": true,
          "internalType": "address",
          "name": "previousOwner",
          "type": "address"
        },
        {
          "indexed": true,
          "internalType": "address",
          "name": "newOwner",
          "type": "address"
        }
      ],
      "name": "OwnershipTransferred",
      "type": "event"
    },
    {
      "anonymous": false,
      "inputs": [
        {
          "indexed": true,
          "internalType": "address",
          "name": "from",
          "type": "address"
        },
        {
          "indexed": true,
          "internalType": "address",
          "name": "to",
          "type": "address"
        },
        {
          "indexed": true,
          "internalType": "uint256",
          "name": "tokenId",
          "type": "uint256"
        }
      ],
      "name": "Transfer",
      "type": "event"
    },
    {
      "inputs": [
        {
          "internalType": "address",
          "name": "to",
          "type": "address"
        },
        {
          "internalType": "uint256",
          "name": "tokenId",
          "type": "uint256"
        }
      ],
      "name": "approve",
      "outputs": [],
      "stateMutability": "nonpayable",
      "type": "function"
    },
    {
      "inputs": [
        {
          "internalType": "address",
          "name": "owner",
          "type": "address"
        }
      ],
      "name": "balanceOf",
      "outputs": [
        {
          "internalType": "uint256",
          "name": "",
          "type": "uint256"
        }
      ],
      "stateMutability": "view",
      "type": "function"
    },
    {
      "inputs": [
        {
          "internalType": "bytes32",
          "name": "cid",
          "type": "bytes32"
        }
      ],
      "name": "blockExists",
      "outputs": [
        {
          "internalType": "bool",
          "name": "",
          "type": "bool"
        }
      ],
      "stateMutability": "view",
      "type": "function"
    },
    {
      "inputs": [
        {
          "internalType": "uint256",
          "name": "tokenId",
          "type": "uint256"
        }
      ],
      "name": "blockForToken",
      "outputs": [
        {
          "internalType": "bytes32",
          "name": "cid",
          "type": "bytes32"
        },
        {
          "internalType": "string[]",
          "name": "origins",
          "type": "string[]"
        }
      ],
      "stateMutability": "view",
      "type": "function"
    },
    {
      "inputs": [
        {
          "internalType": "uint256",
          "name": "tokenId",
          "type": "uint256"
        }
      ],
      "name": "getApproved",
      "outputs": [
        {
          "internalType": "address",
          "name": "",
          "type": "address"
        }
      ],
      "stateMutability": "view",
      "type": "function"
    },
    {
      "inputs": [
        {
          "internalType": "address",
          "name": "owner",
          "type": "address"
        },
        {
          "internalType": "address",
          "name": "operator",
          "type": "address"
        }
      ],
      "name": "isApprovedForAll",
      "outputs": [
        {
          "internalType": "bool",
          "name": "",
          "type": "bool"
        }
      ],
      "stateMutability": "view",
      "type": "function"
    },
    {
      "inputs": [],
      "name": "name",
      "outputs": [
        {
          "internalType": "string",
          "name": "",
          "type": "string"
        }
      ],
      "stateMutability": "view",
      "type": "function"
    },
    {
      "inputs": [
        {
          "internalType": "bytes32",
          "name": "cid",
          "type": "bytes32"
        },
        {
          "internalType": "string",
          "name": "origin",
          "type": "string"
        }
      ],
      "name": "originAuthorized",
      "outputs": [
        {
          "internalType": "bool",
          "name": "",
          "type": "bool"
        }
      ],
      "stateMutability": "view",
      "type": "function"
    },
    {
      "inputs": [],
      "name": "owner",
      "outputs": [
        {
          "internalType": "address",
          "name": "",
          "type": "address"
        }
      ],
      "stateMutability": "view",
      "type": "function"
    },
    {
      "inputs": [
        {
          "internalType": "uint256",
          "name": "tokenId",
          "type": "uint256"
        }
      ],
      "name": "ownerOf",
      "outputs": [
        {
          "internalType": "address",
          "name": "",
          "type": "address"
        }
      ],
      "stateMutability": "view",
      "type": "function"
    },
    {
      "inputs": [
        {
          "internalType": "bytes32",
          "name": "cid",
          "type": "bytes32"
        },
        {
          "internalType": "address",
          "name": "owner",
          "type": "address"
        }
      ],
      "name": "ownerOfBlock",
      "outputs": [
        {
          "internalType": "bool",
          "name": "",
          "type": "bool"
        }
      ],
      "stateMutability": "view",
      "type": "function"
    },
    {
      "inputs": [
        {
          "internalType": "bytes32",
          "name": "cid",
          "type": "bytes32"
        },
        {
          "internalType": "string",
          "name": "metaURI",
          "type": "string"
        }
      ],
      "name": "publish",
      "outputs": [],
      "stateMutability": "payable",
      "type": "function"
    },
    {
      "inputs": [],
      "name": "publishPrice",
      "outputs": [
        {
          "internalType": "uint256",
          "name": "",
          "type": "uint256"
        }
      ],
      "stateMutability": "view",
      "type": "function"
    },
    {
      "inputs": [
        {
          "internalType": "uint256",
          "name": "tokenId",
          "type": "uint256"
        },
        {
          "internalType": "string",
          "name": "origin",
          "type": "string"
        }
      ],
      "name": "removeOrigin",
      "outputs": [],
      "stateMutability": "nonpayable",
      "type": "function"
    },
    {
      "inputs": [],
      "name": "renounceOwnership",
      "outputs": [],
      "stateMutability": "nonpayable",
      "type": "function"
    },
    {
      "inputs": [
        {
          "internalType": "address",
          "name": "from",
          "type": "address"
        },
        {
          "internalType": "address",
          "name": "to",
          "type": "address"
        },
        {
          "internalType": "uint256",
          "name": "tokenId",
          "type": "uint256"
        }
      ],
      "name": "safeTransferFrom",
      "outputs": [],
      "stateMutability": "nonpayable",
      "type": "function"
    },
    {
      "inputs": [
        {
          "internalType": "address",
          "name": "from",
          "type": "address"
        },
        {
          "internalType": "address",
          "name": "to",
          "type": "address"
        },
        {
          "internalType": "uint256",
          "name": "tokenId",
          "type": "uint256"
        },
        {
          "internalType": "bytes",
          "name": "data",
          "type": "bytes"
        }
      ],
      "name": "safeTransferFrom",
      "outputs": [],
      "stateMutability": "nonpayable",
      "type": "function"
    },
    {
      "inputs": [
        {
          "internalType": "address",
          "name": "operator",
          "type": "address"
        },
        {
          "internalType": "bool",
          "name": "approved",
          "type": "bool"
        }
      ],
      "name": "setApprovalForAll",
      "outputs": [],
      "stateMutability": "nonpayable",
      "type": "function"
    },
    {
      "inputs": [
        {
          "internalType": "uint256",
          "name": "tokenId",
          "type": "uint256"
        },
        {
          "internalType": "uint256",
          "name": "deprecateDate",
          "type": "uint256"
        }
      ],
      "name": "setDeprecated",
      "outputs": [],
      "stateMutability": "nonpayable",
      "type": "function"
    },
    {
      "inputs": [
        {
          "internalType": "uint256",
          "name": "tokenId",
          "type": "uint256"
        },
        {
          "internalType": "string",
          "name": "origin",
          "type": "string"
        }
      ],
      "name": "setOrigin",
      "outputs": [],
      "stateMutability": "nonpayable",
      "type": "function"
    },
    {
      "inputs": [
        {
          "internalType": "uint256",
          "name": "_publishPrice",
          "type": "uint256"
        }
      ],
      "name": "setPublishPrice",
      "outputs": [],
      "stateMutability": "nonpayable",
      "type": "function"
    },
    {
      "inputs": [
        {
          "internalType": "bytes4",
          "name": "interfaceId",
          "type": "bytes4"
        }
      ],
      "name": "supportsInterface",
      "outputs": [
        {
          "internalType": "bool",
          "name": "",
          "type": "bool"
        }
      ],
      "stateMutability": "view",
      "type": "function"
    },
    {
      "inputs": [],
      "name": "symbol",
      "outputs": [
        {
          "internalType": "string",
          "name": "",
          "type": "string"
        }
      ],
      "stateMutability": "view",
      "type": "function"
    },
    {
      "inputs": [
        {
          "internalType": "uint256",
          "name": "tokenId",
          "type": "uint256"
        }
      ],
      "name": "tokenURI",
      "outputs": [
        {
          "internalType": "string",
          "name": "",
          "type": "string"
        }
      ],
      "stateMutability": "view",
      "type": "function"
    },
    {
      "inputs": [
        {
          "internalType": "address",
          "name": "from",
          "type": "address"
        },
        {
          "internalType": "address",
          "name": "to",
          "type": "address"
        },
        {
          "internalType": "uint256",
          "name": "tokenId",
          "type": "uint256"
        }
      ],
      "name": "transferFrom",
      "outputs": [],
      "stateMutability": "nonpayable",
      "type": "function"
    },
    {
      "inputs": [
        {
          "internalType": "address",
          "name": "newOwner",
          "type": "address"
        }
      ],
      "name": "transferOwnership",
      "outputs": [],
      "stateMutability": "nonpayable",
      "type": "function"
    },
    {
      "inputs": [
        {
          "internalType": "uint256",
          "name": "tokenId",
          "type": "uint256"
        },
        {
          "internalType": "string",
          "name": "metaURI",
          "type": "string"
        }
      ],
      "name": "updateMetaURI",
      "outputs": [],
      "stateMutability": "nonpayable",
      "type": "function"
    }
  ],
  "bytecode": "0x608060405267016345785d8a00006008553480156200001d57600080fd5b5060405162004e2938038062004e29833981810160405281019062000043919062000211565b6040518060400160405280601081526020017f426c6f636b7320554920426c6f636b73000000000000000000000000000000008152506040518060400160405280600481526020017f42554942000000000000000000000000000000000000000000000000000000008152508160009081620000c09190620004b3565b508060019081620000d29190620004b3565b505050620000f5620000e96200010360201b60201c565b6200010b60201b60201c565b80600881905550506200059a565b600033905090565b6000600660009054906101000a900473ffffffffffffffffffffffffffffffffffffffff16905081600660006101000a81548173ffffffffffffffffffffffffffffffffffffffff021916908373ffffffffffffffffffffffffffffffffffffffff1602179055508173ffffffffffffffffffffffffffffffffffffffff168173ffffffffffffffffffffffffffffffffffffffff167f8be0079c531659141344cd1fd0a4f28419497f9722a3daafe3b4186f6b6457e060405160405180910390a35050565b600080fd5b6000819050919050565b620001eb81620001d6565b8114620001f757600080fd5b50565b6000815190506200020b81620001e0565b92915050565b6000602082840312156200022a5762000229620001d1565b5b60006200023a84828501620001fa565b91505092915050565b600081519050919050565b7f4e487b7100000000000000000000000000000000000000000000000000000000600052604160045260246000fd5b7f4e487b7100000000000000000000000000000000000000000000000000000000600052602260045260246000fd5b60006002820490506001821680620002c557607f821691505b602082108103620002db57620002da6200027d565b5b50919050565b60008190508160005260206000209050919050565b60006020601f8301049050919050565b600082821b905092915050565b600060088302620003457fffffffffffffffffffffffffffffffffffffffffffffffffffffffffffffffff8262000306565b62000351868362000306565b95508019841693508086168417925050509392505050565b6000819050919050565b6000620003946200038e6200038884620001d6565b62000369565b620001d6565b9050919050565b6000819050919050565b620003b08362000373565b620003c8620003bf826200039b565b84845462000313565b825550505050565b600090565b620003df620003d0565b620003ec818484620003a5565b505050565b5b81811015620004145762000408600082620003d5565b600181019050620003f2565b5050565b601f82111562000463576200042d81620002e1565b6200043884620002f6565b8101602085101562000448578190505b620004606200045785620002f6565b830182620003f1565b50505b505050565b600082821c905092915050565b6000620004886000198460080262000468565b1980831691505092915050565b6000620004a3838362000475565b9150826002028217905092915050565b620004be8262000243565b67ffffffffffffffff811115620004da57620004d96200024e565b5b620004e68254620002ac565b620004f382828562000418565b600060209050601f8311600181146200052b576000841562000516578287015190505b62000522858262000495565b86555062000592565b601f1984166200053b86620002e1565b60005b8281101562000565578489015182556001820191506020850194506020810190506200053e565b8683101562000585578489015162000581601f89168262000475565b8355505b6001600288020188555050505b505050505050565b61487f80620005aa6000396000f3fe60806040526004361061019c5760003560e01c80638da5cb5b116100ec578063b88d4fde1161008a578063c98e984e11610064578063c98e984e146105e7578063d166bd9c14610603578063e985e9c514610640578063f2fde38b1461067d5761019c565b8063b88d4fde14610558578063b8d5035b14610581578063c87b56dd146105aa5761019c565b80639739ec58116100c65780639739ec581461048c578063a000e635146104c9578063a20ca25a14610506578063a22cb4651461052f5761019c565b80638da5cb5b1461040b57806395d89b4114610436578063971c4845146104615761019c565b80634c23b253116101595780636352211e116101335780636352211e1461035157806370a082311461038e578063715018a6146103cb57806377e73762146103e25761019c565b80634c23b253146102c15780635d92c9c0146102ff578063600d09f5146103285761019c565b806301ffc9a7146101a157806306fdde03146101de578063081812fc14610209578063095ea7b31461024657806323b872dd1461026f57806342842e0e14610298575b600080fd5b3480156101ad57600080fd5b506101c860048036038101906101c39190612913565b6106a6565b6040516101d5919061295b565b60405180910390f35b3480156101ea57600080fd5b506101f3610788565b6040516102009190612a06565b60405180910390f35b34801561021557600080fd5b50610230600480360381019061022b9190612a5e565b61081a565b60405161023d9190612acc565b60405180910390f35b34801561025257600080fd5b5061026d60048036038101906102689190612b13565b610860565b005b34801561027b57600080fd5b5061029660048036038101906102919190612b53565b610977565b005b3480156102a457600080fd5b506102bf60048036038101906102ba9190612b53565b6109d7565b005b3480156102cd57600080fd5b506102e860048036038101906102e39190612a5e565b6109f7565b6040516102f6929190612ccb565b60405180910390f35b34801561030b57600080fd5b5061032660048036038101906103219190612e30565b610afd565b005b34801561033457600080fd5b5061034f600480360381019061034a9190612a5e565b610cc6565b005b34801561035d57600080fd5b5061037860048036038101906103739190612a5e565b610cd8565b6040516103859190612acc565b60405180910390f35b34801561039a57600080fd5b506103b560048036038101906103b09190612e8c565b610d89565b6040516103c29190612ec8565b60405180910390f35b3480156103d757600080fd5b506103e0610e40565b005b3480156103ee57600080fd5b5061040960048036038101906104049190612ee3565b610e54565b005b34801561041757600080fd5b50610420610eb2565b60405161042d9190612acc565b60405180910390f35b34801561044257600080fd5b5061044b610edc565b6040516104589190612a06565b60405180910390f35b34801561046d57600080fd5b50610476610f6e565b6040516104839190612ec8565b60405180910390f35b34801561049857600080fd5b506104b360048036038101906104ae9190612f4f565b610f74565b6040516104c0919061295b565b60405180910390f35b3480156104d557600080fd5b506104f060048036038101906104eb9190612fdc565b610fe3565b6040516104fd919061295b565b60405180910390f35b34801561051257600080fd5b5061052d60048036038101906105289190612e30565b6110b4565b005b34801561053b57600080fd5b5061055660048036038101906105519190613068565b6111e2565b005b34801561056457600080fd5b5061057f600480360381019061057a9190613149565b6111f8565b005b34801561058d57600080fd5b506105a860048036038101906105a39190612e30565b61125a565b005b3480156105b657600080fd5b506105d160048036038101906105cc9190612a5e565b6112c1565b6040516105de9190612a06565b60405180910390f35b61060160048036038101906105fc91906131cc565b611365565b005b34801561060f57600080fd5b5061062a60048036038101906106259190613228565b611543565b604051610637919061295b565b60405180910390f35b34801561064c57600080fd5b5061066760048036038101906106629190613268565b6115b2565b604051610674919061295b565b60405180910390f35b34801561068957600080fd5b506106a4600480360381019061069f9190612e8c565b611646565b005b60007f80ac58cd000000000000000000000000000000000000000000000000000000007bffffffffffffffffffffffffffffffffffffffffffffffffffffffff1916827bffffffffffffffffffffffffffffffffffffffffffffffffffffffff1916148061077157507f5b5e139f000000000000000000000000000000000000000000000000000000007bffffffffffffffffffffffffffffffffffffffffffffffffffffffff1916827bffffffffffffffffffffffffffffffffffffffffffffffffffffffff1916145b806107815750610780826116c9565b5b9050919050565b606060008054610797906132d7565b80601f01602080910402602001604051908101604052809291908181526020018280546107c3906132d7565b80156108105780601f106107e557610100808354040283529160200191610810565b820191906000526020600020905b8154815290600101906020018083116107f357829003601f168201915b5050505050905090565b600061082582611733565b6004600083815260200190815260200160002060009054906101000a900473ffffffffffffffffffffffffffffffffffffffff169050919050565b600061086b82610cd8565b90508073ffffffffffffffffffffffffffffffffffffffff168373ffffffffffffffffffffffffffffffffffffffff16036108db576040517f08c379a00000000000000000000000000000000000000000000000000000000081526004016108d29061337a565b60405180910390fd5b8073ffffffffffffffffffffffffffffffffffffffff166108fa61177e565b73ffffffffffffffffffffffffffffffffffffffff16148061092957506109288161092361177e565b6115b2565b5b610968576040517f08c379a000000000000000000000000000000000000000000000000000000000815260040161095f9061340c565b60405180910390fd5b6109728383611786565b505050565b61098861098261177e565b8261183f565b6109c7576040517f08c379a00000000000000000000000000000000000000000000000000000000081526004016109be9061349e565b60405180910390fd5b6109d28383836118d4565b505050565b6109f2838383604051806020016040528060008152506111f8565b505050565b600060606000610a0684611b3a565b9050600a6000858152602001908152602001600020548160040180805480602002602001604051908101604052809291908181526020016000905b82821015610aed578382906000526020600020018054610a60906132d7565b80601f0160208091040260200160405190810160405280929190818152602001828054610a8c906132d7565b8015610ad95780601f10610aae57610100808354040283529160200191610ad9565b820191906000526020600020905b815481529060010190602001808311610abc57829003601f168201915b505050505081526020019060010190610a41565b5050505090509250925050915091565b81610b088133611bb1565b6000610b1384611b3a565b9050600081600401905060005b8180549050811015610cbe576000836004018281548110610b4457610b436134be565b5b90600052602060002001604051602001610b5e9190613590565b60405160208183030381529060405280519060200120905085604051602001610b8791906135d8565b604051602081830303815290604052805190602001208103610caa5760008290505b60018480549050610bba919061361e565b811015610c275783600182610bcf9190613652565b81548110610be057610bdf6134be565b5b90600052602060002001848281548110610bfd57610bfc6134be565b5b906000526020600020019081610c139190613848565b508080610c1f90613930565b915050610ba9565b5082805480610c3957610c38613978565b5b600190038181906000526020600020016000610c5591906127c9565b90558284600401908054610c6a929190612809565b507f72b63e1bbc981e828158ec70b05e3bf803352343fe43176ba80ea18636fbc1158787604051610c9c9291906139a7565b60405180910390a150610cbe565b508080610cb690613930565b915050610b20565b505050505050565b610cce611c5e565b8060088190555050565b6000806002600084815260200190815260200160002060009054906101000a900473ffffffffffffffffffffffffffffffffffffffff169050600073ffffffffffffffffffffffffffffffffffffffff168173ffffffffffffffffffffffffffffffffffffffff1603610d80576040517f08c379a0000000000000000000000000000000000000000000000000000000008152600401610d7790613a23565b60405180910390fd5b80915050919050565b60008073ffffffffffffffffffffffffffffffffffffffff168273ffffffffffffffffffffffffffffffffffffffff1603610df9576040517f08c379a0000000000000000000000000000000000000000000000000000000008152600401610df090613ab5565b60405180910390fd5b600360008373ffffffffffffffffffffffffffffffffffffffff1673ffffffffffffffffffffffffffffffffffffffff168152602001908152602001600020549050919050565b610e48611c5e565b610e526000611cdc565b565b81610e5f8133611bb1565b6000610e6a84611b3a565b90508281600101819055507f681adb0a75005f74f98275e4513ba493758a1139566b90fcdb0b6d3c2e88885484604051610ea49190612ec8565b60405180910390a150505050565b6000600660009054906101000a900473ffffffffffffffffffffffffffffffffffffffff16905090565b606060018054610eeb906132d7565b80601f0160208091040260200160405190810160405280929190818152602001828054610f17906132d7565b8015610f645780601f10610f3957610100808354040283529160200191610f64565b820191906000526020600020905b815481529060010190602001808311610f4757829003601f168201915b5050505050905090565b60085481565b60008073ffffffffffffffffffffffffffffffffffffffff166009600084815260200190815260200160002060030160009054906101000a900473ffffffffffffffffffffffffffffffffffffffff1673ffffffffffffffffffffffffffffffffffffffff1614159050919050565b60008060096000868152602001908152602001600020905060005b81600401805490508110156110a6576000826004018281548110611025576110246134be565b5b9060005260206000200160405160200161103f9190613590565b604051602081830303815290604052805190602001209050858560405160200161106a929190613afa565b60405160208183030381529060405280519060200120810361109257600193505050506110ad565b50808061109e90613930565b915050610ffe565b5060009150505b9392505050565b816110bf8133611bb1565b60006110ca84611b3a565b905060005b81600401805490508110156111a45760008260040182815481106110f6576110f56134be565b5b906000526020600020016040516020016111109190613590565b6040516020818303038152906040528051906020012090508460405160200161113991906135d8565b604051602081830303815290604052805190602001208103611190576040517f08c379a000000000000000000000000000000000000000000000000000000000815260040161118790613b5f565b60405180910390fd5b50808061119c90613930565b9150506110cf565b5080600401839080600181540180825580915050600190039060005260206000200160009091909190915090816111db9190613b7f565b5050505050565b6111f46111ed61177e565b8383611da2565b5050565b61120961120361177e565b8361183f565b611248576040517f08c379a000000000000000000000000000000000000000000000000000000000815260040161123f9061349e565b60405180910390fd5b61125484848484611f0e565b50505050565b816112658133611bb1565b600061127084611b3a565b9050828160020190816112839190613b7f565b507f1ac12b5edf42c94defd54bfd36a381ad63ace974fba83558108a1b7b8d6460b0846040516112b39190612ec8565b60405180910390a150505050565b606060006112ce83611b3a565b90508060020180546112df906132d7565b80601f016020809104026020016040519081016040528092919081815260200182805461130b906132d7565b80156113585780601f1061132d57610100808354040283529160200191611358565b820191906000526020600020905b81548152906001019060200180831161133b57829003601f168201915b5050505050915050919050565b6000600960008481526020019081526020016000209050600073ffffffffffffffffffffffffffffffffffffffff168160030160009054906101000a900473ffffffffffffffffffffffffffffffffffffffff1673ffffffffffffffffffffffffffffffffffffffff161461140f576040517f08c379a000000000000000000000000000000000000000000000000000000000815260040161140690613c9d565b60405180910390fd5b600854341015611454576040517f08c379a000000000000000000000000000000000000000000000000000000000815260040161144b90613d09565b60405180910390fd5b60006114606007611f6a565b9050611478336001836114739190613652565b611f78565b828260020190816114899190613b7f565b50338260030160006101000a81548173ffffffffffffffffffffffffffffffffffffffff021916908373ffffffffffffffffffffffffffffffffffffffff16021790555080826000018190555083600a60006001846114e89190613652565b8152602001908152602001600020819055506115046007611f96565b7fcb6b0d5db984446a186de997469438ab0e51d096c9e3d7e1b12c44cf5259d86e8483604051611535929190613f9a565b60405180910390a150505050565b60008173ffffffffffffffffffffffffffffffffffffffff166009600085815260200190815260200160002060030160009054906101000a900473ffffffffffffffffffffffffffffffffffffffff1673ffffffffffffffffffffffffffffffffffffffff1614905092915050565b6000600560008473ffffffffffffffffffffffffffffffffffffffff1673ffffffffffffffffffffffffffffffffffffffff16815260200190815260200160002060008373ffffffffffffffffffffffffffffffffffffffff1673ffffffffffffffffffffffffffffffffffffffff16815260200190815260200160002060009054906101000a900460ff16905092915050565b61164e611c5e565b600073ffffffffffffffffffffffffffffffffffffffff168173ffffffffffffffffffffffffffffffffffffffff16036116bd576040517f08c379a00000000000000000000000000000000000000000000000000000000081526004016116b49061403c565b60405180910390fd5b6116c681611cdc565b50565b60007f01ffc9a7000000000000000000000000000000000000000000000000000000007bffffffffffffffffffffffffffffffffffffffffffffffffffffffff1916827bffffffffffffffffffffffffffffffffffffffffffffffffffffffff1916149050919050565b61173c81611fac565b61177b576040517f08c379a000000000000000000000000000000000000000000000000000000000815260040161177290613a23565b60405180910390fd5b50565b600033905090565b816004600083815260200190815260200160002060006101000a81548173ffffffffffffffffffffffffffffffffffffffff021916908373ffffffffffffffffffffffffffffffffffffffff160217905550808273ffffffffffffffffffffffffffffffffffffffff166117f983610cd8565b73ffffffffffffffffffffffffffffffffffffffff167f8c5be1e5ebec7d5bd14f71427d1e84f3dd0314c0f7b2291e5b200ac8c7c3b92560405160405180910390a45050565b60008061184b83610cd8565b90508073ffffffffffffffffffffffffffffffffffffffff168473ffffffffffffffffffffffffffffffffffffffff16148061188d575061188c81856115b2565b5b806118cb57508373ffffffffffffffffffffffffffffffffffffffff166118b38461081a565b73ffffffffffffffffffffffffffffffffffffffff16145b91505092915050565b8273ffffffffffffffffffffffffffffffffffffffff166118f482610cd8565b73ffffffffffffffffffffffffffffffffffffffff161461194a576040517f08c379a0000000000000000000000000000000000000000000000000000000008152600401611941906140ce565b60405180910390fd5b600073ffffffffffffffffffffffffffffffffffffffff168273ffffffffffffffffffffffffffffffffffffffff16036119b9576040517f08c379a00000000000000000000000000000000000000000000000000000000081526004016119b090614160565b60405180910390fd5b6119c4838383612018565b6119cf600082611786565b6001600360008573ffffffffffffffffffffffffffffffffffffffff1673ffffffffffffffffffffffffffffffffffffffff1681526020019081526020016000206000828254611a1f919061361e565b925050819055506001600360008473ffffffffffffffffffffffffffffffffffffffff1673ffffffffffffffffffffffffffffffffffffffff1681526020019081526020016000206000828254611a769190613652565b92505081905550816002600083815260200190815260200160002060006101000a81548173ffffffffffffffffffffffffffffffffffffffff021916908373ffffffffffffffffffffffffffffffffffffffff160217905550808273ffffffffffffffffffffffffffffffffffffffff168473ffffffffffffffffffffffffffffffffffffffff167fddf252ad1be2c89b69c2b068fc378daa952ba7f163c4a11628f55a4df523b3ef60405160405180910390a4611b3583838361201d565b505050565b6000611b4582611fac565b611b84576040517f08c379a0000000000000000000000000000000000000000000000000000000008152600401611b7b906141cc565b60405180910390fd5b60096000600a60008581526020019081526020016000205481526020019081526020016000209050919050565b8073ffffffffffffffffffffffffffffffffffffffff16611bd183610cd8565b73ffffffffffffffffffffffffffffffffffffffff1614611c5a57611bf581612022565b611bfe8361204f565b604051602001611c0f929190614284565b6040516020818303038152906040526040517f08c379a0000000000000000000000000000000000000000000000000000000008152600401611c519190612a06565b60405180910390fd5b5050565b611c6661177e565b73ffffffffffffffffffffffffffffffffffffffff16611c84610eb2565b73ffffffffffffffffffffffffffffffffffffffff1614611cda576040517f08c379a0000000000000000000000000000000000000000000000000000000008152600401611cd19061430a565b60405180910390fd5b565b6000600660009054906101000a900473ffffffffffffffffffffffffffffffffffffffff16905081600660006101000a81548173ffffffffffffffffffffffffffffffffffffffff021916908373ffffffffffffffffffffffffffffffffffffffff1602179055508173ffffffffffffffffffffffffffffffffffffffff168173ffffffffffffffffffffffffffffffffffffffff167f8be0079c531659141344cd1fd0a4f28419497f9722a3daafe3b4186f6b6457e060405160405180910390a35050565b8173ffffffffffffffffffffffffffffffffffffffff168373ffffffffffffffffffffffffffffffffffffffff1603611e10576040517f08c379a0000000000000000000000000000000000000000000000000000000008152600401611e0790614376565b60405180910390fd5b80600560008573ffffffffffffffffffffffffffffffffffffffff1673ffffffffffffffffffffffffffffffffffffffff16815260200190815260200160002060008473ffffffffffffffffffffffffffffffffffffffff1673ffffffffffffffffffffffffffffffffffffffff16815260200190815260200160002060006101000a81548160ff0219169083151502179055508173ffffffffffffffffffffffffffffffffffffffff168373ffffffffffffffffffffffffffffffffffffffff167f17307eab39ab6107e8899845ad3d59bd9653f200f220920489ca2b5937696c3183604051611f01919061295b565b60405180910390a3505050565b611f198484846118d4565b611f25848484846121af565b611f64576040517f08c379a0000000000000000000000000000000000000000000000000000000008152600401611f5b90614408565b60405180910390fd5b50505050565b600081600001549050919050565b611f92828260405180602001604052806000815250612336565b5050565b6001816000016000828254019250508190555050565b60008073ffffffffffffffffffffffffffffffffffffffff166002600084815260200190815260200160002060009054906101000a900473ffffffffffffffffffffffffffffffffffffffff1673ffffffffffffffffffffffffffffffffffffffff1614159050919050565b505050565b505050565b60606120488273ffffffffffffffffffffffffffffffffffffffff16601460ff16612391565b9050919050565b606060008203612096576040518060400160405280600181526020017f300000000000000000000000000000000000000000000000000000000000000081525090506121aa565b600082905060005b600082146120c85780806120b190613930565b915050600a826120c19190614457565b915061209e565b60008167ffffffffffffffff8111156120e4576120e3612d05565b5b6040519080825280601f01601f1916602001820160405280156121165781602001600182028036833780820191505090505b5090505b600085146121a35760018261212f919061361e565b9150600a8561213e9190614488565b603061214a9190613652565b60f81b8183815181106121605761215f6134be565b5b60200101907effffffffffffffffffffffffffffffffffffffffffffffffffffffffffffff1916908160001a905350600a8561219c9190614457565b945061211a565b8093505050505b919050565b60006121d08473ffffffffffffffffffffffffffffffffffffffff166125cd565b15612329578373ffffffffffffffffffffffffffffffffffffffff1663150b7a026121f961177e565b8786866040518563ffffffff1660e01b815260040161221b949392919061450e565b6020604051808303816000875af192505050801561225757506040513d601f19601f82011682018060405250810190612254919061456f565b60015b6122d9573d8060008114612287576040519150601f19603f3d011682016040523d82523d6000602084013e61228c565b606091505b5060008151036122d1576040517f08c379a00000000000000000000000000000000000000000000000000000000081526004016122c890614408565b60405180910390fd5b805181602001fd5b63150b7a0260e01b7bffffffffffffffffffffffffffffffffffffffffffffffffffffffff1916817bffffffffffffffffffffffffffffffffffffffffffffffffffffffff19161491505061232e565b600190505b949350505050565b61234083836125f0565b61234d60008484846121af565b61238c576040517f08c379a000000000000000000000000000000000000000000000000000000000815260040161238390614408565b60405180910390fd5b505050565b6060600060028360026123a4919061459c565b6123ae9190613652565b67ffffffffffffffff8111156123c7576123c6612d05565b5b6040519080825280601f01601f1916602001820160405280156123f95781602001600182028036833780820191505090505b5090507f300000000000000000000000000000000000000000000000000000000000000081600081518110612431576124306134be565b5b60200101907effffffffffffffffffffffffffffffffffffffffffffffffffffffffffffff1916908160001a9053507f780000000000000000000000000000000000000000000000000000000000000081600181518110612495576124946134be565b5b60200101907effffffffffffffffffffffffffffffffffffffffffffffffffffffffffffff1916908160001a905350600060018460026124d5919061459c565b6124df9190613652565b90505b600181111561257f577f3031323334353637383961626364656600000000000000000000000000000000600f861660108110612521576125206134be565b5b1a60f81b828281518110612538576125376134be565b5b60200101907effffffffffffffffffffffffffffffffffffffffffffffffffffffffffffff1916908160001a905350600485901c945080612578906145de565b90506124e2565b50600084146125c3576040517f08c379a00000000000000000000000000000000000000000000000000000000081526004016125ba90614653565b60405180910390fd5b8091505092915050565b6000808273ffffffffffffffffffffffffffffffffffffffff163b119050919050565b600073ffffffffffffffffffffffffffffffffffffffff168273ffffffffffffffffffffffffffffffffffffffff160361265f576040517f08c379a0000000000000000000000000000000000000000000000000000000008152600401612656906146bf565b60405180910390fd5b61266881611fac565b156126a8576040517f08c379a000000000000000000000000000000000000000000000000000000000815260040161269f9061472b565b60405180910390fd5b6126b460008383612018565b6001600360008473ffffffffffffffffffffffffffffffffffffffff1673ffffffffffffffffffffffffffffffffffffffff16815260200190815260200160002060008282546127049190613652565b92505081905550816002600083815260200190815260200160002060006101000a81548173ffffffffffffffffffffffffffffffffffffffff021916908373ffffffffffffffffffffffffffffffffffffffff160217905550808273ffffffffffffffffffffffffffffffffffffffff16600073ffffffffffffffffffffffffffffffffffffffff167fddf252ad1be2c89b69c2b068fc378daa952ba7f163c4a11628f55a4df523b3ef60405160405180910390a46127c56000838361201d565b5050565b5080546127d5906132d7565b6000825580601f106127e75750612806565b601f0160209004906000526020600020908101906128059190612866565b5b50565b8280548282559060005260206000209081019282156128555760005260206000209182015b8281111561285457828290816128449190614761565b509160010191906001019061282e565b5b5090506128629190612883565b5090565b5b8082111561287f576000816000905550600101612867565b5090565b5b808211156128a3576000818161289a91906127c9565b50600101612884565b5090565b6000604051905090565b600080fd5b600080fd5b60007fffffffff0000000000000000000000000000000000000000000000000000000082169050919050565b6128f0816128bb565b81146128fb57600080fd5b50565b60008135905061290d816128e7565b92915050565b600060208284031215612929576129286128b1565b5b6000612937848285016128fe565b91505092915050565b60008115159050919050565b61295581612940565b82525050565b6000602082019050612970600083018461294c565b92915050565b600081519050919050565b600082825260208201905092915050565b60005b838110156129b0578082015181840152602081019050612995565b60008484015250505050565b6000601f19601f8301169050919050565b60006129d882612976565b6129e28185612981565b93506129f2818560208601612992565b6129fb816129bc565b840191505092915050565b60006020820190508181036000830152612a2081846129cd565b905092915050565b6000819050919050565b612a3b81612a28565b8114612a4657600080fd5b50565b600081359050612a5881612a32565b92915050565b600060208284031215612a7457612a736128b1565b5b6000612a8284828501612a49565b91505092915050565b600073ffffffffffffffffffffffffffffffffffffffff82169050919050565b6000612ab682612a8b565b9050919050565b612ac681612aab565b82525050565b6000602082019050612ae16000830184612abd565b92915050565b612af081612aab565b8114612afb57600080fd5b50565b600081359050612b0d81612ae7565b92915050565b60008060408385031215612b2a57612b296128b1565b5b6000612b3885828601612afe565b9250506020612b4985828601612a49565b9150509250929050565b600080600060608486031215612b6c57612b6b6128b1565b5b6000612b7a86828701612afe565b9350506020612b8b86828701612afe565b9250506040612b9c86828701612a49565b9150509250925092565b6000819050919050565b612bb981612ba6565b82525050565b600081519050919050565b600082825260208201905092915050565b6000819050602082019050919050565b600082825260208201905092915050565b6000612c0782612976565b612c118185612beb565b9350612c21818560208601612992565b612c2a816129bc565b840191505092915050565b6000612c418383612bfc565b905092915050565b6000602082019050919050565b6000612c6182612bbf565b612c6b8185612bca565b935083602082028501612c7d85612bdb565b8060005b85811015612cb95784840389528151612c9a8582612c35565b9450612ca583612c49565b925060208a01995050600181019050612c81565b50829750879550505050505092915050565b6000604082019050612ce06000830185612bb0565b8181036020830152612cf28184612c56565b90509392505050565b600080fd5b600080fd5b7f4e487b7100000000000000000000000000000000000000000000000000000000600052604160045260246000fd5b612d3d826129bc565b810181811067ffffffffffffffff82111715612d5c57612d5b612d05565b5b80604052505050565b6000612d6f6128a7565b9050612d7b8282612d34565b919050565b600067ffffffffffffffff821115612d9b57612d9a612d05565b5b612da4826129bc565b9050602081019050919050565b82818337600083830152505050565b6000612dd3612dce84612d80565b612d65565b905082815260208101848484011115612def57612dee612d00565b5b612dfa848285612db1565b509392505050565b600082601f830112612e1757612e16612cfb565b5b8135612e27848260208601612dc0565b91505092915050565b60008060408385031215612e4757612e466128b1565b5b6000612e5585828601612a49565b925050602083013567ffffffffffffffff811115612e7657612e756128b6565b5b612e8285828601612e02565b9150509250929050565b600060208284031215612ea257612ea16128b1565b5b6000612eb084828501612afe565b91505092915050565b612ec281612a28565b82525050565b6000602082019050612edd6000830184612eb9565b92915050565b60008060408385031215612efa57612ef96128b1565b5b6000612f0885828601612a49565b9250506020612f1985828601612a49565b9150509250929050565b612f2c81612ba6565b8114612f3757600080fd5b50565b600081359050612f4981612f23565b92915050565b600060208284031215612f6557612f646128b1565b5b6000612f7384828501612f3a565b91505092915050565b600080fd5b600080fd5b60008083601f840112612f9c57612f9b612cfb565b5b8235905067ffffffffffffffff811115612fb957612fb8612f7c565b5b602083019150836001820283011115612fd557612fd4612f81565b5b9250929050565b600080600060408486031215612ff557612ff46128b1565b5b600061300386828701612f3a565b935050602084013567ffffffffffffffff811115613024576130236128b6565b5b61303086828701612f86565b92509250509250925092565b61304581612940565b811461305057600080fd5b50565b6000813590506130628161303c565b92915050565b6000806040838503121561307f5761307e6128b1565b5b600061308d85828601612afe565b925050602061309e85828601613053565b9150509250929050565b600067ffffffffffffffff8211156130c3576130c2612d05565b5b6130cc826129bc565b9050602081019050919050565b60006130ec6130e7846130a8565b612d65565b90508281526020810184848401111561310857613107612d00565b5b613113848285612db1565b509392505050565b600082601f8301126131305761312f612cfb565b5b81356131408482602086016130d9565b91505092915050565b60008060008060808587031215613163576131626128b1565b5b600061317187828801612afe565b945050602061318287828801612afe565b935050604061319387828801612a49565b925050606085013567ffffffffffffffff8111156131b4576131b36128b6565b5b6131c08782880161311b565b91505092959194509250565b600080604083850312156131e3576131e26128b1565b5b60006131f185828601612f3a565b925050602083013567ffffffffffffffff811115613212576132116128b6565b5b61321e85828601612e02565b9150509250929050565b6000806040838503121561323f5761323e6128b1565b5b600061324d85828601612f3a565b925050602061325e85828601612afe565b9150509250929050565b6000806040838503121561327f5761327e6128b1565b5b600061328d85828601612afe565b925050602061329e85828601612afe565b9150509250929050565b7f4e487b7100000000000000000000000000000000000000000000000000000000600052602260045260246000fd5b600060028204905060018216806132ef57607f821691505b602082108103613302576133016132a8565b5b50919050565b7f4552433732313a20617070726f76616c20746f2063757272656e74206f776e6560008201527f7200000000000000000000000000000000000000000000000000000000000000602082015250565b6000613364602183612981565b915061336f82613308565b604082019050919050565b6000602082019050818103600083015261339381613357565b9050919050565b7f4552433732313a20617070726f76652063616c6c6572206973206e6f7420746f60008201527f6b656e206f776e6572206e6f7220617070726f76656420666f7220616c6c0000602082015250565b60006133f6603e83612981565b91506134018261339a565b604082019050919050565b60006020820190508181036000830152613425816133e9565b9050919050565b7f4552433732313a2063616c6c6572206973206e6f7420746f6b656e206f776e6560008201527f72206e6f7220617070726f766564000000000000000000000000000000000000602082015250565b6000613488602e83612981565b91506134938261342c565b604082019050919050565b600060208201905081810360008301526134b78161347b565b9050919050565b7f4e487b7100000000000000000000000000000000000000000000000000000000600052603260045260246000fd5b600081905092915050565b60008190508160005260206000209050919050565b6000815461351a816132d7565b61352481866134ed565b9450600182166000811461353f576001811461355457613587565b60ff1983168652811515820286019350613587565b61355d856134f8565b60005b8381101561357f57815481890152600182019150602081019050613560565b838801955050505b50505092915050565b600061359c828461350d565b915081905092915050565b60006135b282612976565b6135bc81856134ed565b93506135cc818560208601612992565b80840191505092915050565b60006135e482846135a7565b915081905092915050565b7f4e487b7100000000000000000000000000000000000000000000000000000000600052601160045260246000fd5b600061362982612a28565b915061363483612a28565b925082820390508181111561364c5761364b6135ef565b5b92915050565b600061365d82612a28565b915061366883612a28565b92508282019050808211156136805761367f6135ef565b5b92915050565b600081549050613695816132d7565b9050919050565b60008190508160005260206000209050919050565b60006020601f8301049050919050565b600082821b905092915050565b6000600883026136fe7fffffffffffffffffffffffffffffffffffffffffffffffffffffffffffffffff826136c1565b61370886836136c1565b95508019841693508086168417925050509392505050565b6000819050919050565b600061374561374061373b84612a28565b613720565b612a28565b9050919050565b6000819050919050565b61375f8361372a565b61377361376b8261374c565b8484546136ce565b825550505050565b600090565b61378861377b565b613793818484613756565b505050565b5b818110156137b7576137ac600082613780565b600181019050613799565b5050565b601f8211156137fc576137cd816134f8565b6137d6846136b1565b810160208510156137e5578190505b6137f96137f1856136b1565b830182613798565b50505b505050565b600082821c905092915050565b600061381f60001984600802613801565b1980831691505092915050565b6000613838838361380e565b9150826002028217905092915050565b81810361385657505061392e565b61385f82613686565b67ffffffffffffffff81111561387857613877612d05565b5b61388282546132d7565b61388d8282856137bb565b6000601f8311600181146138bc57600084156138aa578287015490505b6138b4858261382c565b865550613927565b601f1984166138ca8761369c565b96506138d5866134f8565b60005b828110156138fd578489015482556001820191506001850194506020810190506138d8565b8683101561391a5784890154613916601f89168261380e565b8355505b6001600288020188555050505b5050505050505b565b600061393b82612a28565b91507fffffffffffffffffffffffffffffffffffffffffffffffffffffffffffffffff820361396d5761396c6135ef565b5b600182019050919050565b7f4e487b7100000000000000000000000000000000000000000000000000000000600052603160045260246000fd5b60006040820190506139bc6000830185612eb9565b81810360208301526139ce81846129cd565b90509392505050565b7f4552433732313a20696e76616c696420746f6b656e2049440000000000000000600082015250565b6000613a0d601883612981565b9150613a18826139d7565b602082019050919050565b60006020820190508181036000830152613a3c81613a00565b9050919050565b7f4552433732313a2061646472657373207a65726f206973206e6f74206120766160008201527f6c6964206f776e65720000000000000000000000000000000000000000000000602082015250565b6000613a9f602983612981565b9150613aaa82613a43565b604082019050919050565b60006020820190508181036000830152613ace81613a92565b9050919050565b6000613ae183856134ed565b9350613aee838584612db1565b82840190509392505050565b6000613b07828486613ad5565b91508190509392505050565b7f4f726967696e20616c7265616479206578697374730000000000000000000000600082015250565b6000613b49601583612981565b9150613b5482613b13565b602082019050919050565b60006020820190508181036000830152613b7881613b3c565b9050919050565b613b8882612976565b67ffffffffffffffff811115613ba157613ba0612d05565b5b613bab82546132d7565b613bb68282856137bb565b600060209050601f831160018114613be95760008415613bd7578287015190505b613be1858261382c565b865550613c49565b601f198416613bf7866134f8565b60005b82811015613c1f57848901518255600182019150602085019450602081019050613bfa565b86831015613c3c5784890151613c38601f89168261380e565b8355505b6001600288020188555050505b505050505050565b7f5468697320426c6f636b20697320616c7265616479207075626c697368656400600082015250565b6000613c87601f83612981565b9150613c9282613c51565b602082019050919050565b60006020820190508181036000830152613cb681613c7a565b9050919050565b7f496e73756666696369656e742066756e647320746f207075626c697368000000600082015250565b6000613cf3601d83612981565b9150613cfe82613cbd565b602082019050919050565b60006020820190508181036000830152613d2281613ce6565b9050919050565b60008160001c9050919050565b6000819050919050565b6000613d53613d4e83613d29565b613d36565b9050919050565b613d6381612a28565b82525050565b60008154613d76816132d7565b613d808186612beb565b94506001821660008114613d9b5760018114613db157613de4565b60ff198316865281151560200286019350613de4565b613dba856134f8565b60005b83811015613ddc57815481890152600182019150602081019050613dbd565b808801955050505b50505092915050565b600073ffffffffffffffffffffffffffffffffffffffff82169050919050565b6000613e20613e1b83613d29565b613ded565b9050919050565b613e3081612aab565b82525050565b600081549050919050565b600082825260208201905092915050565b60008190508160005260206000209050919050565b6000613e738383613d69565b905092915050565b6000600182019050919050565b6000613e9382613e36565b613e9d8185613e41565b935083602082028501613eaf85613e52565b8060005b85811015613eea57848403895281613ecb8582613e67565b9450613ed683613e7b565b925060208a01995050600181019050613eb3565b50829750879550505050505092915050565b600060a083016000808401549050613f1381613d40565b613f206000870182613d5a565b5060018401549050613f3181613d40565b613f3e6020870182613d5a565b50600284018583036040870152613f558382613d69565b92505060038401549050613f6881613e0d565b613f756060870182613e27565b50600484018583036080870152613f8c8382613e88565b925050819250505092915050565b6000604082019050613faf6000830185612bb0565b8181036020830152613fc18184613efc565b90509392505050565b7f4f776e61626c653a206e6577206f776e657220697320746865207a65726f206160008201527f6464726573730000000000000000000000000000000000000000000000000000602082015250565b6000614026602683612981565b915061403182613fca565b604082019050919050565b6000602082019050818103600083015261405581614019565b9050919050565b7f4552433732313a207472616e736665722066726f6d20696e636f72726563742060008201527f6f776e6572000000000000000000000000000000000000000000000000000000602082015250565b60006140b8602583612981565b91506140c38261405c565b604082019050919050565b600060208201905081810360008301526140e7816140ab565b9050919050565b7f4552433732313a207472616e7366657220746f20746865207a65726f2061646460008201527f7265737300000000000000000000000000000000000000000000000000000000602082015250565b600061414a602483612981565b9150614155826140ee565b604082019050919050565b600060208201905081810360008301526141798161413d565b9050919050565b7f546f6b656e20646f6573206e6f74206578697374000000000000000000000000600082015250565b60006141b6601483612981565b91506141c182614180565b602082019050919050565b600060208201905081810360008301526141e5816141a9565b9050919050565b7f426c6f636b7355493a206163636f756e74200000000000000000000000000000600082015250565b60006142226012836134ed565b915061422d826141ec565b601282019050919050565b7f206973206e6f7420746865206f776e6572206f66200000000000000000000000600082015250565b600061426e6015836134ed565b915061427982614238565b601582019050919050565b600061428f82614215565b915061429b82856135a7565b91506142a682614261565b91506142b282846135a7565b91508190509392505050565b7f4f776e61626c653a2063616c6c6572206973206e6f7420746865206f776e6572600082015250565b60006142f4602083612981565b91506142ff826142be565b602082019050919050565b60006020820190508181036000830152614323816142e7565b9050919050565b7f4552433732313a20617070726f766520746f2063616c6c657200000000000000600082015250565b6000614360601983612981565b915061436b8261432a565b602082019050919050565b6000602082019050818103600083015261438f81614353565b9050919050565b7f4552433732313a207472616e7366657220746f206e6f6e20455243373231526560008201527f63656976657220696d706c656d656e7465720000000000000000000000000000602082015250565b60006143f2603283612981565b91506143fd82614396565b604082019050919050565b60006020820190508181036000830152614421816143e5565b9050919050565b7f4e487b7100000000000000000000000000000000000000000000000000000000600052601260045260246000fd5b600061446282612a28565b915061446d83612a28565b92508261447d5761447c614428565b5b828204905092915050565b600061449382612a28565b915061449e83612a28565b9250826144ae576144ad614428565b5b828206905092915050565b600081519050919050565b600082825260208201905092915050565b60006144e0826144b9565b6144ea81856144c4565b93506144fa818560208601612992565b614503816129bc565b840191505092915050565b60006080820190506145236000830187612abd565b6145306020830186612abd565b61453d6040830185612eb9565b818103606083015261454f81846144d5565b905095945050505050565b600081519050614569816128e7565b92915050565b600060208284031215614585576145846128b1565b5b60006145938482850161455a565b91505092915050565b60006145a782612a28565b91506145b283612a28565b92508282026145c081612a28565b915082820484148315176145d7576145d66135ef565b5b5092915050565b60006145e982612a28565b9150600082036145fc576145fb6135ef565b5b600182039050919050565b7f537472696e67733a20686578206c656e67746820696e73756666696369656e74600082015250565b600061463d602083612981565b915061464882614607565b602082019050919050565b6000602082019050818103600083015261466c81614630565b9050919050565b7f4552433732313a206d696e7420746f20746865207a65726f2061646472657373600082015250565b60006146a9602083612981565b91506146b482614673565b602082019050919050565b600060208201905081810360008301526146d88161469c565b9050919050565b7f4552433732313a20746f6b656e20616c7265616479206d696e74656400000000600082015250565b6000614715601c83612981565b9150614720826146df565b602082019050919050565b6000602082019050818103600083015261474481614708565b9050919050565b60008154905061475a816132d7565b9050919050565b81810361476f575050614847565b6147788261474b565b67ffffffffffffffff81111561479157614790612d05565b5b61479b82546132d7565b6147a68282856137bb565b6000601f8311600181146147d557600084156147c3578287015490505b6147cd858261382c565b865550614840565b601f1984166147e3876134f8565b96506147ee866134f8565b60005b82811015614816578489015482556001820191506001850194506020810190506147f1565b86831015614833578489015461482f601f89168261380e565b8355505b6001600288020188555050505b5050505050505b56fea2646970667358221220d9ff3b9a894a8c0f42b206b39273ae0fff4181c6b0b8f0439cd04422e194482164736f6c63430008110033",
  "linkReferences": {},
  "deployedLinkReferences": {}
}