{
  "address": "0xfC3E6d9f030a7c52C72142E57832b95dA46c0046",
  "contractName": "BUIBlockNFT",
  "abi": [
    {
      "inputs": [
        {
          "internalType": "uint256",
          "name": "_publishPrice",
          "type": "uint256"
        }
      ],
      "stateMutability": "nonpayable",
      "type": "constructor"
    },
    {
      "anonymous": false,
      "inputs": [
        {
          "indexed": true,
          "internalType": "address",
          "name": "owner",
          "type": "address"
        },
        {
          "indexed": true,
          "internalType": "address",
          "name": "approved",
          "type": "address"
        },
        {
          "indexed": true,
          "internalType": "uint256",
          "name": "tokenId",
          "type": "uint256"
        }
      ],
      "name": "Approval",
      "type": "event"
    },
    {
      "anonymous": false,
      "inputs": [
        {
          "indexed": true,
          "internalType": "address",
          "name": "owner",
          "type": "address"
        },
        {
          "indexed": true,
          "internalType": "address",
          "name": "operator",
          "type": "address"
        },
        {
          "indexed": false,
          "internalType": "bool",
          "name": "approved",
          "type": "bool"
        }
      ],
      "name": "ApprovalForAll",
      "type": "event"
    },
    {
      "anonymous": false,
      "inputs": [
        {
          "indexed": false,
          "internalType": "uint256",
          "name": "tokenId",
          "type": "uint256"
        }
      ],
      "name": "BUIBlockDeprecated",
      "type": "event"
    },
    {
      "anonymous": false,
      "inputs": [
        {
          "indexed": false,
          "internalType": "uint256",
          "name": "tokenId",
          "type": "uint256"
        }
      ],
      "name": "BUIBlockMetadataUpdated",
      "type": "event"
    },
    {
      "anonymous": false,
      "inputs": [
        {
          "indexed": false,
          "internalType": "uint256",
          "name": "tokenId",
          "type": "uint256"
        },
        {
          "indexed": false,
          "internalType": "string",
          "name": "origin",
          "type": "string"
        }
      ],
      "name": "BUIBlockOriginRemoved",
      "type": "event"
    },
    {
      "anonymous": false,
      "inputs": [
        {
          "indexed": false,
          "internalType": "bytes32",
          "name": "cid",
          "type": "bytes32"
        },
        {
          "components": [
            {
              "internalType": "uint256",
              "name": "tokenId",
              "type": "uint256"
            },
            {
              "internalType": "uint256",
              "name": "deprecateDate",
              "type": "uint256"
            },
            {
              "internalType": "string",
              "name": "encryptedKey",
              "type": "string"
            },
            {
              "internalType": "string",
              "name": "metaURI",
              "type": "string"
            },
            {
              "internalType": "address",
              "name": "owner",
              "type": "address"
            },
            {
              "internalType": "string[]",
              "name": "origins",
              "type": "string[]"
            }
          ],
          "indexed": false,
          "internalType": "struct Block",
          "name": "data",
          "type": "tuple"
        }
      ],
      "name": "BUIBlockPublished",
      "type": "event"
    },
    {
      "anonymous": false,
      "inputs": [
        {
          "indexed": true,
          "internalType": "address",
          "name": "previousOwner",
          "type": "address"
        },
        {
          "indexed": true,
          "internalType": "address",
          "name": "newOwner",
          "type": "address"
        }
      ],
      "name": "OwnershipTransferred",
      "type": "event"
    },
    {
      "anonymous": false,
      "inputs": [
        {
          "indexed": true,
          "internalType": "address",
          "name": "from",
          "type": "address"
        },
        {
          "indexed": true,
          "internalType": "address",
          "name": "to",
          "type": "address"
        },
        {
          "indexed": true,
          "internalType": "uint256",
          "name": "tokenId",
          "type": "uint256"
        }
      ],
      "name": "Transfer",
      "type": "event"
    },
    {
      "inputs": [
        {
          "internalType": "address",
          "name": "to",
          "type": "address"
        },
        {
          "internalType": "uint256",
          "name": "tokenId",
          "type": "uint256"
        }
      ],
      "name": "approve",
      "outputs": [],
      "stateMutability": "nonpayable",
      "type": "function"
    },
    {
      "inputs": [
        {
          "internalType": "address",
          "name": "owner",
          "type": "address"
        }
      ],
      "name": "balanceOf",
      "outputs": [
        {
          "internalType": "uint256",
          "name": "",
          "type": "uint256"
        }
      ],
      "stateMutability": "view",
      "type": "function"
    },
    {
      "inputs": [
        {
          "internalType": "bytes32",
          "name": "cid",
          "type": "bytes32"
        }
      ],
      "name": "blockExists",
      "outputs": [
        {
          "internalType": "bool",
          "name": "",
          "type": "bool"
        }
      ],
      "stateMutability": "view",
      "type": "function"
    },
    {
      "inputs": [
        {
          "internalType": "uint256",
          "name": "tokenId",
          "type": "uint256"
        }
      ],
      "name": "blockForToken",
      "outputs": [
        {
          "internalType": "bytes32",
          "name": "cid",
          "type": "bytes32"
        },
        {
          "internalType": "string",
          "name": "encryptedKey",
          "type": "string"
        },
        {
          "internalType": "string[]",
          "name": "origins",
          "type": "string[]"
        }
      ],
      "stateMutability": "view",
      "type": "function"
    },
    {
      "inputs": [
        {
          "internalType": "uint256",
          "name": "tokenId",
          "type": "uint256"
        }
      ],
      "name": "getApproved",
      "outputs": [
        {
          "internalType": "address",
          "name": "",
          "type": "address"
        }
      ],
      "stateMutability": "view",
      "type": "function"
    },
    {
      "inputs": [
        {
          "internalType": "address",
          "name": "owner",
          "type": "address"
        },
        {
          "internalType": "address",
          "name": "operator",
          "type": "address"
        }
      ],
      "name": "isApprovedForAll",
      "outputs": [
        {
          "internalType": "bool",
          "name": "",
          "type": "bool"
        }
      ],
      "stateMutability": "view",
      "type": "function"
    },
    {
      "inputs": [],
      "name": "name",
      "outputs": [
        {
          "internalType": "string",
          "name": "",
          "type": "string"
        }
      ],
      "stateMutability": "view",
      "type": "function"
    },
    {
      "inputs": [],
      "name": "owner",
      "outputs": [
        {
          "internalType": "address",
          "name": "",
          "type": "address"
        }
      ],
      "stateMutability": "view",
      "type": "function"
    },
    {
      "inputs": [
        {
          "internalType": "uint256",
          "name": "tokenId",
          "type": "uint256"
        }
      ],
      "name": "ownerOf",
      "outputs": [
        {
          "internalType": "address",
          "name": "",
          "type": "address"
        }
      ],
      "stateMutability": "view",
      "type": "function"
    },
    {
      "inputs": [
        {
          "internalType": "bytes32",
          "name": "cid",
          "type": "bytes32"
        },
        {
          "internalType": "address",
          "name": "owner",
          "type": "address"
        }
      ],
      "name": "ownerOfBlock",
      "outputs": [
        {
          "internalType": "bool",
          "name": "",
          "type": "bool"
        }
      ],
      "stateMutability": "view",
      "type": "function"
    },
    {
      "inputs": [
        {
          "internalType": "bytes32",
          "name": "cid",
          "type": "bytes32"
        },
        {
          "internalType": "string",
          "name": "encryptedKey",
          "type": "string"
        },
        {
          "internalType": "string",
          "name": "metaURI",
          "type": "string"
        }
      ],
      "name": "publish",
      "outputs": [],
      "stateMutability": "payable",
      "type": "function"
    },
    {
      "inputs": [],
      "name": "publishPrice",
      "outputs": [
        {
          "internalType": "uint256",
          "name": "",
          "type": "uint256"
        }
      ],
      "stateMutability": "view",
      "type": "function"
    },
    {
      "inputs": [
        {
          "internalType": "uint256",
          "name": "tokenId",
          "type": "uint256"
        },
        {
          "internalType": "string",
          "name": "origin",
          "type": "string"
        }
      ],
      "name": "removeOrigin",
      "outputs": [],
      "stateMutability": "nonpayable",
      "type": "function"
    },
    {
      "inputs": [],
      "name": "renounceOwnership",
      "outputs": [],
      "stateMutability": "nonpayable",
      "type": "function"
    },
    {
      "inputs": [
        {
          "internalType": "address",
          "name": "from",
          "type": "address"
        },
        {
          "internalType": "address",
          "name": "to",
          "type": "address"
        },
        {
          "internalType": "uint256",
          "name": "tokenId",
          "type": "uint256"
        }
      ],
      "name": "safeTransferFrom",
      "outputs": [],
      "stateMutability": "nonpayable",
      "type": "function"
    },
    {
      "inputs": [
        {
          "internalType": "address",
          "name": "from",
          "type": "address"
        },
        {
          "internalType": "address",
          "name": "to",
          "type": "address"
        },
        {
          "internalType": "uint256",
          "name": "tokenId",
          "type": "uint256"
        },
        {
          "internalType": "bytes",
          "name": "data",
          "type": "bytes"
        }
      ],
      "name": "safeTransferFrom",
      "outputs": [],
      "stateMutability": "nonpayable",
      "type": "function"
    },
    {
      "inputs": [
        {
          "internalType": "address",
          "name": "operator",
          "type": "address"
        },
        {
          "internalType": "bool",
          "name": "approved",
          "type": "bool"
        }
      ],
      "name": "setApprovalForAll",
      "outputs": [],
      "stateMutability": "nonpayable",
      "type": "function"
    },
    {
      "inputs": [
        {
          "internalType": "uint256",
          "name": "tokenId",
          "type": "uint256"
        },
        {
          "internalType": "uint256",
          "name": "deprecateDate",
          "type": "uint256"
        }
      ],
      "name": "setDeprecated",
      "outputs": [],
      "stateMutability": "nonpayable",
      "type": "function"
    },
    {
      "inputs": [
        {
          "internalType": "uint256",
          "name": "tokenId",
          "type": "uint256"
        },
        {
          "internalType": "string",
          "name": "origin",
          "type": "string"
        }
      ],
      "name": "setOrigin",
      "outputs": [],
      "stateMutability": "nonpayable",
      "type": "function"
    },
    {
      "inputs": [
        {
          "internalType": "uint256",
          "name": "_publishPrice",
          "type": "uint256"
        }
      ],
      "name": "setPublishPrice",
      "outputs": [],
      "stateMutability": "nonpayable",
      "type": "function"
    },
    {
      "inputs": [
        {
          "internalType": "bytes4",
          "name": "interfaceId",
          "type": "bytes4"
        }
      ],
      "name": "supportsInterface",
      "outputs": [
        {
          "internalType": "bool",
          "name": "",
          "type": "bool"
        }
      ],
      "stateMutability": "view",
      "type": "function"
    },
    {
      "inputs": [],
      "name": "symbol",
      "outputs": [
        {
          "internalType": "string",
          "name": "",
          "type": "string"
        }
      ],
      "stateMutability": "view",
      "type": "function"
    },
    {
      "inputs": [
        {
          "internalType": "uint256",
          "name": "tokenId",
          "type": "uint256"
        }
      ],
      "name": "tokenURI",
      "outputs": [
        {
          "internalType": "string",
          "name": "",
          "type": "string"
        }
      ],
      "stateMutability": "view",
      "type": "function"
    },
    {
      "inputs": [
        {
          "internalType": "address",
          "name": "from",
          "type": "address"
        },
        {
          "internalType": "address",
          "name": "to",
          "type": "address"
        },
        {
          "internalType": "uint256",
          "name": "tokenId",
          "type": "uint256"
        }
      ],
      "name": "transferFrom",
      "outputs": [],
      "stateMutability": "nonpayable",
      "type": "function"
    },
    {
      "inputs": [
        {
          "internalType": "address",
          "name": "newOwner",
          "type": "address"
        }
      ],
      "name": "transferOwnership",
      "outputs": [],
      "stateMutability": "nonpayable",
      "type": "function"
    },
    {
      "inputs": [
        {
          "internalType": "uint256",
          "name": "tokenId",
          "type": "uint256"
        },
        {
          "internalType": "string",
          "name": "metaURI",
          "type": "string"
        }
      ],
      "name": "updateMetaURI",
      "outputs": [],
      "stateMutability": "nonpayable",
      "type": "function"
    }
  ],
  "bytecode": "0x608060405267016345785d8a00006008553480156200001d57600080fd5b5060405162004d0838038062004d08833981810160405281019062000043919062000211565b6040518060400160405280601081526020017f426c6f636b7320554920426c6f636b73000000000000000000000000000000008152506040518060400160405280600481526020017f42554942000000000000000000000000000000000000000000000000000000008152508160009081620000c09190620004b3565b508060019081620000d29190620004b3565b505050620000f5620000e96200010360201b60201c565b6200010b60201b60201c565b80600881905550506200059a565b600033905090565b6000600660009054906101000a900473ffffffffffffffffffffffffffffffffffffffff16905081600660006101000a81548173ffffffffffffffffffffffffffffffffffffffff021916908373ffffffffffffffffffffffffffffffffffffffff1602179055508173ffffffffffffffffffffffffffffffffffffffff168173ffffffffffffffffffffffffffffffffffffffff167f8be0079c531659141344cd1fd0a4f28419497f9722a3daafe3b4186f6b6457e060405160405180910390a35050565b600080fd5b6000819050919050565b620001eb81620001d6565b8114620001f757600080fd5b50565b6000815190506200020b81620001e0565b92915050565b6000602082840312156200022a5762000229620001d1565b5b60006200023a84828501620001fa565b91505092915050565b600081519050919050565b7f4e487b7100000000000000000000000000000000000000000000000000000000600052604160045260246000fd5b7f4e487b7100000000000000000000000000000000000000000000000000000000600052602260045260246000fd5b60006002820490506001821680620002c557607f821691505b602082108103620002db57620002da6200027d565b5b50919050565b60008190508160005260206000209050919050565b60006020601f8301049050919050565b600082821b905092915050565b600060088302620003457fffffffffffffffffffffffffffffffffffffffffffffffffffffffffffffffff8262000306565b62000351868362000306565b95508019841693508086168417925050509392505050565b6000819050919050565b6000620003946200038e6200038884620001d6565b62000369565b620001d6565b9050919050565b6000819050919050565b620003b08362000373565b620003c8620003bf826200039b565b84845462000313565b825550505050565b600090565b620003df620003d0565b620003ec818484620003a5565b505050565b5b81811015620004145762000408600082620003d5565b600181019050620003f2565b5050565b601f82111562000463576200042d81620002e1565b6200043884620002f6565b8101602085101562000448578190505b620004606200045785620002f6565b830182620003f1565b50505b505050565b600082821c905092915050565b6000620004886000198460080262000468565b1980831691505092915050565b6000620004a3838362000475565b9150826002028217905092915050565b620004be8262000243565b67ffffffffffffffff811115620004da57620004d96200024e565b5b620004e68254620002ac565b620004f382828562000418565b600060209050601f8311600181146200052b576000841562000516578287015190505b62000522858262000495565b86555062000592565b601f1984166200053b86620002e1565b60005b8281101562000565578489015182556001820191506020850194506020810190506200053e565b8683101562000585578489015162000581601f89168262000475565b8355505b6001600288020188555050505b505050505050565b61475e80620005aa6000396000f3fe6080604052600436106101815760003560e01c806377e73762116100d1578063a22cb4651161008a578063c87b56dd11610064578063c87b56dd1461056f578063d166bd9c146105ac578063e985e9c5146105e9578063f2fde38b1461062657610181565b8063a22cb465146104f4578063b88d4fde1461051d578063b8d5035b1461054657610181565b806377e73762146103e45780638da5cb5b1461040d57806395d89b4114610438578063971c4845146104635780639739ec581461048e578063a20ca25a146104cb57610181565b806342842e0e1161013e578063600d09f511610118578063600d09f51461032a5780636352211e1461035357806370a0823114610390578063715018a6146103cd57610181565b806342842e0e146102995780634c23b253146102c25780635d92c9c01461030157610181565b806301ffc9a71461018657806306fdde03146101c3578063081812fc146101ee578063095ea7b31461022b5780631a91ed181461025457806323b872dd14610270575b600080fd5b34801561019257600080fd5b506101ad60048036038101906101a89190612893565b61064f565b6040516101ba91906128db565b60405180910390f35b3480156101cf57600080fd5b506101d8610731565b6040516101e59190612986565b60405180910390f35b3480156101fa57600080fd5b50610215600480360381019061021091906129de565b6107c3565b6040516102229190612a4c565b60405180910390f35b34801561023757600080fd5b50610252600480360381019061024d9190612a93565b610809565b005b61026e60048036038101906102699190612c3e565b610920565b005b34801561027c57600080fd5b5061029760048036038101906102929190612cc9565b610b11565b005b3480156102a557600080fd5b506102c060048036038101906102bb9190612cc9565b610b71565b005b3480156102ce57600080fd5b506102e960048036038101906102e491906129de565b610b91565b6040516102f893929190612e37565b60405180910390f35b34801561030d57600080fd5b5061032860048036038101906103239190612e7c565b610d2c565b005b34801561033657600080fd5b50610351600480360381019061034c91906129de565b610ef5565b005b34801561035f57600080fd5b5061037a600480360381019061037591906129de565b610f07565b6040516103879190612a4c565b60405180910390f35b34801561039c57600080fd5b506103b760048036038101906103b29190612ed8565b610fb8565b6040516103c49190612f14565b60405180910390f35b3480156103d957600080fd5b506103e261106f565b005b3480156103f057600080fd5b5061040b60048036038101906104069190612f2f565b611083565b005b34801561041957600080fd5b506104226110e1565b60405161042f9190612a4c565b60405180910390f35b34801561044457600080fd5b5061044d61110b565b60405161045a9190612986565b60405180910390f35b34801561046f57600080fd5b5061047861119d565b6040516104859190612f14565b60405180910390f35b34801561049a57600080fd5b506104b560048036038101906104b09190612f6f565b6111a3565b6040516104c291906128db565b60405180910390f35b3480156104d757600080fd5b506104f260048036038101906104ed9190612e7c565b611212565b005b34801561050057600080fd5b5061051b60048036038101906105169190612fc8565b611340565b005b34801561052957600080fd5b50610544600480360381019061053f91906130a9565b611356565b005b34801561055257600080fd5b5061056d60048036038101906105689190612e7c565b6113b8565b005b34801561057b57600080fd5b50610596600480360381019061059191906129de565b61141f565b6040516105a39190612986565b60405180910390f35b3480156105b857600080fd5b506105d360048036038101906105ce919061312c565b6114c3565b6040516105e091906128db565b60405180910390f35b3480156105f557600080fd5b50610610600480360381019061060b919061316c565b611532565b60405161061d91906128db565b60405180910390f35b34801561063257600080fd5b5061064d60048036038101906106489190612ed8565b6115c6565b005b60007f80ac58cd000000000000000000000000000000000000000000000000000000007bffffffffffffffffffffffffffffffffffffffffffffffffffffffff1916827bffffffffffffffffffffffffffffffffffffffffffffffffffffffff1916148061071a57507f5b5e139f000000000000000000000000000000000000000000000000000000007bffffffffffffffffffffffffffffffffffffffffffffffffffffffff1916827bffffffffffffffffffffffffffffffffffffffffffffffffffffffff1916145b8061072a575061072982611649565b5b9050919050565b606060008054610740906131db565b80601f016020809104026020016040519081016040528092919081815260200182805461076c906131db565b80156107b95780601f1061078e576101008083540402835291602001916107b9565b820191906000526020600020905b81548152906001019060200180831161079c57829003601f168201915b5050505050905090565b60006107ce826116b3565b6004600083815260200190815260200160002060009054906101000a900473ffffffffffffffffffffffffffffffffffffffff169050919050565b600061081482610f07565b90508073ffffffffffffffffffffffffffffffffffffffff168373ffffffffffffffffffffffffffffffffffffffff1603610884576040517f08c379a000000000000000000000000000000000000000000000000000000000815260040161087b9061327e565b60405180910390fd5b8073ffffffffffffffffffffffffffffffffffffffff166108a36116fe565b73ffffffffffffffffffffffffffffffffffffffff1614806108d257506108d1816108cc6116fe565b611532565b5b610911576040517f08c379a000000000000000000000000000000000000000000000000000000000815260040161090890613310565b60405180910390fd5b61091b8383611706565b505050565b6000600960008581526020019081526020016000209050600073ffffffffffffffffffffffffffffffffffffffff168160040160009054906101000a900473ffffffffffffffffffffffffffffffffffffffff1673ffffffffffffffffffffffffffffffffffffffff16146109ca576040517f08c379a00000000000000000000000000000000000000000000000000000000081526004016109c19061337c565b60405180910390fd5b600854341015610a0f576040517f08c379a0000000000000000000000000000000000000000000000000000000008152600401610a06906133e8565b60405180910390fd5b6000610a1b60076117bf565b9050610a3333600183610a2e9190613437565b6117cd565b83826002019081610a449190613617565b5082826003019081610a569190613617565b50338260040160006101000a81548173ffffffffffffffffffffffffffffffffffffffff021916908373ffffffffffffffffffffffffffffffffffffffff16021790555080826000018190555084600a6000600184610ab59190613437565b815260200190815260200160002081905550610ad160076117eb565b7f69398f142f2998efaa2ccb89b16434d8baeb7efac0b57abdae605f0bf84d08188583604051610b02929190613973565b60405180910390a15050505050565b610b22610b1c6116fe565b82611801565b610b61576040517f08c379a0000000000000000000000000000000000000000000000000000000008152600401610b5890613a15565b60405180910390fd5b610b6c838383611896565b505050565b610b8c83838360405180602001604052806000815250611356565b505050565b60006060806000610ba185611afc565b9050600a6000868152602001908152602001600020548160020182600501818054610bcb906131db565b80601f0160208091040260200160405190810160405280929190818152602001828054610bf7906131db565b8015610c445780601f10610c1957610100808354040283529160200191610c44565b820191906000526020600020905b815481529060010190602001808311610c2757829003601f168201915b5050505050915080805480602002602001604051908101604052809291908181526020016000905b82821015610d18578382906000526020600020018054610c8b906131db565b80601f0160208091040260200160405190810160405280929190818152602001828054610cb7906131db565b8015610d045780601f10610cd957610100808354040283529160200191610d04565b820191906000526020600020905b815481529060010190602001808311610ce757829003601f168201915b505050505081526020019060010190610c6c565b505050509050935093509350509193909250565b81610d378133611b73565b6000610d4284611afc565b9050600081600501905060005b8180549050811015610eed576000836005018281548110610d7357610d72613a35565b5b90600052602060002001604051602001610d8d9190613af2565b60405160208183030381529060405280519060200120905085604051602001610db69190613b3a565b604051602081830303815290604052805190602001208103610ed95760008290505b60018480549050610de99190613b51565b811015610e565783600182610dfe9190613437565b81548110610e0f57610e0e613a35565b5b90600052602060002001848281548110610e2c57610e2b613a35565b5b906000526020600020019081610e429190613bb0565b508080610e4e90613c98565b915050610dd8565b5082805480610e6857610e67613ce0565b5b600190038181906000526020600020016000610e849190612749565b90558284600501908054610e99929190612789565b507f72b63e1bbc981e828158ec70b05e3bf803352343fe43176ba80ea18636fbc1158787604051610ecb929190613d0f565b60405180910390a150610eed565b508080610ee590613c98565b915050610d4f565b505050505050565b610efd611c20565b8060088190555050565b6000806002600084815260200190815260200160002060009054906101000a900473ffffffffffffffffffffffffffffffffffffffff169050600073ffffffffffffffffffffffffffffffffffffffff168173ffffffffffffffffffffffffffffffffffffffff1603610faf576040517f08c379a0000000000000000000000000000000000000000000000000000000008152600401610fa690613d8b565b60405180910390fd5b80915050919050565b60008073ffffffffffffffffffffffffffffffffffffffff168273ffffffffffffffffffffffffffffffffffffffff1603611028576040517f08c379a000000000000000000000000000000000000000000000000000000000815260040161101f90613e1d565b60405180910390fd5b600360008373ffffffffffffffffffffffffffffffffffffffff1673ffffffffffffffffffffffffffffffffffffffff168152602001908152602001600020549050919050565b611077611c20565b6110816000611c9e565b565b8161108e8133611b73565b600061109984611afc565b90508281600101819055507f681adb0a75005f74f98275e4513ba493758a1139566b90fcdb0b6d3c2e888854846040516110d39190612f14565b60405180910390a150505050565b6000600660009054906101000a900473ffffffffffffffffffffffffffffffffffffffff16905090565b60606001805461111a906131db565b80601f0160208091040260200160405190810160405280929190818152602001828054611146906131db565b80156111935780601f1061116857610100808354040283529160200191611193565b820191906000526020600020905b81548152906001019060200180831161117657829003601f168201915b5050505050905090565b60085481565b60008073ffffffffffffffffffffffffffffffffffffffff166009600084815260200190815260200160002060040160009054906101000a900473ffffffffffffffffffffffffffffffffffffffff1673ffffffffffffffffffffffffffffffffffffffff1614159050919050565b8161121d8133611b73565b600061122884611afc565b905060005b816005018054905081101561130257600082600501828154811061125457611253613a35565b5b9060005260206000200160405160200161126e9190613af2565b604051602081830303815290604052805190602001209050846040516020016112979190613b3a565b6040516020818303038152906040528051906020012081036112ee576040517f08c379a00000000000000000000000000000000000000000000000000000000081526004016112e590613e89565b60405180910390fd5b5080806112fa90613c98565b91505061122d565b5080600501839080600181540180825580915050600190039060005260206000200160009091909190915090816113399190613617565b5050505050565b61135261134b6116fe565b8383611d64565b5050565b6113676113616116fe565b83611801565b6113a6576040517f08c379a000000000000000000000000000000000000000000000000000000000815260040161139d90613a15565b60405180910390fd5b6113b284848484611ed0565b50505050565b816113c38133611b73565b60006113ce84611afc565b9050828160030190816113e19190613617565b507f1ac12b5edf42c94defd54bfd36a381ad63ace974fba83558108a1b7b8d6460b0846040516114119190612f14565b60405180910390a150505050565b6060600061142c83611afc565b905080600301805461143d906131db565b80601f0160208091040260200160405190810160405280929190818152602001828054611469906131db565b80156114b65780601f1061148b576101008083540402835291602001916114b6565b820191906000526020600020905b81548152906001019060200180831161149957829003601f168201915b5050505050915050919050565b60008173ffffffffffffffffffffffffffffffffffffffff166009600085815260200190815260200160002060040160009054906101000a900473ffffffffffffffffffffffffffffffffffffffff1673ffffffffffffffffffffffffffffffffffffffff1614905092915050565b6000600560008473ffffffffffffffffffffffffffffffffffffffff1673ffffffffffffffffffffffffffffffffffffffff16815260200190815260200160002060008373ffffffffffffffffffffffffffffffffffffffff1673ffffffffffffffffffffffffffffffffffffffff16815260200190815260200160002060009054906101000a900460ff16905092915050565b6115ce611c20565b600073ffffffffffffffffffffffffffffffffffffffff168173ffffffffffffffffffffffffffffffffffffffff160361163d576040517f08c379a000000000000000000000000000000000000000000000000000000000815260040161163490613f1b565b60405180910390fd5b61164681611c9e565b50565b60007f01ffc9a7000000000000000000000000000000000000000000000000000000007bffffffffffffffffffffffffffffffffffffffffffffffffffffffff1916827bffffffffffffffffffffffffffffffffffffffffffffffffffffffff1916149050919050565b6116bc81611f2c565b6116fb576040517f08c379a00000000000000000000000000000000000000000000000000000000081526004016116f290613d8b565b60405180910390fd5b50565b600033905090565b816004600083815260200190815260200160002060006101000a81548173ffffffffffffffffffffffffffffffffffffffff021916908373ffffffffffffffffffffffffffffffffffffffff160217905550808273ffffffffffffffffffffffffffffffffffffffff1661177983610f07565b73ffffffffffffffffffffffffffffffffffffffff167f8c5be1e5ebec7d5bd14f71427d1e84f3dd0314c0f7b2291e5b200ac8c7c3b92560405160405180910390a45050565b600081600001549050919050565b6117e7828260405180602001604052806000815250611f98565b5050565b6001816000016000828254019250508190555050565b60008061180d83610f07565b90508073ffffffffffffffffffffffffffffffffffffffff168473ffffffffffffffffffffffffffffffffffffffff16148061184f575061184e8185611532565b5b8061188d57508373ffffffffffffffffffffffffffffffffffffffff16611875846107c3565b73ffffffffffffffffffffffffffffffffffffffff16145b91505092915050565b8273ffffffffffffffffffffffffffffffffffffffff166118b682610f07565b73ffffffffffffffffffffffffffffffffffffffff161461190c576040517f08c379a000000000000000000000000000000000000000000000000000000000815260040161190390613fad565b60405180910390fd5b600073ffffffffffffffffffffffffffffffffffffffff168273ffffffffffffffffffffffffffffffffffffffff160361197b576040517f08c379a00000000000000000000000000000000000000000000000000000000081526004016119729061403f565b60405180910390fd5b611986838383611ff3565b611991600082611706565b6001600360008573ffffffffffffffffffffffffffffffffffffffff1673ffffffffffffffffffffffffffffffffffffffff16815260200190815260200160002060008282546119e19190613b51565b925050819055506001600360008473ffffffffffffffffffffffffffffffffffffffff1673ffffffffffffffffffffffffffffffffffffffff1681526020019081526020016000206000828254611a389190613437565b92505081905550816002600083815260200190815260200160002060006101000a81548173ffffffffffffffffffffffffffffffffffffffff021916908373ffffffffffffffffffffffffffffffffffffffff160217905550808273ffffffffffffffffffffffffffffffffffffffff168473ffffffffffffffffffffffffffffffffffffffff167fddf252ad1be2c89b69c2b068fc378daa952ba7f163c4a11628f55a4df523b3ef60405160405180910390a4611af7838383611ff8565b505050565b6000611b0782611f2c565b611b46576040517f08c379a0000000000000000000000000000000000000000000000000000000008152600401611b3d906140ab565b60405180910390fd5b60096000600a60008581526020019081526020016000205481526020019081526020016000209050919050565b8073ffffffffffffffffffffffffffffffffffffffff16611b9383610f07565b73ffffffffffffffffffffffffffffffffffffffff1614611c1c57611bb781611ffd565b611bc08361202a565b604051602001611bd1929190614163565b6040516020818303038152906040526040517f08c379a0000000000000000000000000000000000000000000000000000000008152600401611c139190612986565b60405180910390fd5b5050565b611c286116fe565b73ffffffffffffffffffffffffffffffffffffffff16611c466110e1565b73ffffffffffffffffffffffffffffffffffffffff1614611c9c576040517f08c379a0000000000000000000000000000000000000000000000000000000008152600401611c93906141e9565b60405180910390fd5b565b6000600660009054906101000a900473ffffffffffffffffffffffffffffffffffffffff16905081600660006101000a81548173ffffffffffffffffffffffffffffffffffffffff021916908373ffffffffffffffffffffffffffffffffffffffff1602179055508173ffffffffffffffffffffffffffffffffffffffff168173ffffffffffffffffffffffffffffffffffffffff167f8be0079c531659141344cd1fd0a4f28419497f9722a3daafe3b4186f6b6457e060405160405180910390a35050565b8173ffffffffffffffffffffffffffffffffffffffff168373ffffffffffffffffffffffffffffffffffffffff1603611dd2576040517f08c379a0000000000000000000000000000000000000000000000000000000008152600401611dc990614255565b60405180910390fd5b80600560008573ffffffffffffffffffffffffffffffffffffffff1673ffffffffffffffffffffffffffffffffffffffff16815260200190815260200160002060008473ffffffffffffffffffffffffffffffffffffffff1673ffffffffffffffffffffffffffffffffffffffff16815260200190815260200160002060006101000a81548160ff0219169083151502179055508173ffffffffffffffffffffffffffffffffffffffff168373ffffffffffffffffffffffffffffffffffffffff167f17307eab39ab6107e8899845ad3d59bd9653f200f220920489ca2b5937696c3183604051611ec391906128db565b60405180910390a3505050565b611edb848484611896565b611ee78484848461218a565b611f26576040517f08c379a0000000000000000000000000000000000000000000000000000000008152600401611f1d906142e7565b60405180910390fd5b50505050565b60008073ffffffffffffffffffffffffffffffffffffffff166002600084815260200190815260200160002060009054906101000a900473ffffffffffffffffffffffffffffffffffffffff1673ffffffffffffffffffffffffffffffffffffffff1614159050919050565b611fa28383612311565b611faf600084848461218a565b611fee576040517f08c379a0000000000000000000000000000000000000000000000000000000008152600401611fe5906142e7565b60405180910390fd5b505050565b505050565b505050565b60606120238273ffffffffffffffffffffffffffffffffffffffff16601460ff166124ea565b9050919050565b606060008203612071576040518060400160405280600181526020017f30000000000000000000000000000000000000000000000000000000000000008152509050612185565b600082905060005b600082146120a357808061208c90613c98565b915050600a8261209c9190614336565b9150612079565b60008167ffffffffffffffff8111156120bf576120be612b13565b5b6040519080825280601f01601f1916602001820160405280156120f15781602001600182028036833780820191505090505b5090505b6000851461217e5760018261210a9190613b51565b9150600a856121199190614367565b60306121259190613437565b60f81b81838151811061213b5761213a613a35565b5b60200101907effffffffffffffffffffffffffffffffffffffffffffffffffffffffffffff1916908160001a905350600a856121779190614336565b94506120f5565b8093505050505b919050565b60006121ab8473ffffffffffffffffffffffffffffffffffffffff16612726565b15612304578373ffffffffffffffffffffffffffffffffffffffff1663150b7a026121d46116fe565b8786866040518563ffffffff1660e01b81526004016121f694939291906143ed565b6020604051808303816000875af192505050801561223257506040513d601f19601f8201168201806040525081019061222f919061444e565b60015b6122b4573d8060008114612262576040519150601f19603f3d011682016040523d82523d6000602084013e612267565b606091505b5060008151036122ac576040517f08c379a00000000000000000000000000000000000000000000000000000000081526004016122a3906142e7565b60405180910390fd5b805181602001fd5b63150b7a0260e01b7bffffffffffffffffffffffffffffffffffffffffffffffffffffffff1916817bffffffffffffffffffffffffffffffffffffffffffffffffffffffff191614915050612309565b600190505b949350505050565b600073ffffffffffffffffffffffffffffffffffffffff168273ffffffffffffffffffffffffffffffffffffffff1603612380576040517f08c379a0000000000000000000000000000000000000000000000000000000008152600401612377906144c7565b60405180910390fd5b61238981611f2c565b156123c9576040517f08c379a00000000000000000000000000000000000000000000000000000000081526004016123c090614533565b60405180910390fd5b6123d560008383611ff3565b6001600360008473ffffffffffffffffffffffffffffffffffffffff1673ffffffffffffffffffffffffffffffffffffffff16815260200190815260200160002060008282546124259190613437565b92505081905550816002600083815260200190815260200160002060006101000a81548173ffffffffffffffffffffffffffffffffffffffff021916908373ffffffffffffffffffffffffffffffffffffffff160217905550808273ffffffffffffffffffffffffffffffffffffffff16600073ffffffffffffffffffffffffffffffffffffffff167fddf252ad1be2c89b69c2b068fc378daa952ba7f163c4a11628f55a4df523b3ef60405160405180910390a46124e660008383611ff8565b5050565b6060600060028360026124fd9190614553565b6125079190613437565b67ffffffffffffffff8111156125205761251f612b13565b5b6040519080825280601f01601f1916602001820160405280156125525781602001600182028036833780820191505090505b5090507f30000000000000000000000000000000000000000000000000000000000000008160008151811061258a57612589613a35565b5b60200101907effffffffffffffffffffffffffffffffffffffffffffffffffffffffffffff1916908160001a9053507f7800000000000000000000000000000000000000000000000000000000000000816001815181106125ee576125ed613a35565b5b60200101907effffffffffffffffffffffffffffffffffffffffffffffffffffffffffffff1916908160001a9053506000600184600261262e9190614553565b6126389190613437565b90505b60018111156126d8577f3031323334353637383961626364656600000000000000000000000000000000600f86166010811061267a57612679613a35565b5b1a60f81b82828151811061269157612690613a35565b5b60200101907effffffffffffffffffffffffffffffffffffffffffffffffffffffffffffff1916908160001a905350600485901c9450806126d190614595565b905061263b565b506000841461271c576040517f08c379a00000000000000000000000000000000000000000000000000000000081526004016127139061460a565b60405180910390fd5b8091505092915050565b6000808273ffffffffffffffffffffffffffffffffffffffff163b119050919050565b508054612755906131db565b6000825580601f106127675750612786565b601f01602090049060005260206000209081019061278591906127e6565b5b50565b8280548282559060005260206000209081019282156127d55760005260206000209182015b828111156127d457828290816127c49190614640565b50916001019190600101906127ae565b5b5090506127e29190612803565b5090565b5b808211156127ff5760008160009055506001016127e7565b5090565b5b80821115612823576000818161281a9190612749565b50600101612804565b5090565b6000604051905090565b600080fd5b600080fd5b60007fffffffff0000000000000000000000000000000000000000000000000000000082169050919050565b6128708161283b565b811461287b57600080fd5b50565b60008135905061288d81612867565b92915050565b6000602082840312156128a9576128a8612831565b5b60006128b78482850161287e565b91505092915050565b60008115159050919050565b6128d5816128c0565b82525050565b60006020820190506128f060008301846128cc565b92915050565b600081519050919050565b600082825260208201905092915050565b60005b83811015612930578082015181840152602081019050612915565b60008484015250505050565b6000601f19601f8301169050919050565b6000612958826128f6565b6129628185612901565b9350612972818560208601612912565b61297b8161293c565b840191505092915050565b600060208201905081810360008301526129a0818461294d565b905092915050565b6000819050919050565b6129bb816129a8565b81146129c657600080fd5b50565b6000813590506129d8816129b2565b92915050565b6000602082840312156129f4576129f3612831565b5b6000612a02848285016129c9565b91505092915050565b600073ffffffffffffffffffffffffffffffffffffffff82169050919050565b6000612a3682612a0b565b9050919050565b612a4681612a2b565b82525050565b6000602082019050612a616000830184612a3d565b92915050565b612a7081612a2b565b8114612a7b57600080fd5b50565b600081359050612a8d81612a67565b92915050565b60008060408385031215612aaa57612aa9612831565b5b6000612ab885828601612a7e565b9250506020612ac9858286016129c9565b9150509250929050565b6000819050919050565b612ae681612ad3565b8114612af157600080fd5b50565b600081359050612b0381612add565b92915050565b600080fd5b600080fd5b7f4e487b7100000000000000000000000000000000000000000000000000000000600052604160045260246000fd5b612b4b8261293c565b810181811067ffffffffffffffff82111715612b6a57612b69612b13565b5b80604052505050565b6000612b7d612827565b9050612b898282612b42565b919050565b600067ffffffffffffffff821115612ba957612ba8612b13565b5b612bb28261293c565b9050602081019050919050565b82818337600083830152505050565b6000612be1612bdc84612b8e565b612b73565b905082815260208101848484011115612bfd57612bfc612b0e565b5b612c08848285612bbf565b509392505050565b600082601f830112612c2557612c24612b09565b5b8135612c35848260208601612bce565b91505092915050565b600080600060608486031215612c5757612c56612831565b5b6000612c6586828701612af4565b935050602084013567ffffffffffffffff811115612c8657612c85612836565b5b612c9286828701612c10565b925050604084013567ffffffffffffffff811115612cb357612cb2612836565b5b612cbf86828701612c10565b9150509250925092565b600080600060608486031215612ce257612ce1612831565b5b6000612cf086828701612a7e565b9350506020612d0186828701612a7e565b9250506040612d12868287016129c9565b9150509250925092565b612d2581612ad3565b82525050565b600081519050919050565b600082825260208201905092915050565b6000819050602082019050919050565b600082825260208201905092915050565b6000612d73826128f6565b612d7d8185612d57565b9350612d8d818560208601612912565b612d968161293c565b840191505092915050565b6000612dad8383612d68565b905092915050565b6000602082019050919050565b6000612dcd82612d2b565b612dd78185612d36565b935083602082028501612de985612d47565b8060005b85811015612e255784840389528151612e068582612da1565b9450612e1183612db5565b925060208a01995050600181019050612ded565b50829750879550505050505092915050565b6000606082019050612e4c6000830186612d1c565b8181036020830152612e5e818561294d565b90508181036040830152612e728184612dc2565b9050949350505050565b60008060408385031215612e9357612e92612831565b5b6000612ea1858286016129c9565b925050602083013567ffffffffffffffff811115612ec257612ec1612836565b5b612ece85828601612c10565b9150509250929050565b600060208284031215612eee57612eed612831565b5b6000612efc84828501612a7e565b91505092915050565b612f0e816129a8565b82525050565b6000602082019050612f296000830184612f05565b92915050565b60008060408385031215612f4657612f45612831565b5b6000612f54858286016129c9565b9250506020612f65858286016129c9565b9150509250929050565b600060208284031215612f8557612f84612831565b5b6000612f9384828501612af4565b91505092915050565b612fa5816128c0565b8114612fb057600080fd5b50565b600081359050612fc281612f9c565b92915050565b60008060408385031215612fdf57612fde612831565b5b6000612fed85828601612a7e565b9250506020612ffe85828601612fb3565b9150509250929050565b600067ffffffffffffffff82111561302357613022612b13565b5b61302c8261293c565b9050602081019050919050565b600061304c61304784613008565b612b73565b90508281526020810184848401111561306857613067612b0e565b5b613073848285612bbf565b509392505050565b600082601f8301126130905761308f612b09565b5b81356130a0848260208601613039565b91505092915050565b600080600080608085870312156130c3576130c2612831565b5b60006130d187828801612a7e565b94505060206130e287828801612a7e565b93505060406130f3878288016129c9565b925050606085013567ffffffffffffffff81111561311457613113612836565b5b6131208782880161307b565b91505092959194509250565b6000806040838503121561314357613142612831565b5b600061315185828601612af4565b925050602061316285828601612a7e565b9150509250929050565b6000806040838503121561318357613182612831565b5b600061319185828601612a7e565b92505060206131a285828601612a7e565b9150509250929050565b7f4e487b7100000000000000000000000000000000000000000000000000000000600052602260045260246000fd5b600060028204905060018216806131f357607f821691505b602082108103613206576132056131ac565b5b50919050565b7f4552433732313a20617070726f76616c20746f2063757272656e74206f776e6560008201527f7200000000000000000000000000000000000000000000000000000000000000602082015250565b6000613268602183612901565b91506132738261320c565b604082019050919050565b600060208201905081810360008301526132978161325b565b9050919050565b7f4552433732313a20617070726f76652063616c6c6572206973206e6f7420746f60008201527f6b656e206f776e6572206e6f7220617070726f76656420666f7220616c6c0000602082015250565b60006132fa603e83612901565b91506133058261329e565b604082019050919050565b60006020820190508181036000830152613329816132ed565b9050919050565b7f5468697320426c6f636b20697320616c7265616479207075626c697368656400600082015250565b6000613366601f83612901565b915061337182613330565b602082019050919050565b6000602082019050818103600083015261339581613359565b9050919050565b7f496e73756666696369656e742066756e647320746f207075626c697368000000600082015250565b60006133d2601d83612901565b91506133dd8261339c565b602082019050919050565b60006020820190508181036000830152613401816133c5565b9050919050565b7f4e487b7100000000000000000000000000000000000000000000000000000000600052601160045260246000fd5b6000613442826129a8565b915061344d836129a8565b925082820190508082111561346557613464613408565b5b92915050565b60008190508160005260206000209050919050565b60006020601f8301049050919050565b600082821b905092915050565b6000600883026134cd7fffffffffffffffffffffffffffffffffffffffffffffffffffffffffffffffff82613490565b6134d78683613490565b95508019841693508086168417925050509392505050565b6000819050919050565b600061351461350f61350a846129a8565b6134ef565b6129a8565b9050919050565b6000819050919050565b61352e836134f9565b61354261353a8261351b565b84845461349d565b825550505050565b600090565b61355761354a565b613562818484613525565b505050565b5b818110156135865761357b60008261354f565b600181019050613568565b5050565b601f8211156135cb5761359c8161346b565b6135a584613480565b810160208510156135b4578190505b6135c86135c085613480565b830182613567565b50505b505050565b600082821c905092915050565b60006135ee600019846008026135d0565b1980831691505092915050565b600061360783836135dd565b9150826002028217905092915050565b613620826128f6565b67ffffffffffffffff81111561363957613638612b13565b5b61364382546131db565b61364e82828561358a565b600060209050601f831160018114613681576000841561366f578287015190505b61367985826135fb565b8655506136e1565b601f19841661368f8661346b565b60005b828110156136b757848901518255600182019150602085019450602081019050613692565b868310156136d457848901516136d0601f8916826135dd565b8355505b6001600288020188555050505b505050505050565b60008160001c9050919050565b6000819050919050565b600061371361370e836136e9565b6136f6565b9050919050565b613723816129a8565b82525050565b60008154613736816131db565b6137408186612d57565b9450600182166000811461375b5760018114613771576137a4565b60ff1983168652811515602002860193506137a4565b61377a8561346b565b60005b8381101561379c5781548189015260018201915060208101905061377d565b808801955050505b50505092915050565b600073ffffffffffffffffffffffffffffffffffffffff82169050919050565b60006137e06137db836136e9565b6137ad565b9050919050565b6137f081612a2b565b82525050565b600081549050919050565b600082825260208201905092915050565b60008190508160005260206000209050919050565b60006138338383613729565b905092915050565b6000600182019050919050565b6000613853826137f6565b61385d8185613801565b93508360208202850161386f85613812565b8060005b858110156138aa5784840389528161388b8582613827565b94506138968361383b565b925060208a01995050600181019050613873565b50829750879550505050505092915050565b600060c0830160008084015490506138d381613700565b6138e0600087018261371a565b50600184015490506138f181613700565b6138fe602087018261371a565b506002840185830360408701526139158382613729565b92505060038401858303606087015261392e8382613729565b92505060048401549050613941816137cd565b61394e60808701826137e7565b506005840185830360a08701526139658382613848565b925050819250505092915050565b60006040820190506139886000830185612d1c565b818103602083015261399a81846138bc565b90509392505050565b7f4552433732313a2063616c6c6572206973206e6f7420746f6b656e206f776e6560008201527f72206e6f7220617070726f766564000000000000000000000000000000000000602082015250565b60006139ff602e83612901565b9150613a0a826139a3565b604082019050919050565b60006020820190508181036000830152613a2e816139f2565b9050919050565b7f4e487b7100000000000000000000000000000000000000000000000000000000600052603260045260246000fd5b600081905092915050565b60008154613a7c816131db565b613a868186613a64565b94506001821660008114613aa15760018114613ab657613ae9565b60ff1983168652811515820286019350613ae9565b613abf8561346b565b60005b83811015613ae157815481890152600182019150602081019050613ac2565b838801955050505b50505092915050565b6000613afe8284613a6f565b915081905092915050565b6000613b14826128f6565b613b1e8185613a64565b9350613b2e818560208601612912565b80840191505092915050565b6000613b468284613b09565b915081905092915050565b6000613b5c826129a8565b9150613b67836129a8565b9250828203905081811115613b7f57613b7e613408565b5b92915050565b600081549050613b94816131db565b9050919050565b60008190508160005260206000209050919050565b818103613bbe575050613c96565b613bc782613b85565b67ffffffffffffffff811115613be057613bdf612b13565b5b613bea82546131db565b613bf582828561358a565b6000601f831160018114613c245760008415613c12578287015490505b613c1c85826135fb565b865550613c8f565b601f198416613c3287613b9b565b9650613c3d8661346b565b60005b82811015613c6557848901548255600182019150600185019450602081019050613c40565b86831015613c825784890154613c7e601f8916826135dd565b8355505b6001600288020188555050505b5050505050505b565b6000613ca3826129a8565b91507fffffffffffffffffffffffffffffffffffffffffffffffffffffffffffffffff8203613cd557613cd4613408565b5b600182019050919050565b7f4e487b7100000000000000000000000000000000000000000000000000000000600052603160045260246000fd5b6000604082019050613d246000830185612f05565b8181036020830152613d36818461294d565b90509392505050565b7f4552433732313a20696e76616c696420746f6b656e2049440000000000000000600082015250565b6000613d75601883612901565b9150613d8082613d3f565b602082019050919050565b60006020820190508181036000830152613da481613d68565b9050919050565b7f4552433732313a2061646472657373207a65726f206973206e6f74206120766160008201527f6c6964206f776e65720000000000000000000000000000000000000000000000602082015250565b6000613e07602983612901565b9150613e1282613dab565b604082019050919050565b60006020820190508181036000830152613e3681613dfa565b9050919050565b7f4f726967696e20616c7265616479206578697374730000000000000000000000600082015250565b6000613e73601583612901565b9150613e7e82613e3d565b602082019050919050565b60006020820190508181036000830152613ea281613e66565b9050919050565b7f4f776e61626c653a206e6577206f776e657220697320746865207a65726f206160008201527f6464726573730000000000000000000000000000000000000000000000000000602082015250565b6000613f05602683612901565b9150613f1082613ea9565b604082019050919050565b60006020820190508181036000830152613f3481613ef8565b9050919050565b7f4552433732313a207472616e736665722066726f6d20696e636f72726563742060008201527f6f776e6572000000000000000000000000000000000000000000000000000000602082015250565b6000613f97602583612901565b9150613fa282613f3b565b604082019050919050565b60006020820190508181036000830152613fc681613f8a565b9050919050565b7f4552433732313a207472616e7366657220746f20746865207a65726f2061646460008201527f7265737300000000000000000000000000000000000000000000000000000000602082015250565b6000614029602483612901565b915061403482613fcd565b604082019050919050565b600060208201905081810360008301526140588161401c565b9050919050565b7f546f6b656e20646f6573206e6f74206578697374000000000000000000000000600082015250565b6000614095601483612901565b91506140a08261405f565b602082019050919050565b600060208201905081810360008301526140c481614088565b9050919050565b7f426c6f636b7355493a206163636f756e74200000000000000000000000000000600082015250565b6000614101601283613a64565b915061410c826140cb565b601282019050919050565b7f206973206e6f7420746865206f776e6572206f66200000000000000000000000600082015250565b600061414d601583613a64565b915061415882614117565b601582019050919050565b600061416e826140f4565b915061417a8285613b09565b915061418582614140565b91506141918284613b09565b91508190509392505050565b7f4f776e61626c653a2063616c6c6572206973206e6f7420746865206f776e6572600082015250565b60006141d3602083612901565b91506141de8261419d565b602082019050919050565b60006020820190508181036000830152614202816141c6565b9050919050565b7f4552433732313a20617070726f766520746f2063616c6c657200000000000000600082015250565b600061423f601983612901565b915061424a82614209565b602082019050919050565b6000602082019050818103600083015261426e81614232565b9050919050565b7f4552433732313a207472616e7366657220746f206e6f6e20455243373231526560008201527f63656976657220696d706c656d656e7465720000000000000000000000000000602082015250565b60006142d1603283612901565b91506142dc82614275565b604082019050919050565b60006020820190508181036000830152614300816142c4565b9050919050565b7f4e487b7100000000000000000000000000000000000000000000000000000000600052601260045260246000fd5b6000614341826129a8565b915061434c836129a8565b92508261435c5761435b614307565b5b828204905092915050565b6000614372826129a8565b915061437d836129a8565b92508261438d5761438c614307565b5b828206905092915050565b600081519050919050565b600082825260208201905092915050565b60006143bf82614398565b6143c981856143a3565b93506143d9818560208601612912565b6143e28161293c565b840191505092915050565b60006080820190506144026000830187612a3d565b61440f6020830186612a3d565b61441c6040830185612f05565b818103606083015261442e81846143b4565b905095945050505050565b60008151905061444881612867565b92915050565b60006020828403121561446457614463612831565b5b600061447284828501614439565b91505092915050565b7f4552433732313a206d696e7420746f20746865207a65726f2061646472657373600082015250565b60006144b1602083612901565b91506144bc8261447b565b602082019050919050565b600060208201905081810360008301526144e0816144a4565b9050919050565b7f4552433732313a20746f6b656e20616c7265616479206d696e74656400000000600082015250565b600061451d601c83612901565b9150614528826144e7565b602082019050919050565b6000602082019050818103600083015261454c81614510565b9050919050565b600061455e826129a8565b9150614569836129a8565b9250828202614577816129a8565b9150828204841483151761458e5761458d613408565b5b5092915050565b60006145a0826129a8565b9150600082036145b3576145b2613408565b5b600182039050919050565b7f537472696e67733a20686578206c656e67746820696e73756666696369656e74600082015250565b60006145f4602083612901565b91506145ff826145be565b602082019050919050565b60006020820190508181036000830152614623816145e7565b9050919050565b600081549050614639816131db565b9050919050565b81810361464e575050614726565b6146578261462a565b67ffffffffffffffff8111156146705761466f612b13565b5b61467a82546131db565b61468582828561358a565b6000601f8311600181146146b457600084156146a2578287015490505b6146ac85826135fb565b86555061471f565b601f1984166146c28761346b565b96506146cd8661346b565b60005b828110156146f5578489015482556001820191506001850194506020810190506146d0565b86831015614712578489015461470e601f8916826135dd565b8355505b6001600288020188555050505b5050505050505b56fea2646970667358221220311752b21ecfce0b7107116a2f377b50fc758f49bf742645fdc30d73c6f511a064736f6c63430008110033",
  "linkReferences": {},
  "deployedLinkReferences": {}
}