{
  "address": "0xB78fAB7E333a12d1266a654f9458395aa29A92a3",
  "contractName": "BUILicenseNFT",
  "abi": [
    {
      "inputs": [
        {
          "internalType": "address",
          "name": "marketplaceAddress",
          "type": "address"
        },
        {
          "internalType": "address",
          "name": "blocksNFTAddress",
          "type": "address"
        }
      ],
      "stateMutability": "nonpayable",
      "type": "constructor"
    },
    {
      "anonymous": false,
      "inputs": [
        {
          "indexed": true,
          "internalType": "address",
          "name": "owner",
          "type": "address"
        },
        {
          "indexed": true,
          "internalType": "address",
          "name": "approved",
          "type": "address"
        },
        {
          "indexed": true,
          "internalType": "uint256",
          "name": "tokenId",
          "type": "uint256"
        }
      ],
      "name": "Approval",
      "type": "event"
    },
    {
      "anonymous": false,
      "inputs": [
        {
          "indexed": true,
          "internalType": "address",
          "name": "owner",
          "type": "address"
        },
        {
          "indexed": true,
          "internalType": "address",
          "name": "operator",
          "type": "address"
        },
        {
          "indexed": false,
          "internalType": "bool",
          "name": "approved",
          "type": "bool"
        }
      ],
      "name": "ApprovalForAll",
      "type": "event"
    },
    {
      "anonymous": false,
      "inputs": [
        {
          "indexed": false,
          "internalType": "uint256",
          "name": "tokenId",
          "type": "uint256"
        },
        {
          "indexed": false,
          "internalType": "uint256",
          "name": "duration",
          "type": "uint256"
        },
        {
          "indexed": false,
          "internalType": "bytes32",
          "name": "cid",
          "type": "bytes32"
        }
      ],
      "name": "BUILicensePurchased",
      "type": "event"
    },
    {
      "anonymous": false,
      "inputs": [
        {
          "indexed": true,
          "internalType": "address",
          "name": "previousOwner",
          "type": "address"
        },
        {
          "indexed": true,
          "internalType": "address",
          "name": "newOwner",
          "type": "address"
        }
      ],
      "name": "OwnershipTransferred",
      "type": "event"
    },
    {
      "anonymous": false,
      "inputs": [
        {
          "indexed": true,
          "internalType": "address",
          "name": "from",
          "type": "address"
        },
        {
          "indexed": true,
          "internalType": "address",
          "name": "to",
          "type": "address"
        },
        {
          "indexed": true,
          "internalType": "uint256",
          "name": "tokenId",
          "type": "uint256"
        }
      ],
      "name": "Transfer",
      "type": "event"
    },
    {
      "inputs": [
        {
          "internalType": "address",
          "name": "to",
          "type": "address"
        },
        {
          "internalType": "uint256",
          "name": "tokenId",
          "type": "uint256"
        }
      ],
      "name": "approve",
      "outputs": [],
      "stateMutability": "nonpayable",
      "type": "function"
    },
    {
      "inputs": [
        {
          "internalType": "address",
          "name": "owner",
          "type": "address"
        }
      ],
      "name": "balanceOf",
      "outputs": [
        {
          "internalType": "uint256",
          "name": "",
          "type": "uint256"
        }
      ],
      "stateMutability": "view",
      "type": "function"
    },
    {
      "inputs": [
        {
          "internalType": "uint256",
          "name": "tokenId",
          "type": "uint256"
        }
      ],
      "name": "getApproved",
      "outputs": [
        {
          "internalType": "address",
          "name": "",
          "type": "address"
        }
      ],
      "stateMutability": "view",
      "type": "function"
    },
    {
      "inputs": [
        {
          "internalType": "address",
          "name": "owner",
          "type": "address"
        },
        {
          "internalType": "address",
          "name": "operator",
          "type": "address"
        }
      ],
      "name": "isApprovedForAll",
      "outputs": [
        {
          "internalType": "bool",
          "name": "",
          "type": "bool"
        }
      ],
      "stateMutability": "view",
      "type": "function"
    },
    {
      "inputs": [],
      "name": "name",
      "outputs": [
        {
          "internalType": "string",
          "name": "",
          "type": "string"
        }
      ],
      "stateMutability": "view",
      "type": "function"
    },
    {
      "inputs": [],
      "name": "owner",
      "outputs": [
        {
          "internalType": "address",
          "name": "",
          "type": "address"
        }
      ],
      "stateMutability": "view",
      "type": "function"
    },
    {
      "inputs": [
        {
          "internalType": "uint256",
          "name": "tokenId",
          "type": "uint256"
        }
      ],
      "name": "ownerOf",
      "outputs": [
        {
          "internalType": "address",
          "name": "",
          "type": "address"
        }
      ],
      "stateMutability": "view",
      "type": "function"
    },
    {
      "inputs": [
        {
          "internalType": "uint256",
          "name": "blockId",
          "type": "uint256"
        },
        {
          "internalType": "uint256",
          "name": "duration",
          "type": "uint256"
        },
        {
          "internalType": "bytes32",
          "name": "origin",
          "type": "bytes32"
        }
      ],
      "name": "purchaseLicense",
      "outputs": [],
      "stateMutability": "payable",
      "type": "function"
    },
    {
      "inputs": [],
      "name": "renounceOwnership",
      "outputs": [],
      "stateMutability": "nonpayable",
      "type": "function"
    },
    {
      "inputs": [
        {
          "internalType": "address",
          "name": "from",
          "type": "address"
        },
        {
          "internalType": "address",
          "name": "to",
          "type": "address"
        },
        {
          "internalType": "uint256",
          "name": "tokenId",
          "type": "uint256"
        }
      ],
      "name": "safeTransferFrom",
      "outputs": [],
      "stateMutability": "nonpayable",
      "type": "function"
    },
    {
      "inputs": [
        {
          "internalType": "address",
          "name": "from",
          "type": "address"
        },
        {
          "internalType": "address",
          "name": "to",
          "type": "address"
        },
        {
          "internalType": "uint256",
          "name": "tokenId",
          "type": "uint256"
        },
        {
          "internalType": "bytes",
          "name": "data",
          "type": "bytes"
        }
      ],
      "name": "safeTransferFrom",
      "outputs": [],
      "stateMutability": "nonpayable",
      "type": "function"
    },
    {
      "inputs": [
        {
          "internalType": "address",
          "name": "operator",
          "type": "address"
        },
        {
          "internalType": "bool",
          "name": "approved",
          "type": "bool"
        }
      ],
      "name": "setApprovalForAll",
      "outputs": [],
      "stateMutability": "nonpayable",
      "type": "function"
    },
    {
      "inputs": [
        {
          "internalType": "bytes4",
          "name": "interfaceId",
          "type": "bytes4"
        }
      ],
      "name": "supportsInterface",
      "outputs": [
        {
          "internalType": "bool",
          "name": "",
          "type": "bool"
        }
      ],
      "stateMutability": "view",
      "type": "function"
    },
    {
      "inputs": [],
      "name": "symbol",
      "outputs": [
        {
          "internalType": "string",
          "name": "",
          "type": "string"
        }
      ],
      "stateMutability": "view",
      "type": "function"
    },
    {
      "inputs": [
        {
          "internalType": "uint256",
          "name": "tokenId",
          "type": "uint256"
        }
      ],
      "name": "tokenURI",
      "outputs": [
        {
          "internalType": "string",
          "name": "",
          "type": "string"
        }
      ],
      "stateMutability": "view",
      "type": "function"
    },
    {
      "inputs": [
        {
          "internalType": "address",
          "name": "from",
          "type": "address"
        },
        {
          "internalType": "address",
          "name": "to",
          "type": "address"
        },
        {
          "internalType": "uint256",
          "name": "tokenId",
          "type": "uint256"
        }
      ],
      "name": "transferFrom",
      "outputs": [],
      "stateMutability": "nonpayable",
      "type": "function"
    },
    {
      "inputs": [
        {
          "internalType": "address",
          "name": "newOwner",
          "type": "address"
        }
      ],
      "name": "transferOwnership",
      "outputs": [],
      "stateMutability": "nonpayable",
      "type": "function"
    },
    {
      "inputs": [
        {
          "internalType": "uint256",
          "name": "tokenId",
          "type": "uint256"
        },
        {
          "internalType": "bytes32",
          "name": "origin",
          "type": "bytes32"
        }
      ],
      "name": "verifyOrigin",
      "outputs": [
        {
          "internalType": "bool",
          "name": "",
          "type": "bool"
        }
      ],
      "stateMutability": "view",
      "type": "function"
    },
    {
      "inputs": [
        {
          "internalType": "bytes32",
          "name": "cid",
          "type": "bytes32"
        },
        {
          "internalType": "address",
          "name": "owner",
          "type": "address"
        }
      ],
      "name": "verifyOwner",
      "outputs": [
        {
          "internalType": "bool",
          "name": "",
          "type": "bool"
        }
      ],
      "stateMutability": "view",
      "type": "function"
    },
    {
      "inputs": [],
      "name": "withdraw",
      "outputs": [],
      "stateMutability": "nonpayable",
      "type": "function"
    }
  ],
  "bytecode": "0x60806040523480156200001157600080fd5b5060405162003e6638038062003e668339818101604052810190620000379190620002ab565b6040518060400160405280601181526020017f426c6f636b73205549204c6963656e73650000000000000000000000000000008152506040518060400160405280600481526020017f4255494c000000000000000000000000000000000000000000000000000000008152508160009081620000b491906200056c565b508060019081620000c691906200056c565b505050620000e9620000dd6200017360201b60201c565b6200017b60201b60201c565b81600860006101000a81548173ffffffffffffffffffffffffffffffffffffffff021916908373ffffffffffffffffffffffffffffffffffffffff16021790555080600960006101000a81548173ffffffffffffffffffffffffffffffffffffffff021916908373ffffffffffffffffffffffffffffffffffffffff160217905550505062000653565b600033905090565b6000600660009054906101000a900473ffffffffffffffffffffffffffffffffffffffff16905081600660006101000a81548173ffffffffffffffffffffffffffffffffffffffff021916908373ffffffffffffffffffffffffffffffffffffffff1602179055508173ffffffffffffffffffffffffffffffffffffffff168173ffffffffffffffffffffffffffffffffffffffff167f8be0079c531659141344cd1fd0a4f28419497f9722a3daafe3b4186f6b6457e060405160405180910390a35050565b600080fd5b600073ffffffffffffffffffffffffffffffffffffffff82169050919050565b6000620002738262000246565b9050919050565b620002858162000266565b81146200029157600080fd5b50565b600081519050620002a5816200027a565b92915050565b60008060408385031215620002c557620002c462000241565b5b6000620002d58582860162000294565b9250506020620002e88582860162000294565b9150509250929050565b600081519050919050565b7f4e487b7100000000000000000000000000000000000000000000000000000000600052604160045260246000fd5b7f4e487b7100000000000000000000000000000000000000000000000000000000600052602260045260246000fd5b600060028204905060018216806200037457607f821691505b6020821081036200038a57620003896200032c565b5b50919050565b60008190508160005260206000209050919050565b60006020601f8301049050919050565b600082821b905092915050565b600060088302620003f47fffffffffffffffffffffffffffffffffffffffffffffffffffffffffffffffff82620003b5565b620004008683620003b5565b95508019841693508086168417925050509392505050565b6000819050919050565b6000819050919050565b60006200044d62000447620004418462000418565b62000422565b62000418565b9050919050565b6000819050919050565b62000469836200042c565b62000481620004788262000454565b848454620003c2565b825550505050565b600090565b6200049862000489565b620004a58184846200045e565b505050565b5b81811015620004cd57620004c16000826200048e565b600181019050620004ab565b5050565b601f8211156200051c57620004e68162000390565b620004f184620003a5565b8101602085101562000501578190505b620005196200051085620003a5565b830182620004aa565b50505b505050565b600082821c905092915050565b6000620005416000198460080262000521565b1980831691505092915050565b60006200055c83836200052e565b9150826002028217905092915050565b6200057782620002f2565b67ffffffffffffffff811115620005935762000592620002fd565b5b6200059f82546200035b565b620005ac828285620004d1565b600060209050601f831160018114620005e45760008415620005cf578287015190505b620005db85826200054e565b8655506200064b565b601f198416620005f48662000390565b60005b828110156200061e57848901518255600182019150602085019450602081019050620005f7565b868310156200063e57848901516200063a601f8916826200052e565b8355505b6001600288020188555050505b505050505050565b61380380620006636000396000f3fe60806040526004361061011f5760003560e01c806370a08231116100a0578063a22cb46511610064578063a22cb465146103d8578063b88d4fde14610401578063c87b56dd1461042a578063e985e9c514610467578063f2fde38b146104a45761011f565b806370a08231146102f1578063715018a61461032e5780638da5cb5b146103455780638f04409c1461037057806395d89b41146103ad5761011f565b806323b872dd116100e757806323b872dd1461020e5780633ccfd60b1461023757806342842e0e1461024e578063498b4130146102775780636352211e146102b45761011f565b806301ffc9a71461012457806306fdde0314610161578063081812fc1461018c578063095ea7b3146101c9578063194be978146101f2575b600080fd5b34801561013057600080fd5b5061014b60048036038101906101469190612236565b6104cd565b604051610158919061227e565b60405180910390f35b34801561016d57600080fd5b506101766105af565b6040516101839190612329565b60405180910390f35b34801561019857600080fd5b506101b360048036038101906101ae9190612381565b610641565b6040516101c091906123ef565b60405180910390f35b3480156101d557600080fd5b506101f060048036038101906101eb9190612436565b610687565b005b61020c600480360381019061020791906124ac565b61079e565b005b34801561021a57600080fd5b50610235600480360381019061023091906124ff565b610dd4565b005b34801561024357600080fd5b5061024c610e34565b005b34801561025a57600080fd5b50610275600480360381019061027091906124ff565b610e92565b005b34801561028357600080fd5b5061029e60048036038101906102999190612552565b610eb2565b6040516102ab919061227e565b60405180910390f35b3480156102c057600080fd5b506102db60048036038101906102d69190612381565b610fb1565b6040516102e891906123ef565b60405180910390f35b3480156102fd57600080fd5b5061031860048036038101906103139190612592565b611062565b60405161032591906125ce565b60405180910390f35b34801561033a57600080fd5b50610343611119565b005b34801561035157600080fd5b5061035a61112d565b60405161036791906123ef565b60405180910390f35b34801561037c57600080fd5b50610397600480360381019061039291906125e9565b611157565b6040516103a4919061227e565b60405180910390f35b3480156103b957600080fd5b506103c261117a565b6040516103cf9190612329565b60405180910390f35b3480156103e457600080fd5b506103ff60048036038101906103fa9190612655565b61120c565b005b34801561040d57600080fd5b50610428600480360381019061042391906127ca565b611222565b005b34801561043657600080fd5b50610451600480360381019061044c9190612381565b611284565b60405161045e9190612329565b60405180910390f35b34801561047357600080fd5b5061048e6004803603810190610489919061284d565b6112ec565b60405161049b919061227e565b60405180910390f35b3480156104b057600080fd5b506104cb60048036038101906104c69190612592565b611380565b005b60007f80ac58cd000000000000000000000000000000000000000000000000000000007bffffffffffffffffffffffffffffffffffffffffffffffffffffffff1916827bffffffffffffffffffffffffffffffffffffffffffffffffffffffff1916148061059857507f5b5e139f000000000000000000000000000000000000000000000000000000007bffffffffffffffffffffffffffffffffffffffffffffffffffffffff1916827bffffffffffffffffffffffffffffffffffffffffffffffffffffffff1916145b806105a857506105a782611403565b5b9050919050565b6060600080546105be906128bc565b80601f01602080910402602001604051908101604052809291908181526020018280546105ea906128bc565b80156106375780601f1061060c57610100808354040283529160200191610637565b820191906000526020600020905b81548152906001019060200180831161061a57829003601f168201915b5050505050905090565b600061064c8261146d565b6004600083815260200190815260200160002060009054906101000a900473ffffffffffffffffffffffffffffffffffffffff169050919050565b600061069282610fb1565b90508073ffffffffffffffffffffffffffffffffffffffff168373ffffffffffffffffffffffffffffffffffffffff1603610702576040517f08c379a00000000000000000000000000000000000000000000000000000000081526004016106f99061295f565b60405180910390fd5b8073ffffffffffffffffffffffffffffffffffffffff166107216114b8565b73ffffffffffffffffffffffffffffffffffffffff161480610750575061074f8161074a6114b8565b6112ec565b5b61078f576040517f08c379a0000000000000000000000000000000000000000000000000000000008152600401610786906129f1565b60405180910390fd5b61079983836114c0565b505050565b600073ffffffffffffffffffffffffffffffffffffffff16600960009054906101000a900473ffffffffffffffffffffffffffffffffffffffff1673ffffffffffffffffffffffffffffffffffffffff16636352211e856040518263ffffffff1660e01b815260040161081191906125ce565b602060405180830381865afa15801561082e573d6000803e3d6000fd5b505050506040513d601f19601f820116820180604052508101906108529190612a26565b73ffffffffffffffffffffffffffffffffffffffff16036108a8576040517f08c379a000000000000000000000000000000000000000000000000000000000815260040161089f90612a9f565b60405180910390fd5b3373ffffffffffffffffffffffffffffffffffffffff16600960009054906101000a900473ffffffffffffffffffffffffffffffffffffffff1673ffffffffffffffffffffffffffffffffffffffff16636352211e856040518263ffffffff1660e01b815260040161091a91906125ce565b602060405180830381865afa158015610937573d6000803e3d6000fd5b505050506040513d601f19601f8201168201806040525081019061095b9190612a26565b73ffffffffffffffffffffffffffffffffffffffff16036109b1576040517f08c379a00000000000000000000000000000000000000000000000000000000081526004016109a890612b31565b60405180910390fd5b6000600860009054906101000a900473ffffffffffffffffffffffffffffffffffffffff1673ffffffffffffffffffffffffffffffffffffffff1663dbc89251856040518263ffffffff1660e01b8152600401610a0e91906125ce565b600060405180830381865afa158015610a2b573d6000803e3d6000fd5b505050506040513d6000823e3d601f19601f82011682018060405250810190610a549190612d0c565b90506000600960009054906101000a900473ffffffffffffffffffffffffffffffffffffffff1673ffffffffffffffffffffffffffffffffffffffff16634c23b253866040518263ffffffff1660e01b8152600401610ab391906125ce565b602060405180830381865afa158015610ad0573d6000803e3d6000fd5b505050506040513d601f19601f82011682018060405250810190610af49190612d6a565b9050600073ffffffffffffffffffffffffffffffffffffffff16826020015173ffffffffffffffffffffffffffffffffffffffff1603610b69576040517f08c379a0000000000000000000000000000000000000000000000000000000008152600401610b6090612de3565b60405180910390fd5b8160800151610bad576040517f08c379a0000000000000000000000000000000000000000000000000000000008152600401610ba490612e4f565b60405180910390fd5b60008260400151610bc18662015180611579565b610bcb9190612e9e565b905080341015610c10576040517f08c379a0000000000000000000000000000000000000000000000000000000008152600401610c0790612f2c565b60405180910390fd5b6000610c1c60076115b6565b9050610c3433600183610c2f9190612f4c565b6115c4565b610c3e60076115e2565b600a60008481526020019081526020016000208190806001815401808255809150506001900390600052602060002001600090919091909150556040518060a001604052808881526020018481526020018742610c9b9190612f4c565b81526020013373ffffffffffffffffffffffffffffffffffffffff16815260200186815250600b600083815260200190815260200160002060008201518160000155602082015181600101556040820151816002015560608201518160030160006101000a81548173ffffffffffffffffffffffffffffffffffffffff021916908373ffffffffffffffffffffffffffffffffffffffff16021790555060808201518160040155905050836020015173ffffffffffffffffffffffffffffffffffffffff166108fc839081150290604051600060405180830381858888f19350505050158015610d8f573d6000803e3d6000fd5b507fcfcaff2712cc92c875bb456c4ff9523fc10be3ffba3aa4cd448e0046ccd62690818785604051610dc393929190612f8f565b60405180910390a150505050505050565b610de5610ddf6114b8565b826115f8565b610e24576040517f08c379a0000000000000000000000000000000000000000000000000000000008152600401610e1b90613038565b60405180910390fd5b610e2f83838361168d565b505050565b610e3c6118f3565b6000479050610e4961112d565b73ffffffffffffffffffffffffffffffffffffffff166108fc829081150290604051600060405180830381858888f19350505050158015610e8e573d6000803e3d6000fd5b5050565b610ead83838360405180602001604052806000815250611222565b505050565b600080600090505b600a600085815260200190815260200160002080549050811015610fa5576000600b6000600a60008881526020019081526020016000208481548110610f0357610f02613058565b5b90600052602060002001548152602001908152602001600020905042816002015411158015610f8157508373ffffffffffffffffffffffffffffffffffffffff168160030160009054906101000a900473ffffffffffffffffffffffffffffffffffffffff1673ffffffffffffffffffffffffffffffffffffffff16145b15610f9157600192505050610fab565b508080610f9d90613087565b915050610eba565b50600090505b92915050565b6000806002600084815260200190815260200160002060009054906101000a900473ffffffffffffffffffffffffffffffffffffffff169050600073ffffffffffffffffffffffffffffffffffffffff168173ffffffffffffffffffffffffffffffffffffffff1603611059576040517f08c379a00000000000000000000000000000000000000000000000000000000081526004016110509061311b565b60405180910390fd5b80915050919050565b60008073ffffffffffffffffffffffffffffffffffffffff168273ffffffffffffffffffffffffffffffffffffffff16036110d2576040517f08c379a00000000000000000000000000000000000000000000000000000000081526004016110c9906131ad565b60405180910390fd5b600360008373ffffffffffffffffffffffffffffffffffffffff1673ffffffffffffffffffffffffffffffffffffffff168152602001908152602001600020549050919050565b6111216118f3565b61112b6000611971565b565b6000600660009054906101000a900473ffffffffffffffffffffffffffffffffffffffff16905090565b600081600b60008581526020019081526020016000206004015414905092915050565b606060018054611189906128bc565b80601f01602080910402602001604051908101604052809291908181526020018280546111b5906128bc565b80156112025780601f106111d757610100808354040283529160200191611202565b820191906000526020600020905b8154815290600101906020018083116111e557829003601f168201915b5050505050905090565b61121e6112176114b8565b8383611a37565b5050565b61123361122d6114b8565b836115f8565b611272576040517f08c379a000000000000000000000000000000000000000000000000000000000815260040161126990613038565b60405180910390fd5b61127e84848484611ba3565b50505050565b606061128f8261146d565b6000611299611bff565b905060008151116112b957604051806020016040528060008152506112e4565b806112c384611c16565b6040516020016112d4929190613209565b6040516020818303038152906040525b915050919050565b6000600560008473ffffffffffffffffffffffffffffffffffffffff1673ffffffffffffffffffffffffffffffffffffffff16815260200190815260200160002060008373ffffffffffffffffffffffffffffffffffffffff1673ffffffffffffffffffffffffffffffffffffffff16815260200190815260200160002060009054906101000a900460ff16905092915050565b6113886118f3565b600073ffffffffffffffffffffffffffffffffffffffff168173ffffffffffffffffffffffffffffffffffffffff16036113f7576040517f08c379a00000000000000000000000000000000000000000000000000000000081526004016113ee9061329f565b60405180910390fd5b61140081611971565b50565b60007f01ffc9a7000000000000000000000000000000000000000000000000000000007bffffffffffffffffffffffffffffffffffffffffffffffffffffffff1916827bffffffffffffffffffffffffffffffffffffffffffffffffffffffff1916149050919050565b61147681611d76565b6114b5576040517f08c379a00000000000000000000000000000000000000000000000000000000081526004016114ac9061311b565b60405180910390fd5b50565b600033905090565b816004600083815260200190815260200160002060006101000a81548173ffffffffffffffffffffffffffffffffffffffff021916908373ffffffffffffffffffffffffffffffffffffffff160217905550808273ffffffffffffffffffffffffffffffffffffffff1661153383610fb1565b73ffffffffffffffffffffffffffffffffffffffff167f8c5be1e5ebec7d5bd14f71427d1e84f3dd0314c0f7b2291e5b200ac8c7c3b92560405160405180910390a45050565b60008083146115ab5760018260018561159291906132bf565b61159c9190613322565b6115a69190612f4c565b6115ae565b60005b905092915050565b600081600001549050919050565b6115de828260405180602001604052806000815250611de2565b5050565b6001816000016000828254019250508190555050565b60008061160483610fb1565b90508073ffffffffffffffffffffffffffffffffffffffff168473ffffffffffffffffffffffffffffffffffffffff161480611646575061164581856112ec565b5b8061168457508373ffffffffffffffffffffffffffffffffffffffff1661166c84610641565b73ffffffffffffffffffffffffffffffffffffffff16145b91505092915050565b8273ffffffffffffffffffffffffffffffffffffffff166116ad82610fb1565b73ffffffffffffffffffffffffffffffffffffffff1614611703576040517f08c379a00000000000000000000000000000000000000000000000000000000081526004016116fa906133c5565b60405180910390fd5b600073ffffffffffffffffffffffffffffffffffffffff168273ffffffffffffffffffffffffffffffffffffffff1603611772576040517f08c379a000000000000000000000000000000000000000000000000000000000815260040161176990613457565b60405180910390fd5b61177d838383611e3d565b6117886000826114c0565b6001600360008573ffffffffffffffffffffffffffffffffffffffff1673ffffffffffffffffffffffffffffffffffffffff16815260200190815260200160002060008282546117d891906132bf565b925050819055506001600360008473ffffffffffffffffffffffffffffffffffffffff1673ffffffffffffffffffffffffffffffffffffffff168152602001908152602001600020600082825461182f9190612f4c565b92505081905550816002600083815260200190815260200160002060006101000a81548173ffffffffffffffffffffffffffffffffffffffff021916908373ffffffffffffffffffffffffffffffffffffffff160217905550808273ffffffffffffffffffffffffffffffffffffffff168473ffffffffffffffffffffffffffffffffffffffff167fddf252ad1be2c89b69c2b068fc378daa952ba7f163c4a11628f55a4df523b3ef60405160405180910390a46118ee838383611e42565b505050565b6118fb6114b8565b73ffffffffffffffffffffffffffffffffffffffff1661191961112d565b73ffffffffffffffffffffffffffffffffffffffff161461196f576040517f08c379a0000000000000000000000000000000000000000000000000000000008152600401611966906134c3565b60405180910390fd5b565b6000600660009054906101000a900473ffffffffffffffffffffffffffffffffffffffff16905081600660006101000a81548173ffffffffffffffffffffffffffffffffffffffff021916908373ffffffffffffffffffffffffffffffffffffffff1602179055508173ffffffffffffffffffffffffffffffffffffffff168173ffffffffffffffffffffffffffffffffffffffff167f8be0079c531659141344cd1fd0a4f28419497f9722a3daafe3b4186f6b6457e060405160405180910390a35050565b8173ffffffffffffffffffffffffffffffffffffffff168373ffffffffffffffffffffffffffffffffffffffff1603611aa5576040517f08c379a0000000000000000000000000000000000000000000000000000000008152600401611a9c9061352f565b60405180910390fd5b80600560008573ffffffffffffffffffffffffffffffffffffffff1673ffffffffffffffffffffffffffffffffffffffff16815260200190815260200160002060008473ffffffffffffffffffffffffffffffffffffffff1673ffffffffffffffffffffffffffffffffffffffff16815260200190815260200160002060006101000a81548160ff0219169083151502179055508173ffffffffffffffffffffffffffffffffffffffff168373ffffffffffffffffffffffffffffffffffffffff167f17307eab39ab6107e8899845ad3d59bd9653f200f220920489ca2b5937696c3183604051611b96919061227e565b60405180910390a3505050565b611bae84848461168d565b611bba84848484611e47565b611bf9576040517f08c379a0000000000000000000000000000000000000000000000000000000008152600401611bf0906135c1565b60405180910390fd5b50505050565b606060405180602001604052806000815250905090565b606060008203611c5d576040518060400160405280600181526020017f30000000000000000000000000000000000000000000000000000000000000008152509050611d71565b600082905060005b60008214611c8f578080611c7890613087565b915050600a82611c889190613322565b9150611c65565b60008167ffffffffffffffff811115611cab57611caa61269f565b5b6040519080825280601f01601f191660200182016040528015611cdd5781602001600182028036833780820191505090505b5090505b60008514611d6a57600182611cf691906132bf565b9150600a85611d0591906135e1565b6030611d119190612f4c565b60f81b818381518110611d2757611d26613058565b5b60200101907effffffffffffffffffffffffffffffffffffffffffffffffffffffffffffff1916908160001a905350600a85611d639190613322565b9450611ce1565b8093505050505b919050565b60008073ffffffffffffffffffffffffffffffffffffffff166002600084815260200190815260200160002060009054906101000a900473ffffffffffffffffffffffffffffffffffffffff1673ffffffffffffffffffffffffffffffffffffffff1614159050919050565b611dec8383611fce565b611df96000848484611e47565b611e38576040517f08c379a0000000000000000000000000000000000000000000000000000000008152600401611e2f906135c1565b60405180910390fd5b505050565b505050565b505050565b6000611e688473ffffffffffffffffffffffffffffffffffffffff166121a7565b15611fc1578373ffffffffffffffffffffffffffffffffffffffff1663150b7a02611e916114b8565b8786866040518563ffffffff1660e01b8152600401611eb39493929190613667565b6020604051808303816000875af1925050508015611eef57506040513d601f19601f82011682018060405250810190611eec91906136c8565b60015b611f71573d8060008114611f1f576040519150601f19603f3d011682016040523d82523d6000602084013e611f24565b606091505b506000815103611f69576040517f08c379a0000000000000000000000000000000000000000000000000000000008152600401611f60906135c1565b60405180910390fd5b805181602001fd5b63150b7a0260e01b7bffffffffffffffffffffffffffffffffffffffffffffffffffffffff1916817bffffffffffffffffffffffffffffffffffffffffffffffffffffffff191614915050611fc6565b600190505b949350505050565b600073ffffffffffffffffffffffffffffffffffffffff168273ffffffffffffffffffffffffffffffffffffffff160361203d576040517f08c379a000000000000000000000000000000000000000000000000000000000815260040161203490613741565b60405180910390fd5b61204681611d76565b15612086576040517f08c379a000000000000000000000000000000000000000000000000000000000815260040161207d906137ad565b60405180910390fd5b61209260008383611e3d565b6001600360008473ffffffffffffffffffffffffffffffffffffffff1673ffffffffffffffffffffffffffffffffffffffff16815260200190815260200160002060008282546120e29190612f4c565b92505081905550816002600083815260200190815260200160002060006101000a81548173ffffffffffffffffffffffffffffffffffffffff021916908373ffffffffffffffffffffffffffffffffffffffff160217905550808273ffffffffffffffffffffffffffffffffffffffff16600073ffffffffffffffffffffffffffffffffffffffff167fddf252ad1be2c89b69c2b068fc378daa952ba7f163c4a11628f55a4df523b3ef60405160405180910390a46121a360008383611e42565b5050565b6000808273ffffffffffffffffffffffffffffffffffffffff163b119050919050565b6000604051905090565b600080fd5b600080fd5b60007fffffffff0000000000000000000000000000000000000000000000000000000082169050919050565b612213816121de565b811461221e57600080fd5b50565b6000813590506122308161220a565b92915050565b60006020828403121561224c5761224b6121d4565b5b600061225a84828501612221565b91505092915050565b60008115159050919050565b61227881612263565b82525050565b6000602082019050612293600083018461226f565b92915050565b600081519050919050565b600082825260208201905092915050565b60005b838110156122d35780820151818401526020810190506122b8565b60008484015250505050565b6000601f19601f8301169050919050565b60006122fb82612299565b61230581856122a4565b93506123158185602086016122b5565b61231e816122df565b840191505092915050565b6000602082019050818103600083015261234381846122f0565b905092915050565b6000819050919050565b61235e8161234b565b811461236957600080fd5b50565b60008135905061237b81612355565b92915050565b600060208284031215612397576123966121d4565b5b60006123a58482850161236c565b91505092915050565b600073ffffffffffffffffffffffffffffffffffffffff82169050919050565b60006123d9826123ae565b9050919050565b6123e9816123ce565b82525050565b600060208201905061240460008301846123e0565b92915050565b612413816123ce565b811461241e57600080fd5b50565b6000813590506124308161240a565b92915050565b6000806040838503121561244d5761244c6121d4565b5b600061245b85828601612421565b925050602061246c8582860161236c565b9150509250929050565b6000819050919050565b61248981612476565b811461249457600080fd5b50565b6000813590506124a681612480565b92915050565b6000806000606084860312156124c5576124c46121d4565b5b60006124d38682870161236c565b93505060206124e48682870161236c565b92505060406124f586828701612497565b9150509250925092565b600080600060608486031215612518576125176121d4565b5b600061252686828701612421565b935050602061253786828701612421565b92505060406125488682870161236c565b9150509250925092565b60008060408385031215612569576125686121d4565b5b600061257785828601612497565b925050602061258885828601612421565b9150509250929050565b6000602082840312156125a8576125a76121d4565b5b60006125b684828501612421565b91505092915050565b6125c88161234b565b82525050565b60006020820190506125e360008301846125bf565b92915050565b60008060408385031215612600576125ff6121d4565b5b600061260e8582860161236c565b925050602061261f85828601612497565b9150509250929050565b61263281612263565b811461263d57600080fd5b50565b60008135905061264f81612629565b92915050565b6000806040838503121561266c5761266b6121d4565b5b600061267a85828601612421565b925050602061268b85828601612640565b9150509250929050565b600080fd5b600080fd5b7f4e487b7100000000000000000000000000000000000000000000000000000000600052604160045260246000fd5b6126d7826122df565b810181811067ffffffffffffffff821117156126f6576126f561269f565b5b80604052505050565b60006127096121ca565b905061271582826126ce565b919050565b600067ffffffffffffffff8211156127355761273461269f565b5b61273e826122df565b9050602081019050919050565b82818337600083830152505050565b600061276d6127688461271a565b6126ff565b9050828152602081018484840111156127895761278861269a565b5b61279484828561274b565b509392505050565b600082601f8301126127b1576127b0612695565b5b81356127c184826020860161275a565b91505092915050565b600080600080608085870312156127e4576127e36121d4565b5b60006127f287828801612421565b945050602061280387828801612421565b93505060406128148782880161236c565b925050606085013567ffffffffffffffff811115612835576128346121d9565b5b6128418782880161279c565b91505092959194509250565b60008060408385031215612864576128636121d4565b5b600061287285828601612421565b925050602061288385828601612421565b9150509250929050565b7f4e487b7100000000000000000000000000000000000000000000000000000000600052602260045260246000fd5b600060028204905060018216806128d457607f821691505b6020821081036128e7576128e661288d565b5b50919050565b7f4552433732313a20617070726f76616c20746f2063757272656e74206f776e6560008201527f7200000000000000000000000000000000000000000000000000000000000000602082015250565b60006129496021836122a4565b9150612954826128ed565b604082019050919050565b600060208201905081810360008301526129788161293c565b9050919050565b7f4552433732313a20617070726f76652063616c6c6572206973206e6f7420746f60008201527f6b656e206f776e6572206e6f7220617070726f76656420666f7220616c6c0000602082015250565b60006129db603e836122a4565b91506129e68261297f565b604082019050919050565b60006020820190508181036000830152612a0a816129ce565b9050919050565b600081519050612a208161240a565b92915050565b600060208284031215612a3c57612a3b6121d4565b5b6000612a4a84828501612a11565b91505092915050565b7f426c6f636b20646f6573206e6f74206578697374000000000000000000000000600082015250565b6000612a896014836122a4565b9150612a9482612a53565b602082019050919050565b60006020820190508181036000830152612ab881612a7c565b9050919050565b7f4c6963656e7365206e6f7420726571756972656420666f7220426c6f636b206f60008201527f776e657200000000000000000000000000000000000000000000000000000000602082015250565b6000612b1b6024836122a4565b9150612b2682612abf565b604082019050919050565b60006020820190508181036000830152612b4a81612b0e565b9050919050565b600080fd5b600080fd5b600067ffffffffffffffff821115612b7657612b7561269f565b5b612b7f826122df565b9050602081019050919050565b6000612b9f612b9a84612b5b565b6126ff565b905082815260208101848484011115612bbb57612bba61269a565b5b612bc68482856122b5565b509392505050565b600082601f830112612be357612be2612695565b5b8151612bf3848260208601612b8c565b91505092915050565b6000612c07826123ae565b9050919050565b612c1781612bfc565b8114612c2257600080fd5b50565b600081519050612c3481612c0e565b92915050565b600081519050612c4981612355565b92915050565b600081519050612c5e81612629565b92915050565b600060a08284031215612c7a57612c79612b51565b5b612c8460a06126ff565b9050600082015167ffffffffffffffff811115612ca457612ca3612b56565b5b612cb084828501612bce565b6000830152506020612cc484828501612c25565b6020830152506040612cd884828501612c3a565b6040830152506060612cec84828501612c3a565b6060830152506080612d0084828501612c4f565b60808301525092915050565b600060208284031215612d2257612d216121d4565b5b600082015167ffffffffffffffff811115612d4057612d3f6121d9565b5b612d4c84828501612c64565b91505092915050565b600081519050612d6481612480565b92915050565b600060208284031215612d8057612d7f6121d4565b5b6000612d8e84828501612d55565b91505092915050565b7f4e6f206c697374696e6720666f72207468697320426c6f636b00000000000000600082015250565b6000612dcd6019836122a4565b9150612dd882612d97565b602082019050919050565b60006020820190508181036000830152612dfc81612dc0565b9050919050565b7f426c6f636b2063616e6e6f74206265206c6963656e7365640000000000000000600082015250565b6000612e396018836122a4565b9150612e4482612e03565b602082019050919050565b60006020820190508181036000830152612e6881612e2c565b9050919050565b7f4e487b7100000000000000000000000000000000000000000000000000000000600052601160045260246000fd5b6000612ea98261234b565b9150612eb48361234b565b9250828202612ec28161234b565b91508282048414831517612ed957612ed8612e6f565b5b5092915050565b7f496e73756666696369656e742066756e647320666f72206c6963656e73650000600082015250565b6000612f16601e836122a4565b9150612f2182612ee0565b602082019050919050565b60006020820190508181036000830152612f4581612f09565b9050919050565b6000612f578261234b565b9150612f628361234b565b9250828201905080821115612f7a57612f79612e6f565b5b92915050565b612f8981612476565b82525050565b6000606082019050612fa460008301866125bf565b612fb160208301856125bf565b612fbe6040830184612f80565b949350505050565b7f4552433732313a2063616c6c6572206973206e6f7420746f6b656e206f776e6560008201527f72206e6f7220617070726f766564000000000000000000000000000000000000602082015250565b6000613022602e836122a4565b915061302d82612fc6565b604082019050919050565b6000602082019050818103600083015261305181613015565b9050919050565b7f4e487b7100000000000000000000000000000000000000000000000000000000600052603260045260246000fd5b60006130928261234b565b91507fffffffffffffffffffffffffffffffffffffffffffffffffffffffffffffffff82036130c4576130c3612e6f565b5b600182019050919050565b7f4552433732313a20696e76616c696420746f6b656e2049440000000000000000600082015250565b60006131056018836122a4565b9150613110826130cf565b602082019050919050565b60006020820190508181036000830152613134816130f8565b9050919050565b7f4552433732313a2061646472657373207a65726f206973206e6f74206120766160008201527f6c6964206f776e65720000000000000000000000000000000000000000000000602082015250565b60006131976029836122a4565b91506131a28261313b565b604082019050919050565b600060208201905081810360008301526131c68161318a565b9050919050565b600081905092915050565b60006131e382612299565b6131ed81856131cd565b93506131fd8185602086016122b5565b80840191505092915050565b600061321582856131d8565b915061322182846131d8565b91508190509392505050565b7f4f776e61626c653a206e6577206f776e657220697320746865207a65726f206160008201527f6464726573730000000000000000000000000000000000000000000000000000602082015250565b60006132896026836122a4565b91506132948261322d565b604082019050919050565b600060208201905081810360008301526132b88161327c565b9050919050565b60006132ca8261234b565b91506132d58361234b565b92508282039050818111156132ed576132ec612e6f565b5b92915050565b7f4e487b7100000000000000000000000000000000000000000000000000000000600052601260045260246000fd5b600061332d8261234b565b91506133388361234b565b925082613348576133476132f3565b5b828204905092915050565b7f4552433732313a207472616e736665722066726f6d20696e636f72726563742060008201527f6f776e6572000000000000000000000000000000000000000000000000000000602082015250565b60006133af6025836122a4565b91506133ba82613353565b604082019050919050565b600060208201905081810360008301526133de816133a2565b9050919050565b7f4552433732313a207472616e7366657220746f20746865207a65726f2061646460008201527f7265737300000000000000000000000000000000000000000000000000000000602082015250565b60006134416024836122a4565b915061344c826133e5565b604082019050919050565b6000602082019050818103600083015261347081613434565b9050919050565b7f4f776e61626c653a2063616c6c6572206973206e6f7420746865206f776e6572600082015250565b60006134ad6020836122a4565b91506134b882613477565b602082019050919050565b600060208201905081810360008301526134dc816134a0565b9050919050565b7f4552433732313a20617070726f766520746f2063616c6c657200000000000000600082015250565b60006135196019836122a4565b9150613524826134e3565b602082019050919050565b600060208201905081810360008301526135488161350c565b9050919050565b7f4552433732313a207472616e7366657220746f206e6f6e20455243373231526560008201527f63656976657220696d706c656d656e7465720000000000000000000000000000602082015250565b60006135ab6032836122a4565b91506135b68261354f565b604082019050919050565b600060208201905081810360008301526135da8161359e565b9050919050565b60006135ec8261234b565b91506135f78361234b565b925082613607576136066132f3565b5b828206905092915050565b600081519050919050565b600082825260208201905092915050565b600061363982613612565b613643818561361d565b93506136538185602086016122b5565b61365c816122df565b840191505092915050565b600060808201905061367c60008301876123e0565b61368960208301866123e0565b61369660408301856125bf565b81810360608301526136a8818461362e565b905095945050505050565b6000815190506136c28161220a565b92915050565b6000602082840312156136de576136dd6121d4565b5b60006136ec848285016136b3565b91505092915050565b7f4552433732313a206d696e7420746f20746865207a65726f2061646472657373600082015250565b600061372b6020836122a4565b9150613736826136f5565b602082019050919050565b6000602082019050818103600083015261375a8161371e565b9050919050565b7f4552433732313a20746f6b656e20616c7265616479206d696e74656400000000600082015250565b6000613797601c836122a4565b91506137a282613761565b602082019050919050565b600060208201905081810360008301526137c68161378a565b905091905056fea2646970667358221220bfb0cf16bd2b80f88d42c2dc6670eceef6e93b349a5e362c00cc8f8c5d2a732664736f6c63430008110033",
  "linkReferences": {},
  "deployedLinkReferences": {}
}