{
  "address": "0x83BA18B514386A1280C7310c8e865c046d259801",
  "contractName": "BUIMarketplace",
  "abi": [
    {
      "inputs": [
        {
          "internalType": "address",
          "name": "buiBlockAddress",
          "type": "address"
        },
        {
          "internalType": "uint256",
          "name": "listingPrice_",
          "type": "uint256"
        }
      ],
      "stateMutability": "nonpayable",
      "type": "constructor"
    },
    {
      "anonymous": false,
      "inputs": [
        {
          "indexed": false,
          "internalType": "uint256",
          "name": "id",
          "type": "uint256"
        },
        {
          "indexed": false,
          "internalType": "bool",
          "name": "licensable",
          "type": "bool"
        },
        {
          "indexed": false,
          "internalType": "uint256",
          "name": "tokenId",
          "type": "uint256"
        }
      ],
      "name": "BUIListingCreated",
      "type": "event"
    },
    {
      "anonymous": false,
      "inputs": [
        {
          "indexed": true,
          "internalType": "address",
          "name": "previousOwner",
          "type": "address"
        },
        {
          "indexed": true,
          "internalType": "address",
          "name": "newOwner",
          "type": "address"
        }
      ],
      "name": "OwnershipTransferred",
      "type": "event"
    },
    {
      "inputs": [
        {
          "internalType": "uint256",
          "name": "amount",
          "type": "uint256"
        },
        {
          "internalType": "uint256",
          "name": "page",
          "type": "uint256"
        }
      ],
      "name": "getListings",
      "outputs": [
        {
          "components": [
            {
              "internalType": "string",
              "name": "metaDataURI",
              "type": "string"
            },
            {
              "internalType": "address payable",
              "name": "owner",
              "type": "address"
            },
            {
              "internalType": "uint256",
              "name": "pricePerDay",
              "type": "uint256"
            },
            {
              "internalType": "uint256",
              "name": "price",
              "type": "uint256"
            },
            {
              "internalType": "bool",
              "name": "licensable",
              "type": "bool"
            }
          ],
          "internalType": "struct Listing[]",
          "name": "",
          "type": "tuple[]"
        }
      ],
      "stateMutability": "view",
      "type": "function"
    },
    {
      "inputs": [
        {
          "internalType": "string",
          "name": "metaDataURI",
          "type": "string"
        },
        {
          "internalType": "uint256",
          "name": "pricePerDay",
          "type": "uint256"
        },
        {
          "internalType": "uint256",
          "name": "price",
          "type": "uint256"
        },
        {
          "internalType": "uint256",
          "name": "tokenId",
          "type": "uint256"
        },
        {
          "internalType": "bool",
          "name": "licensable",
          "type": "bool"
        }
      ],
      "name": "listBlock",
      "outputs": [],
      "stateMutability": "payable",
      "type": "function"
    },
    {
      "inputs": [
        {
          "internalType": "uint256",
          "name": "tokenId",
          "type": "uint256"
        }
      ],
      "name": "listingForTokenId",
      "outputs": [
        {
          "components": [
            {
              "internalType": "string",
              "name": "metaDataURI",
              "type": "string"
            },
            {
              "internalType": "address payable",
              "name": "owner",
              "type": "address"
            },
            {
              "internalType": "uint256",
              "name": "pricePerDay",
              "type": "uint256"
            },
            {
              "internalType": "uint256",
              "name": "price",
              "type": "uint256"
            },
            {
              "internalType": "bool",
              "name": "licensable",
              "type": "bool"
            }
          ],
          "internalType": "struct Listing",
          "name": "listing",
          "type": "tuple"
        }
      ],
      "stateMutability": "view",
      "type": "function"
    },
    {
      "inputs": [],
      "name": "listingPrice",
      "outputs": [
        {
          "internalType": "uint256",
          "name": "",
          "type": "uint256"
        }
      ],
      "stateMutability": "view",
      "type": "function"
    },
    {
      "inputs": [],
      "name": "owner",
      "outputs": [
        {
          "internalType": "address",
          "name": "",
          "type": "address"
        }
      ],
      "stateMutability": "view",
      "type": "function"
    },
    {
      "inputs": [],
      "name": "renounceOwnership",
      "outputs": [],
      "stateMutability": "nonpayable",
      "type": "function"
    },
    {
      "inputs": [
        {
          "internalType": "uint256",
          "name": "listingPrice_",
          "type": "uint256"
        }
      ],
      "name": "setListingPrice",
      "outputs": [],
      "stateMutability": "nonpayable",
      "type": "function"
    },
    {
      "inputs": [
        {
          "internalType": "address",
          "name": "newOwner",
          "type": "address"
        }
      ],
      "name": "transferOwnership",
      "outputs": [],
      "stateMutability": "nonpayable",
      "type": "function"
    },
    {
      "inputs": [],
      "name": "withdraw",
      "outputs": [],
      "stateMutability": "nonpayable",
      "type": "function"
    }
  ],
  "bytecode": "0x6080604052662386f26fc100006005553480156200001c57600080fd5b5060405162001c1a38038062001c1a833981810160405281019062000042919062000223565b6200006262000056620000b260201b60201c565b620000ba60201b60201c565b81600460006101000a81548173ffffffffffffffffffffffffffffffffffffffff021916908373ffffffffffffffffffffffffffffffffffffffff1602179055508060058190555050506200026a565b600033905090565b60008060009054906101000a900473ffffffffffffffffffffffffffffffffffffffff169050816000806101000a81548173ffffffffffffffffffffffffffffffffffffffff021916908373ffffffffffffffffffffffffffffffffffffffff1602179055508173ffffffffffffffffffffffffffffffffffffffff168173ffffffffffffffffffffffffffffffffffffffff167f8be0079c531659141344cd1fd0a4f28419497f9722a3daafe3b4186f6b6457e060405160405180910390a35050565b600080fd5b600073ffffffffffffffffffffffffffffffffffffffff82169050919050565b6000620001b08262000183565b9050919050565b620001c281620001a3565b8114620001ce57600080fd5b50565b600081519050620001e281620001b7565b92915050565b6000819050919050565b620001fd81620001e8565b81146200020957600080fd5b50565b6000815190506200021d81620001f2565b92915050565b600080604083850312156200023d576200023c6200017e565b5b60006200024d85828601620001d1565b925050602062000260858286016200020c565b9150509250929050565b6119a0806200027a6000396000f3fe6080604052600436106100865760003560e01c80638da5cb5b116100595780638da5cb5b146100fe578063c4b0451814610129578063c78f19f914610166578063dbc8925114610191578063f2fde38b146101ce57610086565b80633ccfd60b1461008b57806357f06018146100a2578063715018a6146100be5780637c726b69146100d5575b600080fd5b34801561009757600080fd5b506100a06101f7565b005b6100bc60048036038101906100b79190610dce565b610255565b005b3480156100ca57600080fd5b506100d3610616565b005b3480156100e157600080fd5b506100fc60048036038101906100f79190610e65565b61062a565b005b34801561010a57600080fd5b5061011361063c565b6040516101209190610ed3565b60405180910390f35b34801561013557600080fd5b50610150600480360381019061014b9190610eee565b610665565b60405161015d9190611124565b60405180910390f35b34801561017257600080fd5b5061017b6108a8565b6040516101889190611155565b60405180910390f35b34801561019d57600080fd5b506101b860048036038101906101b39190610e65565b6108ae565b6040516101c591906111e6565b60405180910390f35b3480156101da57600080fd5b506101f560048036038101906101f09190611234565b6109f2565b005b6101ff610a75565b600047905061020c61063c565b73ffffffffffffffffffffffffffffffffffffffff166108fc829081150290604051600060405180830381858888f19350505050158015610251573d6000803e3d6000fd5b5050565b60055434101561029a576040517f08c379a0000000000000000000000000000000000000000000000000000000008152600401610291906112be565b60405180910390fd5b3373ffffffffffffffffffffffffffffffffffffffff16600460009054906101000a900473ffffffffffffffffffffffffffffffffffffffff1673ffffffffffffffffffffffffffffffffffffffff16636352211e846040518263ffffffff1660e01b815260040161030c9190611155565b602060405180830381865afa158015610329573d6000803e3d6000fd5b505050506040513d601f19601f8201168201806040525081019061034d91906112f3565b73ffffffffffffffffffffffffffffffffffffffff16146103a3576040517f08c379a000000000000000000000000000000000000000000000000000000000815260040161039a9061136c565b60405180910390fd5b600073ffffffffffffffffffffffffffffffffffffffff166002600084815260200190815260200160002060010160009054906101000a900473ffffffffffffffffffffffffffffffffffffffff1673ffffffffffffffffffffffffffffffffffffffff1614610448576040517f08c379a000000000000000000000000000000000000000000000000000000000815260040161043f906113d8565b60405180910390fd5b60006040518060a001604052808781526020013373ffffffffffffffffffffffffffffffffffffffff1681526020018681526020018581526020018315158152509050806002600085815260200190815260200160002060008201518160000190816104b49190611604565b5060208201518160010160006101000a81548173ffffffffffffffffffffffffffffffffffffffff021916908373ffffffffffffffffffffffffffffffffffffffff160217905550604082015181600201556060820151816003015560808201518160040160006101000a81548160ff021916908315150217905550905050600160003373ffffffffffffffffffffffffffffffffffffffff1673ffffffffffffffffffffffffffffffffffffffff16815260200190815260200160002083908060018154018082558091505060019003906000526020600020016000909190919091505560038390806001815401808255809150506001900390600052602060002001600090919091909150557f1b8d98889265e753e46c34e53d6c314c75a3ecf1f5e332a612c502dc299114c260016003805490506105f59190611705565b838560405161060693929190611748565b60405180910390a1505050505050565b61061e610a75565b6106286000610af3565b565b610632610a75565b8060058190555050565b60008060009054906101000a900473ffffffffffffffffffffffffffffffffffffffff16905090565b60606000838385610676919061177f565b61068091906117c1565b905060038054905081106106975760038054905090505b60008467ffffffffffffffff8111156106b3576106b2610c35565b5b6040519080825280602002602001820160405280156106ec57816020015b6106d9610bbf565b8152602001906001900390816106d15790505b50905060008085876106fe919061177f565b90505b8381101561089b576002600060038381548110610721576107206117f5565b5b906000526020600020015481526020019081526020016000206040518060a001604052908160008201805461075590611427565b80601f016020809104026020016040519081016040528092919081815260200182805461078190611427565b80156107ce5780601f106107a3576101008083540402835291602001916107ce565b820191906000526020600020905b8154815290600101906020018083116107b157829003601f168201915b505050505081526020016001820160009054906101000a900473ffffffffffffffffffffffffffffffffffffffff1673ffffffffffffffffffffffffffffffffffffffff1673ffffffffffffffffffffffffffffffffffffffff16815260200160028201548152602001600382015481526020016004820160009054906101000a900460ff16151515158152505083838151811061086f5761086e6117f5565b5b6020026020010181905250818061088590611824565b925050808061089390611824565b915050610701565b5081935050505092915050565b60055481565b6108b6610bbf565b600260008381526020019081526020016000206040518060a00160405290816000820180546108e490611427565b80601f016020809104026020016040519081016040528092919081815260200182805461091090611427565b801561095d5780601f106109325761010080835404028352916020019161095d565b820191906000526020600020905b81548152906001019060200180831161094057829003601f168201915b505050505081526020016001820160009054906101000a900473ffffffffffffffffffffffffffffffffffffffff1673ffffffffffffffffffffffffffffffffffffffff1673ffffffffffffffffffffffffffffffffffffffff16815260200160028201548152602001600382015481526020016004820160009054906101000a900460ff1615151515815250509050919050565b6109fa610a75565b600073ffffffffffffffffffffffffffffffffffffffff168173ffffffffffffffffffffffffffffffffffffffff1603610a69576040517f08c379a0000000000000000000000000000000000000000000000000000000008152600401610a60906118de565b60405180910390fd5b610a7281610af3565b50565b610a7d610bb7565b73ffffffffffffffffffffffffffffffffffffffff16610a9b61063c565b73ffffffffffffffffffffffffffffffffffffffff1614610af1576040517f08c379a0000000000000000000000000000000000000000000000000000000008152600401610ae89061194a565b60405180910390fd5b565b60008060009054906101000a900473ffffffffffffffffffffffffffffffffffffffff169050816000806101000a81548173ffffffffffffffffffffffffffffffffffffffff021916908373ffffffffffffffffffffffffffffffffffffffff1602179055508173ffffffffffffffffffffffffffffffffffffffff168173ffffffffffffffffffffffffffffffffffffffff167f8be0079c531659141344cd1fd0a4f28419497f9722a3daafe3b4186f6b6457e060405160405180910390a35050565b600033905090565b6040518060a0016040528060608152602001600073ffffffffffffffffffffffffffffffffffffffff16815260200160008152602001600081526020016000151581525090565b6000604051905090565b600080fd5b600080fd5b600080fd5b600080fd5b6000601f19601f8301169050919050565b7f4e487b7100000000000000000000000000000000000000000000000000000000600052604160045260246000fd5b610c6d82610c24565b810181811067ffffffffffffffff82111715610c8c57610c8b610c35565b5b80604052505050565b6000610c9f610c06565b9050610cab8282610c64565b919050565b600067ffffffffffffffff821115610ccb57610cca610c35565b5b610cd482610c24565b9050602081019050919050565b82818337600083830152505050565b6000610d03610cfe84610cb0565b610c95565b905082815260208101848484011115610d1f57610d1e610c1f565b5b610d2a848285610ce1565b509392505050565b600082601f830112610d4757610d46610c1a565b5b8135610d57848260208601610cf0565b91505092915050565b6000819050919050565b610d7381610d60565b8114610d7e57600080fd5b50565b600081359050610d9081610d6a565b92915050565b60008115159050919050565b610dab81610d96565b8114610db657600080fd5b50565b600081359050610dc881610da2565b92915050565b600080600080600060a08688031215610dea57610de9610c10565b5b600086013567ffffffffffffffff811115610e0857610e07610c15565b5b610e1488828901610d32565b9550506020610e2588828901610d81565b9450506040610e3688828901610d81565b9350506060610e4788828901610d81565b9250506080610e5888828901610db9565b9150509295509295909350565b600060208284031215610e7b57610e7a610c10565b5b6000610e8984828501610d81565b91505092915050565b600073ffffffffffffffffffffffffffffffffffffffff82169050919050565b6000610ebd82610e92565b9050919050565b610ecd81610eb2565b82525050565b6000602082019050610ee86000830184610ec4565b92915050565b60008060408385031215610f0557610f04610c10565b5b6000610f1385828601610d81565b9250506020610f2485828601610d81565b9150509250929050565b600081519050919050565b600082825260208201905092915050565b6000819050602082019050919050565b600081519050919050565b600082825260208201905092915050565b60005b83811015610f94578082015181840152602081019050610f79565b60008484015250505050565b6000610fab82610f5a565b610fb58185610f65565b9350610fc5818560208601610f76565b610fce81610c24565b840191505092915050565b6000610fe482610e92565b9050919050565b610ff481610fd9565b82525050565b61100381610d60565b82525050565b61101281610d96565b82525050565b600060a08301600083015184820360008601526110358282610fa0565b915050602083015161104a6020860182610feb565b50604083015161105d6040860182610ffa565b5060608301516110706060860182610ffa565b5060808301516110836080860182611009565b508091505092915050565b600061109a8383611018565b905092915050565b6000602082019050919050565b60006110ba82610f2e565b6110c48185610f39565b9350836020820285016110d685610f4a565b8060005b8581101561111257848403895281516110f3858261108e565b94506110fe836110a2565b925060208a019950506001810190506110da565b50829750879550505050505092915050565b6000602082019050818103600083015261113e81846110af565b905092915050565b61114f81610d60565b82525050565b600060208201905061116a6000830184611146565b92915050565b600060a083016000830151848203600086015261118d8282610fa0565b91505060208301516111a26020860182610feb565b5060408301516111b56040860182610ffa565b5060608301516111c86060860182610ffa565b5060808301516111db6080860182611009565b508091505092915050565b600060208201905081810360008301526112008184611170565b905092915050565b61121181610eb2565b811461121c57600080fd5b50565b60008135905061122e81611208565b92915050565b60006020828403121561124a57611249610c10565b5b60006112588482850161121f565b91505092915050565b600082825260208201905092915050565b7f496e73756666696369656e74206c697374696e672066756e6473000000000000600082015250565b60006112a8601a83611261565b91506112b382611272565b602082019050919050565b600060208201905081810360008301526112d78161129b565b9050919050565b6000815190506112ed81611208565b92915050565b60006020828403121561130957611308610c10565b5b6000611317848285016112de565b91505092915050565b7f556e617574686f72697a65643a204e6f7420746865206f776e65722e00000000600082015250565b6000611356601c83611261565b915061136182611320565b602082019050919050565b6000602082019050818103600083015261138581611349565b9050919050565b7f4c697374696e6720616c72656164792065786973747300000000000000000000600082015250565b60006113c2601683611261565b91506113cd8261138c565b602082019050919050565b600060208201905081810360008301526113f1816113b5565b9050919050565b7f4e487b7100000000000000000000000000000000000000000000000000000000600052602260045260246000fd5b6000600282049050600182168061143f57607f821691505b602082108103611452576114516113f8565b5b50919050565b60008190508160005260206000209050919050565b60006020601f8301049050919050565b600082821b905092915050565b6000600883026114ba7fffffffffffffffffffffffffffffffffffffffffffffffffffffffffffffffff8261147d565b6114c4868361147d565b95508019841693508086168417925050509392505050565b6000819050919050565b60006115016114fc6114f784610d60565b6114dc565b610d60565b9050919050565b6000819050919050565b61151b836114e6565b61152f61152782611508565b84845461148a565b825550505050565b600090565b611544611537565b61154f818484611512565b505050565b5b818110156115735761156860008261153c565b600181019050611555565b5050565b601f8211156115b85761158981611458565b6115928461146d565b810160208510156115a1578190505b6115b56115ad8561146d565b830182611554565b50505b505050565b600082821c905092915050565b60006115db600019846008026115bd565b1980831691505092915050565b60006115f483836115ca565b9150826002028217905092915050565b61160d82610f5a565b67ffffffffffffffff81111561162657611625610c35565b5b6116308254611427565b61163b828285611577565b600060209050601f83116001811461166e576000841561165c578287015190505b61166685826115e8565b8655506116ce565b601f19841661167c86611458565b60005b828110156116a45784890151825560018201915060208501945060208101905061167f565b868310156116c157848901516116bd601f8916826115ca565b8355505b6001600288020188555050505b505050505050565b7f4e487b7100000000000000000000000000000000000000000000000000000000600052601160045260246000fd5b600061171082610d60565b915061171b83610d60565b9250828203905081811115611733576117326116d6565b5b92915050565b61174281610d96565b82525050565b600060608201905061175d6000830186611146565b61176a6020830185611739565b6117776040830184611146565b949350505050565b600061178a82610d60565b915061179583610d60565b92508282026117a381610d60565b915082820484148315176117ba576117b96116d6565b5b5092915050565b60006117cc82610d60565b91506117d783610d60565b92508282019050808211156117ef576117ee6116d6565b5b92915050565b7f4e487b7100000000000000000000000000000000000000000000000000000000600052603260045260246000fd5b600061182f82610d60565b91507fffffffffffffffffffffffffffffffffffffffffffffffffffffffffffffffff8203611861576118606116d6565b5b600182019050919050565b7f4f776e61626c653a206e6577206f776e657220697320746865207a65726f206160008201527f6464726573730000000000000000000000000000000000000000000000000000602082015250565b60006118c8602683611261565b91506118d38261186c565b604082019050919050565b600060208201905081810360008301526118f7816118bb565b9050919050565b7f4f776e61626c653a2063616c6c6572206973206e6f7420746865206f776e6572600082015250565b6000611934602083611261565b915061193f826118fe565b602082019050919050565b6000602082019050818103600083015261196381611927565b905091905056fea2646970667358221220621d04d7a738fb3e8bed81ba7a89c5d6655ab282f050edb1038a67cb8771e8d164736f6c63430008110033",
  "linkReferences": {},
  "deployedLinkReferences": {}
}