{
  "address": "0x38D6BDC140cE2D9eF14400D4CDD9481b7487c727",
  "contractName": "BUINodeStaking",
  "abi": [
    {
      "inputs": [
        {
          "internalType": "uint256",
          "name": "stakingCost",
          "type": "uint256"
        }
      ],
      "stateMutability": "nonpayable",
      "type": "constructor"
    },
    {
      "anonymous": false,
      "inputs": [
        {
          "indexed": true,
          "internalType": "address",
          "name": "previousOwner",
          "type": "address"
        },
        {
          "indexed": true,
          "internalType": "address",
          "name": "newOwner",
          "type": "address"
        }
      ],
      "name": "OwnershipTransferred",
      "type": "event"
    },
    {
      "inputs": [],
      "name": "owner",
      "outputs": [
        {
          "internalType": "address",
          "name": "",
          "type": "address"
        }
      ],
      "stateMutability": "view",
      "type": "function"
    },
    {
      "inputs": [],
      "name": "register",
      "outputs": [],
      "stateMutability": "payable",
      "type": "function"
    },
    {
      "inputs": [],
      "name": "renounceOwnership",
      "outputs": [],
      "stateMutability": "nonpayable",
      "type": "function"
    },
    {
      "inputs": [
        {
          "internalType": "uint256",
          "name": "stakingCost",
          "type": "uint256"
        }
      ],
      "name": "setStakingCost",
      "outputs": [],
      "stateMutability": "nonpayable",
      "type": "function"
    },
    {
      "inputs": [
        {
          "internalType": "address",
          "name": "newOwner",
          "type": "address"
        }
      ],
      "name": "transferOwnership",
      "outputs": [],
      "stateMutability": "nonpayable",
      "type": "function"
    },
    {
      "inputs": [],
      "name": "unregister",
      "outputs": [],
      "stateMutability": "nonpayable",
      "type": "function"
    },
    {
      "inputs": [
        {
          "internalType": "address",
          "name": "node",
          "type": "address"
        }
      ],
      "name": "verify",
      "outputs": [
        {
          "internalType": "bool",
          "name": "",
          "type": "bool"
        }
      ],
      "stateMutability": "view",
      "type": "function"
    }
  ],
  "bytecode": "0x608060405267016345785d8a000060015534801561001c57600080fd5b50604051610c25380380610c25833981810160405281019061003e919061016e565b61005a61004f61006760201b60201c565b61006f60201b60201c565b806001819055505061019b565b600033905090565b60008060009054906101000a900473ffffffffffffffffffffffffffffffffffffffff169050816000806101000a81548173ffffffffffffffffffffffffffffffffffffffff021916908373ffffffffffffffffffffffffffffffffffffffff1602179055508173ffffffffffffffffffffffffffffffffffffffff168173ffffffffffffffffffffffffffffffffffffffff167f8be0079c531659141344cd1fd0a4f28419497f9722a3daafe3b4186f6b6457e060405160405180910390a35050565b600080fd5b6000819050919050565b61014b81610138565b811461015657600080fd5b50565b60008151905061016881610142565b92915050565b60006020828403121561018457610183610133565b5b600061019284828501610159565b91505092915050565b610a7b806101aa6000396000f3fe6080604052600436106100705760003560e01c806379a61b091161004e57806379a61b09146100d35780638da5cb5b146100fc578063e79a198f14610127578063f2fde38b1461013e57610070565b80631aa3a0081461007557806363a9c3d71461007f578063715018a6146100bc575b600080fd5b61007d610167565b005b34801561008b57600080fd5b506100a660048036038101906100a1919061069f565b610286565b6040516100b391906106e7565b60405180910390f35b3480156100c857600080fd5b506100d16102d1565b005b3480156100df57600080fd5b506100fa60048036038101906100f59190610738565b6102e5565b005b34801561010857600080fd5b506101116102f7565b60405161011e9190610774565b60405180910390f35b34801561013357600080fd5b5061013c610320565b005b34801561014a57600080fd5b506101656004803603810190610160919061069f565b61046f565b005b6001543410156101ac576040517f08c379a00000000000000000000000000000000000000000000000000000000081526004016101a3906107ec565b60405180910390fd5b6000600260003373ffffffffffffffffffffffffffffffffffffffff1673ffffffffffffffffffffffffffffffffffffffff168152602001908152602001600020541461022e576040517f08c379a000000000000000000000000000000000000000000000000000000000815260040161022590610858565b60405180910390fd5b34600260003373ffffffffffffffffffffffffffffffffffffffff1673ffffffffffffffffffffffffffffffffffffffff168152602001908152602001600020600082825461027d91906108a7565b92505081905550565b600080600260008473ffffffffffffffffffffffffffffffffffffffff1673ffffffffffffffffffffffffffffffffffffffff16815260200190815260200160002054119050919050565b6102d96104f2565b6102e36000610570565b565b6102ed6104f2565b8060018190555050565b60008060009054906101000a900473ffffffffffffffffffffffffffffffffffffffff16905090565b6000600260003373ffffffffffffffffffffffffffffffffffffffff1673ffffffffffffffffffffffffffffffffffffffff16815260200190815260200160002054116103a2576040517f08c379a000000000000000000000000000000000000000000000000000000000815260040161039990610927565b60405180910390fd5b6000600260003373ffffffffffffffffffffffffffffffffffffffff1673ffffffffffffffffffffffffffffffffffffffff168152602001908152602001600020819055503373ffffffffffffffffffffffffffffffffffffffff166108fc600260003373ffffffffffffffffffffffffffffffffffffffff1673ffffffffffffffffffffffffffffffffffffffff168152602001908152602001600020549081150290604051600060405180830381858888f1935050505015801561046c573d6000803e3d6000fd5b50565b6104776104f2565b600073ffffffffffffffffffffffffffffffffffffffff168173ffffffffffffffffffffffffffffffffffffffff16036104e6576040517f08c379a00000000000000000000000000000000000000000000000000000000081526004016104dd906109b9565b60405180910390fd5b6104ef81610570565b50565b6104fa610634565b73ffffffffffffffffffffffffffffffffffffffff166105186102f7565b73ffffffffffffffffffffffffffffffffffffffff161461056e576040517f08c379a000000000000000000000000000000000000000000000000000000000815260040161056590610a25565b60405180910390fd5b565b60008060009054906101000a900473ffffffffffffffffffffffffffffffffffffffff169050816000806101000a81548173ffffffffffffffffffffffffffffffffffffffff021916908373ffffffffffffffffffffffffffffffffffffffff1602179055508173ffffffffffffffffffffffffffffffffffffffff168173ffffffffffffffffffffffffffffffffffffffff167f8be0079c531659141344cd1fd0a4f28419497f9722a3daafe3b4186f6b6457e060405160405180910390a35050565b600033905090565b600080fd5b600073ffffffffffffffffffffffffffffffffffffffff82169050919050565b600061066c82610641565b9050919050565b61067c81610661565b811461068757600080fd5b50565b60008135905061069981610673565b92915050565b6000602082840312156106b5576106b461063c565b5b60006106c38482850161068a565b91505092915050565b60008115159050919050565b6106e1816106cc565b82525050565b60006020820190506106fc60008301846106d8565b92915050565b6000819050919050565b61071581610702565b811461072057600080fd5b50565b6000813590506107328161070c565b92915050565b60006020828403121561074e5761074d61063c565b5b600061075c84828501610723565b91505092915050565b61076e81610661565b82525050565b60006020820190506107896000830184610765565b92915050565b600082825260208201905092915050565b7f4e6f7420656e6f756768207374616b6500000000000000000000000000000000600082015250565b60006107d660108361078f565b91506107e1826107a0565b602082019050919050565b60006020820190508181036000830152610805816107c9565b9050919050565b7f416c726561647920726567697374657265640000000000000000000000000000600082015250565b600061084260128361078f565b915061084d8261080c565b602082019050919050565b6000602082019050818103600083015261087181610835565b9050919050565b7f4e487b7100000000000000000000000000000000000000000000000000000000600052601160045260246000fd5b60006108b282610702565b91506108bd83610702565b92508282019050808211156108d5576108d4610878565b5b92915050565b7f4e6f207374616b6520666f756e64000000000000000000000000000000000000600082015250565b6000610911600e8361078f565b915061091c826108db565b602082019050919050565b6000602082019050818103600083015261094081610904565b9050919050565b7f4f776e61626c653a206e6577206f776e657220697320746865207a65726f206160008201527f6464726573730000000000000000000000000000000000000000000000000000602082015250565b60006109a360268361078f565b91506109ae82610947565b604082019050919050565b600060208201905081810360008301526109d281610996565b9050919050565b7f4f776e61626c653a2063616c6c6572206973206e6f7420746865206f776e6572600082015250565b6000610a0f60208361078f565b9150610a1a826109d9565b602082019050919050565b60006020820190508181036000830152610a3e81610a02565b905091905056fea2646970667358221220ea9759589d2c44ac6771ff814554cfe2bbbadbf3c6adf8ebebaff7ba23e1fb0564736f6c63430008110033",
  "linkReferences": {},
  "deployedLinkReferences": {}
}