{
  "address": "0xAeA1c229D9F95C17eEc5C78BaF13F696D552F41c",
  "contractName": "BUINodeStaking",
  "abi": [
    {
      "inputs": [
        {
          "internalType": "uint256",
          "name": "stakingCost_",
          "type": "uint256"
        }
      ],
      "stateMutability": "nonpayable",
      "type": "constructor"
    },
    {
      "anonymous": false,
      "inputs": [
        {
          "components": [
            {
              "internalType": "address payable",
              "name": "owner",
              "type": "address"
            },
            {
              "internalType": "uint256",
              "name": "stake",
              "type": "uint256"
            },
            {
              "internalType": "bytes4",
              "name": "ip",
              "type": "bytes4"
            }
          ],
          "indexed": false,
          "internalType": "struct BUINodeStaking.Node",
          "name": "node",
          "type": "tuple"
        },
        {
          "indexed": false,
          "internalType": "string",
          "name": "status",
          "type": "string"
        }
      ],
      "name": "NodeRegistrationChanged",
      "type": "event"
    },
    {
      "anonymous": false,
      "inputs": [
        {
          "indexed": true,
          "internalType": "address",
          "name": "previousOwner",
          "type": "address"
        },
        {
          "indexed": true,
          "internalType": "address",
          "name": "newOwner",
          "type": "address"
        }
      ],
      "name": "OwnershipTransferred",
      "type": "event"
    },
    {
      "inputs": [
        {
          "internalType": "address",
          "name": "node",
          "type": "address"
        }
      ],
      "name": "balance",
      "outputs": [
        {
          "internalType": "uint256",
          "name": "",
          "type": "uint256"
        }
      ],
      "stateMutability": "view",
      "type": "function"
    },
    {
      "inputs": [],
      "name": "owner",
      "outputs": [
        {
          "internalType": "address",
          "name": "",
          "type": "address"
        }
      ],
      "stateMutability": "view",
      "type": "function"
    },
    {
      "inputs": [
        {
          "internalType": "bytes4",
          "name": "ip",
          "type": "bytes4"
        }
      ],
      "name": "register",
      "outputs": [],
      "stateMutability": "payable",
      "type": "function"
    },
    {
      "inputs": [],
      "name": "renounceOwnership",
      "outputs": [],
      "stateMutability": "nonpayable",
      "type": "function"
    },
    {
      "inputs": [
        {
          "internalType": "uint256",
          "name": "stakingCost_",
          "type": "uint256"
        }
      ],
      "name": "setStakingCost",
      "outputs": [],
      "stateMutability": "nonpayable",
      "type": "function"
    },
    {
      "inputs": [],
      "name": "stakingCost",
      "outputs": [
        {
          "internalType": "uint256",
          "name": "",
          "type": "uint256"
        }
      ],
      "stateMutability": "view",
      "type": "function"
    },
    {
      "inputs": [
        {
          "internalType": "address",
          "name": "newOwner",
          "type": "address"
        }
      ],
      "name": "transferOwnership",
      "outputs": [],
      "stateMutability": "nonpayable",
      "type": "function"
    },
    {
      "inputs": [],
      "name": "unregister",
      "outputs": [],
      "stateMutability": "nonpayable",
      "type": "function"
    },
    {
      "inputs": [
        {
          "internalType": "address",
          "name": "node",
          "type": "address"
        }
      ],
      "name": "verify",
      "outputs": [
        {
          "internalType": "bool",
          "name": "",
          "type": "bool"
        }
      ],
      "stateMutability": "view",
      "type": "function"
    }
  ],
  "bytecode": "0x608060405267016345785d8a00006001553480156200001d57600080fd5b50604051620011973803806200119783398181016040528101906200004391906200017d565b62000063620000576200007160201b60201c565b6200007960201b60201c565b8060018190555050620001af565b600033905090565b60008060009054906101000a900473ffffffffffffffffffffffffffffffffffffffff169050816000806101000a81548173ffffffffffffffffffffffffffffffffffffffff021916908373ffffffffffffffffffffffffffffffffffffffff1602179055508173ffffffffffffffffffffffffffffffffffffffff168173ffffffffffffffffffffffffffffffffffffffff167f8be0079c531659141344cd1fd0a4f28419497f9722a3daafe3b4186f6b6457e060405160405180910390a35050565b600080fd5b6000819050919050565b620001578162000142565b81146200016357600080fd5b50565b60008151905062000177816200014c565b92915050565b6000602082840312156200019657620001956200013d565b5b6000620001a68482850162000166565b91505092915050565b610fd880620001bf6000396000f3fe6080604052600436106100865760003560e01c8063c0cf442a11610059578063c0cf442a14610133578063d6fb295f1461015e578063e3d670d71461017a578063e79a198f146101b7578063f2fde38b146101ce57610086565b806363a9c3d71461008b578063715018a6146100c857806379a61b09146100df5780638da5cb5b14610108575b600080fd5b34801561009757600080fd5b506100b260048036038101906100ad9190610949565b6101f7565b6040516100bf9190610991565b60405180910390f35b3480156100d457600080fd5b506100dd6102c3565b005b3480156100eb57600080fd5b50610106600480360381019061010191906109e2565b6102d7565b005b34801561011457600080fd5b5061011d6102e9565b60405161012a9190610a1e565b60405180910390f35b34801561013f57600080fd5b50610148610312565b6040516101559190610a48565b60405180910390f35b61017860048036038101906101739190610abb565b610318565b005b34801561018657600080fd5b506101a1600480360381019061019c9190610949565b6104d0565b6040516101ae9190610a48565b60405180910390f35b3480156101c357600080fd5b506101cc61051c565b005b3480156101da57600080fd5b506101f560048036038101906101f09190610949565b610719565b005b600080600260008473ffffffffffffffffffffffffffffffffffffffff1673ffffffffffffffffffffffffffffffffffffffff168152602001908152602001600020600101541180156102bc5750600060e01b600260008473ffffffffffffffffffffffffffffffffffffffff1673ffffffffffffffffffffffffffffffffffffffff16815260200190815260200160002060020160009054906101000a900460e01b7bffffffffffffffffffffffffffffffffffffffffffffffffffffffff191614155b9050919050565b6102cb61079c565b6102d5600061081a565b565b6102df61079c565b8060018190555050565b60008060009054906101000a900473ffffffffffffffffffffffffffffffffffffffff16905090565b60015481565b6000600260003373ffffffffffffffffffffffffffffffffffffffff1673ffffffffffffffffffffffffffffffffffffffff1681526020019081526020016000209050600073ffffffffffffffffffffffffffffffffffffffff168160000160009054906101000a900473ffffffffffffffffffffffffffffffffffffffff1673ffffffffffffffffffffffffffffffffffffffff16036103f757338160000160006101000a81548173ffffffffffffffffffffffffffffffffffffffff021916908373ffffffffffffffffffffffffffffffffffffffff1602179055505b600154816001015410156104755780600101546001546104179190610b17565b341015610459576040517f08c379a000000000000000000000000000000000000000000000000000000000815260040161045090610ba8565b60405180910390fd5b3481600101600082825461046d9190610bc8565b925050819055505b818160020160006101000a81548163ffffffff021916908360e01c02179055507fa42e4505178f05ccee593bf7a131ab2ccab2dcfd421f56c54c635ab4de6585b9816040516104c49190610d90565b60405180910390a15050565b6000600260008373ffffffffffffffffffffffffffffffffffffffff1673ffffffffffffffffffffffffffffffffffffffff168152602001908152602001600020600101549050919050565b6000600260003373ffffffffffffffffffffffffffffffffffffffff1673ffffffffffffffffffffffffffffffffffffffff16815260200190815260200160002060010154116105a1576040517f08c379a000000000000000000000000000000000000000000000000000000000815260040161059890610e0a565b60405180910390fd5b6000600260003373ffffffffffffffffffffffffffffffffffffffff1673ffffffffffffffffffffffffffffffffffffffff16815260200190815260200160002090506000816001015490506000600260003373ffffffffffffffffffffffffffffffffffffffff1673ffffffffffffffffffffffffffffffffffffffff16815260200190815260200160002060010181905550600060e01b600260003373ffffffffffffffffffffffffffffffffffffffff1673ffffffffffffffffffffffffffffffffffffffff16815260200190815260200160002060020160006101000a81548163ffffffff021916908360e01c02179055503373ffffffffffffffffffffffffffffffffffffffff166108fc829081150290604051600060405180830381858888f193505050501580156106dd573d6000803e3d6000fd5b507fa42e4505178f05ccee593bf7a131ab2ccab2dcfd421f56c54c635ab4de6585b98260405161070d9190610e76565b60405180910390a15050565b61072161079c565b600073ffffffffffffffffffffffffffffffffffffffff168173ffffffffffffffffffffffffffffffffffffffff1603610790576040517f08c379a000000000000000000000000000000000000000000000000000000000815260040161078790610f16565b60405180910390fd5b6107998161081a565b50565b6107a46108de565b73ffffffffffffffffffffffffffffffffffffffff166107c26102e9565b73ffffffffffffffffffffffffffffffffffffffff1614610818576040517f08c379a000000000000000000000000000000000000000000000000000000000815260040161080f90610f82565b60405180910390fd5b565b60008060009054906101000a900473ffffffffffffffffffffffffffffffffffffffff169050816000806101000a81548173ffffffffffffffffffffffffffffffffffffffff021916908373ffffffffffffffffffffffffffffffffffffffff1602179055508173ffffffffffffffffffffffffffffffffffffffff168173ffffffffffffffffffffffffffffffffffffffff167f8be0079c531659141344cd1fd0a4f28419497f9722a3daafe3b4186f6b6457e060405160405180910390a35050565b600033905090565b600080fd5b600073ffffffffffffffffffffffffffffffffffffffff82169050919050565b6000610916826108eb565b9050919050565b6109268161090b565b811461093157600080fd5b50565b6000813590506109438161091d565b92915050565b60006020828403121561095f5761095e6108e6565b5b600061096d84828501610934565b91505092915050565b60008115159050919050565b61098b81610976565b82525050565b60006020820190506109a66000830184610982565b92915050565b6000819050919050565b6109bf816109ac565b81146109ca57600080fd5b50565b6000813590506109dc816109b6565b92915050565b6000602082840312156109f8576109f76108e6565b5b6000610a06848285016109cd565b91505092915050565b610a188161090b565b82525050565b6000602082019050610a336000830184610a0f565b92915050565b610a42816109ac565b82525050565b6000602082019050610a5d6000830184610a39565b92915050565b60007fffffffff0000000000000000000000000000000000000000000000000000000082169050919050565b610a9881610a63565b8114610aa357600080fd5b50565b600081359050610ab581610a8f565b92915050565b600060208284031215610ad157610ad06108e6565b5b6000610adf84828501610aa6565b91505092915050565b7f4e487b7100000000000000000000000000000000000000000000000000000000600052601160045260246000fd5b6000610b22826109ac565b9150610b2d836109ac565b9250828203905081811115610b4557610b44610ae8565b5b92915050565b600082825260208201905092915050565b7f4e6f7420656e6f756768207374616b6500000000000000000000000000000000600082015250565b6000610b92601083610b4b565b9150610b9d82610b5c565b602082019050919050565b60006020820190508181036000830152610bc181610b85565b9050919050565b6000610bd3826109ac565b9150610bde836109ac565b9250828201905080821115610bf657610bf5610ae8565b5b92915050565b60008160001c9050919050565b600073ffffffffffffffffffffffffffffffffffffffff82169050919050565b6000610c3c610c3783610bfc565b610c09565b9050919050565b6000610c4e826108eb565b9050919050565b610c5e81610c43565b82525050565b6000819050919050565b6000610c81610c7c83610bfc565b610c64565b9050919050565b610c91816109ac565b82525050565b60008160e01b9050919050565b6000610caf82610c97565b9050919050565b6000610cc9610cc483610bfc565b610ca4565b9050919050565b610cd981610a63565b82525050565b606082016000808301549050610cf481610c29565b610d016000860182610c55565b5060018301549050610d1281610c6e565b610d1f6020860182610c88565b5060028301549050610d3081610cb6565b610d3d6040860182610cd0565b5050505050565b7f7265676973746572656400000000000000000000000000000000000000000000600082015250565b6000610d7a600a83610b4b565b9150610d8582610d44565b602082019050919050565b6000608082019050610da56000830184610cdf565b8181036060830152610db681610d6d565b905092915050565b7f4e6f207374616b6520666f756e64000000000000000000000000000000000000600082015250565b6000610df4600e83610b4b565b9150610dff82610dbe565b602082019050919050565b60006020820190508181036000830152610e2381610de7565b9050919050565b7f756e726567697374657265640000000000000000000000000000000000000000600082015250565b6000610e60600c83610b4b565b9150610e6b82610e2a565b602082019050919050565b6000608082019050610e8b6000830184610cdf565b8181036060830152610e9c81610e53565b905092915050565b7f4f776e61626c653a206e6577206f776e657220697320746865207a65726f206160008201527f6464726573730000000000000000000000000000000000000000000000000000602082015250565b6000610f00602683610b4b565b9150610f0b82610ea4565b604082019050919050565b60006020820190508181036000830152610f2f81610ef3565b9050919050565b7f4f776e61626c653a2063616c6c6572206973206e6f7420746865206f776e6572600082015250565b6000610f6c602083610b4b565b9150610f7782610f36565b602082019050919050565b60006020820190508181036000830152610f9b81610f5f565b905091905056fea2646970667358221220068fd20922fad3ac6beddd65ca55e99f5c0c5924e66f18beb3235aab2a6105c564736f6c63430008110033",
  "linkReferences": {},
  "deployedLinkReferences": {}
}