{
  "address": "0x82Fb2DF8050b79ab9274Df3BfFe5f34B66f890E4",
  "contractName": "BUIOriginRegistry",
  "abi": [
    {
      "inputs": [
        {
          "internalType": "uint256",
          "name": "minBalance",
          "type": "uint256"
        }
      ],
      "stateMutability": "nonpayable",
      "type": "constructor"
    },
    {
      "anonymous": false,
      "inputs": [
        {
          "indexed": false,
          "internalType": "address",
          "name": "owner",
          "type": "address"
        },
        {
          "indexed": false,
          "internalType": "bytes32",
          "name": "origin",
          "type": "bytes32"
        }
      ],
      "name": "OriginRegistered",
      "type": "event"
    },
    {
      "anonymous": false,
      "inputs": [
        {
          "indexed": false,
          "internalType": "address",
          "name": "owner",
          "type": "address"
        },
        {
          "indexed": false,
          "internalType": "bytes32",
          "name": "origin",
          "type": "bytes32"
        }
      ],
      "name": "OriginUnregistered",
      "type": "event"
    },
    {
      "anonymous": false,
      "inputs": [
        {
          "indexed": true,
          "internalType": "address",
          "name": "previousOwner",
          "type": "address"
        },
        {
          "indexed": true,
          "internalType": "address",
          "name": "newOwner",
          "type": "address"
        }
      ],
      "name": "OwnershipTransferred",
      "type": "event"
    },
    {
      "inputs": [],
      "name": "originsForSender",
      "outputs": [
        {
          "internalType": "string[]",
          "name": "",
          "type": "string[]"
        }
      ],
      "stateMutability": "view",
      "type": "function"
    },
    {
      "inputs": [],
      "name": "owner",
      "outputs": [
        {
          "internalType": "address",
          "name": "",
          "type": "address"
        }
      ],
      "stateMutability": "view",
      "type": "function"
    },
    {
      "inputs": [
        {
          "internalType": "string",
          "name": "fqdn",
          "type": "string"
        }
      ],
      "name": "register",
      "outputs": [],
      "stateMutability": "payable",
      "type": "function"
    },
    {
      "inputs": [],
      "name": "renounceOwnership",
      "outputs": [],
      "stateMutability": "nonpayable",
      "type": "function"
    },
    {
      "inputs": [
        {
          "internalType": "address",
          "name": "newOwner",
          "type": "address"
        }
      ],
      "name": "transferOwnership",
      "outputs": [],
      "stateMutability": "nonpayable",
      "type": "function"
    },
    {
      "inputs": [
        {
          "internalType": "bytes32",
          "name": "origin",
          "type": "bytes32"
        }
      ],
      "name": "unregister",
      "outputs": [],
      "stateMutability": "nonpayable",
      "type": "function"
    },
    {
      "inputs": [
        {
          "internalType": "bytes32",
          "name": "origin",
          "type": "bytes32"
        },
        {
          "internalType": "address",
          "name": "owner",
          "type": "address"
        }
      ],
      "name": "verifyOwner",
      "outputs": [
        {
          "internalType": "bool",
          "name": "",
          "type": "bool"
        }
      ],
      "stateMutability": "view",
      "type": "function"
    },
    {
      "inputs": [],
      "name": "withdraw",
      "outputs": [],
      "stateMutability": "nonpayable",
      "type": "function"
    }
  ],
  "bytecode": "0x608060405267016345785d8a00006005553480156200001d57600080fd5b5060405162001c0638038062001c0683398181016040528101906200004391906200017d565b62000063620000576200007160201b60201c565b6200007960201b60201c565b8060058190555050620001af565b600033905090565b60008060009054906101000a900473ffffffffffffffffffffffffffffffffffffffff169050816000806101000a81548173ffffffffffffffffffffffffffffffffffffffff021916908373ffffffffffffffffffffffffffffffffffffffff1602179055508173ffffffffffffffffffffffffffffffffffffffff168173ffffffffffffffffffffffffffffffffffffffff167f8be0079c531659141344cd1fd0a4f28419497f9722a3daafe3b4186f6b6457e060405160405180910390a35050565b600080fd5b6000819050919050565b620001578162000142565b81146200016357600080fd5b50565b60008151905062000177816200014c565b92915050565b6000602082840312156200019657620001956200013d565b5b6000620001a68482850162000166565b91505092915050565b611a4780620001bf6000396000f3fe60806040526004361061007b5760003560e01c8063715018a61161004e578063715018a6146101285780638da5cb5b1461013f578063f2c298be1461016a578063f2fde38b146101865761007b565b80631a0919dc146100805780633ccfd60b146100a957806342d9aee3146100c0578063498b4130146100eb575b600080fd5b34801561008c57600080fd5b506100a760048036038101906100a29190610e0c565b6101af565b005b3480156100b557600080fd5b506100be61054e565b005b3480156100cc57600080fd5b506100d56105ac565b6040516100e29190610f8b565b60405180910390f35b3480156100f757600080fd5b50610112600480360381019061010d919061100b565b6107c5565b60405161011f9190611066565b60405180910390f35b34801561013457600080fd5b5061013d610831565b005b34801561014b57600080fd5b50610154610845565b6040516101619190611090565b60405180910390f35b610184600480360381019061017f91906111e0565b61086e565b005b34801561019257600080fd5b506101ad60048036038101906101a89190611229565b610b86565b005b3373ffffffffffffffffffffffffffffffffffffffff166001600083815260200190815260200160002060009054906101000a900473ffffffffffffffffffffffffffffffffffffffff1673ffffffffffffffffffffffffffffffffffffffff1614610250576040517f08c379a0000000000000000000000000000000000000000000000000000000008152600401610247906112b3565b60405180910390fd5b6000600260003373ffffffffffffffffffffffffffffffffffffffff1673ffffffffffffffffffffffffffffffffffffffff168152602001908152602001600020905060005b8180549050811015610549578181815481106102b5576102b46112d3565b5b906000526020600020015483036105365760008190505b600183805490506102dd919061133b565b81101561034257826001826102f2919061136f565b81548110610303576103026112d3565b5b9060005260206000200154838281548110610321576103206112d3565b5b9060005260206000200181905550808061033a906113a3565b9150506102cc565b5081805480610354576103536113eb565b5b6001900381819060005260206000200160009055905581600260003373ffffffffffffffffffffffffffffffffffffffff1673ffffffffffffffffffffffffffffffffffffffff1681526020019081526020016000209080546103b8929190610d53565b50604051806020016040528060008152506004600085815260200190815260200160002090816103e89190611626565b506000600360008581526020019081526020016000205490506000600360008681526020019081526020016000208190555060006001600086815260200190815260200160002060009054906101000a900473ffffffffffffffffffffffffffffffffffffffff16905060006001600087815260200190815260200160002060006101000a81548173ffffffffffffffffffffffffffffffffffffffff021916908373ffffffffffffffffffffffffffffffffffffffff16021790555060008211156104f6578073ffffffffffffffffffffffffffffffffffffffff166108fc839081150290604051600060405180830381858888f193505050501580156104f4573d6000803e3d6000fd5b505b7fe034660fe352dfa4b72c065083e3fe79d75d29f1a2f929bfc2f5acede4c9c54a3386604051610527929190611707565b60405180910390a15050610549565b8080610541906113a3565b915050610296565b505050565b610556610c09565b6000479050610563610845565b73ffffffffffffffffffffffffffffffffffffffff166108fc829081150290604051600060405180830381858888f193505050501580156105a8573d6000803e3d6000fd5b5050565b60606000600260003373ffffffffffffffffffffffffffffffffffffffff1673ffffffffffffffffffffffffffffffffffffffff1681526020019081526020016000208054905067ffffffffffffffff81111561060c5761060b6110b5565b5b60405190808252806020026020018201604052801561063f57816020015b606081526020019060019003908161062a5790505b50905060005b600260003373ffffffffffffffffffffffffffffffffffffffff1673ffffffffffffffffffffffffffffffffffffffff168152602001908152602001600020805490508110156107bd576000600260003373ffffffffffffffffffffffffffffffffffffffff1673ffffffffffffffffffffffffffffffffffffffff16815260200190815260200160002082815481106106e2576106e16112d3565b5b9060005260206000200154905060046000828152602001908152602001600020805461070d90611449565b80601f016020809104026020016040519081016040528092919081815260200182805461073990611449565b80156107865780601f1061075b57610100808354040283529160200191610786565b820191906000526020600020905b81548152906001019060200180831161076957829003601f168201915b505050505083838151811061079e5761079d6112d3565b5b60200260200101819052505080806107b5906113a3565b915050610645565b508091505090565b60008173ffffffffffffffffffffffffffffffffffffffff166001600085815260200190815260200160002060009054906101000a900473ffffffffffffffffffffffffffffffffffffffff1673ffffffffffffffffffffffffffffffffffffffff1614905092915050565b610839610c09565b6108436000610c87565b565b60008060009054906101000a900473ffffffffffffffffffffffffffffffffffffffff16905090565b600081604051602001610881919061176c565b6040516020818303038152906040528051906020012090506005543410156108de576040517f08c379a00000000000000000000000000000000000000000000000000000000081526004016108d5906117f5565b60405180910390fd5b600073ffffffffffffffffffffffffffffffffffffffff166001600083815260200190815260200160002060009054906101000a900473ffffffffffffffffffffffffffffffffffffffff1673ffffffffffffffffffffffffffffffffffffffff1614610980576040517f08c379a000000000000000000000000000000000000000000000000000000000815260040161097790611887565b60405180910390fd5b6000600260003373ffffffffffffffffffffffffffffffffffffffff1673ffffffffffffffffffffffffffffffffffffffff168152602001908152602001600020905060005b8180549050811015610a44578181815481106109e5576109e46112d3565b5b90600052602060002001548303610a31576040517f08c379a0000000000000000000000000000000000000000000000000000000008152600401610a28906118f3565b60405180910390fd5b8080610a3c906113a3565b9150506109c6565b50336001600084815260200190815260200160002060006101000a81548173ffffffffffffffffffffffffffffffffffffffff021916908373ffffffffffffffffffffffffffffffffffffffff160217905550600260003373ffffffffffffffffffffffffffffffffffffffff1673ffffffffffffffffffffffffffffffffffffffff16815260200190815260200160002082908060018154018082558091505060019003906000526020600020016000909190919091505534600360008481526020019081526020016000206000828254610b20919061136f565b9250508190555082600460008481526020019081526020016000209081610b479190611626565b507f89f1032e4261c615fad6840a80bbd0738ab62fbc91bf044e4626e3a1263f088f3383604051610b79929190611707565b60405180910390a1505050565b610b8e610c09565b600073ffffffffffffffffffffffffffffffffffffffff168173ffffffffffffffffffffffffffffffffffffffff1603610bfd576040517f08c379a0000000000000000000000000000000000000000000000000000000008152600401610bf490611985565b60405180910390fd5b610c0681610c87565b50565b610c11610d4b565b73ffffffffffffffffffffffffffffffffffffffff16610c2f610845565b73ffffffffffffffffffffffffffffffffffffffff1614610c85576040517f08c379a0000000000000000000000000000000000000000000000000000000008152600401610c7c906119f1565b60405180910390fd5b565b60008060009054906101000a900473ffffffffffffffffffffffffffffffffffffffff169050816000806101000a81548173ffffffffffffffffffffffffffffffffffffffff021916908373ffffffffffffffffffffffffffffffffffffffff1602179055508173ffffffffffffffffffffffffffffffffffffffff168173ffffffffffffffffffffffffffffffffffffffff167f8be0079c531659141344cd1fd0a4f28419497f9722a3daafe3b4186f6b6457e060405160405180910390a35050565b600033905090565b828054828255906000526020600020908101928215610d945760005260206000209182015b82811115610d93578254825591600101919060010190610d78565b5b509050610da19190610da5565b5090565b5b80821115610dbe576000816000905550600101610da6565b5090565b6000604051905090565b600080fd5b600080fd5b6000819050919050565b610de981610dd6565b8114610df457600080fd5b50565b600081359050610e0681610de0565b92915050565b600060208284031215610e2257610e21610dcc565b5b6000610e3084828501610df7565b91505092915050565b600081519050919050565b600082825260208201905092915050565b6000819050602082019050919050565b600081519050919050565b600082825260208201905092915050565b60005b83811015610e9f578082015181840152602081019050610e84565b60008484015250505050565b6000601f19601f8301169050919050565b6000610ec782610e65565b610ed18185610e70565b9350610ee1818560208601610e81565b610eea81610eab565b840191505092915050565b6000610f018383610ebc565b905092915050565b6000602082019050919050565b6000610f2182610e39565b610f2b8185610e44565b935083602082028501610f3d85610e55565b8060005b85811015610f795784840389528151610f5a8582610ef5565b9450610f6583610f09565b925060208a01995050600181019050610f41565b50829750879550505050505092915050565b60006020820190508181036000830152610fa58184610f16565b905092915050565b600073ffffffffffffffffffffffffffffffffffffffff82169050919050565b6000610fd882610fad565b9050919050565b610fe881610fcd565b8114610ff357600080fd5b50565b60008135905061100581610fdf565b92915050565b6000806040838503121561102257611021610dcc565b5b600061103085828601610df7565b925050602061104185828601610ff6565b9150509250929050565b60008115159050919050565b6110608161104b565b82525050565b600060208201905061107b6000830184611057565b92915050565b61108a81610fcd565b82525050565b60006020820190506110a56000830184611081565b92915050565b600080fd5b600080fd5b7f4e487b7100000000000000000000000000000000000000000000000000000000600052604160045260246000fd5b6110ed82610eab565b810181811067ffffffffffffffff8211171561110c5761110b6110b5565b5b80604052505050565b600061111f610dc2565b905061112b82826110e4565b919050565b600067ffffffffffffffff82111561114b5761114a6110b5565b5b61115482610eab565b9050602081019050919050565b82818337600083830152505050565b600061118361117e84611130565b611115565b90508281526020810184848401111561119f5761119e6110b0565b5b6111aa848285611161565b509392505050565b600082601f8301126111c7576111c66110ab565b5b81356111d7848260208601611170565b91505092915050565b6000602082840312156111f6576111f5610dcc565b5b600082013567ffffffffffffffff81111561121457611213610dd1565b5b611220848285016111b2565b91505092915050565b60006020828403121561123f5761123e610dcc565b5b600061124d84828501610ff6565b91505092915050565b600082825260208201905092915050565b7f4e6f7420617574686f72697a6564000000000000000000000000000000000000600082015250565b600061129d600e83611256565b91506112a882611267565b602082019050919050565b600060208201905081810360008301526112cc81611290565b9050919050565b7f4e487b7100000000000000000000000000000000000000000000000000000000600052603260045260246000fd5b6000819050919050565b7f4e487b7100000000000000000000000000000000000000000000000000000000600052601160045260246000fd5b600061134682611302565b915061135183611302565b92508282039050818111156113695761136861130c565b5b92915050565b600061137a82611302565b915061138583611302565b925082820190508082111561139d5761139c61130c565b5b92915050565b60006113ae82611302565b91507fffffffffffffffffffffffffffffffffffffffffffffffffffffffffffffffff82036113e0576113df61130c565b5b600182019050919050565b7f4e487b7100000000000000000000000000000000000000000000000000000000600052603160045260246000fd5b7f4e487b7100000000000000000000000000000000000000000000000000000000600052602260045260246000fd5b6000600282049050600182168061146157607f821691505b6020821081036114745761147361141a565b5b50919050565b60008190508160005260206000209050919050565b60006020601f8301049050919050565b600082821b905092915050565b6000600883026114dc7fffffffffffffffffffffffffffffffffffffffffffffffffffffffffffffffff8261149f565b6114e6868361149f565b95508019841693508086168417925050509392505050565b6000819050919050565b600061152361151e61151984611302565b6114fe565b611302565b9050919050565b6000819050919050565b61153d83611508565b6115516115498261152a565b8484546114ac565b825550505050565b600090565b611566611559565b611571818484611534565b505050565b5b818110156115955761158a60008261155e565b600181019050611577565b5050565b601f8211156115da576115ab8161147a565b6115b48461148f565b810160208510156115c3578190505b6115d76115cf8561148f565b830182611576565b50505b505050565b600082821c905092915050565b60006115fd600019846008026115df565b1980831691505092915050565b600061161683836115ec565b9150826002028217905092915050565b61162f82610e65565b67ffffffffffffffff811115611648576116476110b5565b5b6116528254611449565b61165d828285611599565b600060209050601f831160018114611690576000841561167e578287015190505b611688858261160a565b8655506116f0565b601f19841661169e8661147a565b60005b828110156116c6578489015182556001820191506020850194506020810190506116a1565b868310156116e357848901516116df601f8916826115ec565b8355505b6001600288020188555050505b505050505050565b61170181610dd6565b82525050565b600060408201905061171c6000830185611081565b61172960208301846116f8565b9392505050565b600081905092915050565b600061174682610e65565b6117508185611730565b9350611760818560208601610e81565b80840191505092915050565b6000611778828461173b565b915081905092915050565b7f4d757374206d65657420746865206d696e696d756d2062616c616e636520726560008201527f71756972656d656e740000000000000000000000000000000000000000000000602082015250565b60006117df602983611256565b91506117ea82611783565b604082019050919050565b6000602082019050818103600083015261180e816117d2565b9050919050565b7f54686973206f726967696e20697320616c72656164792072656769737465726560008201527f6400000000000000000000000000000000000000000000000000000000000000602082015250565b6000611871602183611256565b915061187c82611815565b604082019050919050565b600060208201905081810360008301526118a081611864565b9050919050565b7f4f726967696e20616c7265616479206578697374730000000000000000000000600082015250565b60006118dd601583611256565b91506118e8826118a7565b602082019050919050565b6000602082019050818103600083015261190c816118d0565b9050919050565b7f4f776e61626c653a206e6577206f776e657220697320746865207a65726f206160008201527f6464726573730000000000000000000000000000000000000000000000000000602082015250565b600061196f602683611256565b915061197a82611913565b604082019050919050565b6000602082019050818103600083015261199e81611962565b9050919050565b7f4f776e61626c653a2063616c6c6572206973206e6f7420746865206f776e6572600082015250565b60006119db602083611256565b91506119e6826119a5565b602082019050919050565b60006020820190508181036000830152611a0a816119ce565b905091905056fea2646970667358221220342e9fea5290d474e02af36b00068f140fd6c440d505c673b13bb67ef355d1f564736f6c63430008110033",
  "linkReferences": {},
  "deployedLinkReferences": {}
}